:020000040800F2
:10000000782C0020610200087D1E00082F1D0008CA
:10001000791E0008B50300085D23000800000000F9
:100020000000000000000000000000007302000853
:10003000B9030008000000007702000879020008F8
:100040007B0200087B0200087B0200087B0200089C
:100050007B0200087B0200087B0200087B0200088C
:100060007B0200087B0200087B0200087B0200087C
:100070007B0200087B0200087B0200087B0200086C
:100080007B0200087B0200087B0200087B0200085C
:100090007B0200087B0200087B0200087B0200084C
:1000A0007B020008951E00087B0200087B02000806
:1000B0007B02000800000000000000007B02000836
:1000C0007B0200087B0200087B02000800000000A1
:1000D0007B0200087B0200083D2300087B02000829
:1000E0007B0200087B0200087B0200080000000081
:1000F0000000000000000000000000000000000000
:100100000000000000000000000000007B0200086A
:1001100000000000000000007B020008000000005A
:1001200000000000000000000000000000000000CF
:1001300000000000000000000000000000000000BF
:100140007B0200087B0200080000000000000000A5
:10015000000000000000000000000000000000009F
:100160007B0200087B0200087B0200087B0200087B
:100170007B020008000000000000000000000000FA
:10018000000000007B020008DFF810D000F000F94A
:1001900000F0DEF80048004791270008782C002086
:1001A0002C4B19680868B0E8F04F80F30988BFF35A
:1001B0006F8F4FF0000080F311887047000000003F
:1001C00008480068006880F308884FF0000080F35A
:1001D000148862B661B6BFF34F8FBFF36F8F00DF35
:1001E00000BF00BF08ED00E0DFF80C00016841F43B
:1001F00070010160704700BF88ED00E0EFF30980F7
:10020000BFF36F8F134B1A681EF0100F08BF20ED5D
:10021000108A20E9F04F106009B44FF0500080F3CD
:100220001188BFF34F8FBFF36F8F03F061FA4FF068
:10023000000080F3118809BC19680868B0E8F04F25
:100240001EF0100F08BFB0EC108A80F30988BFF3CE
:100250006F8F704728000020EFF305807047000083
:100260000648804706480047FEE7FEE7FEE7FEE750
:10027000FEE7FEE7FEE7FEE7FEE7FEE7811E000879
:10028000890100082DE9F05F0546002092469B4653
:1002900088460646814640241BE02846414647469C
:1002A000224600F020F853465A46C01A914110D316
:1002B00011461846224600F05BF82D1A67EB01083C
:1002C0004F4622460120002100F052F817EB0009AA
:1002D0004E41201EA4F10104DFDC484631462A4687
:1002E0004346BDE8F09F202A04DB203A21FA02F0C1
:1002F0000021704721FA02F3D040C2F12002914060
:1003000008431946704740EA01039B0703D009E000
:1003100008C9121F08C0042AFAD203E011F8013BF1
:1003200000F8013B521EF9D27047D2B201E000F84A
:10033000012B491EFBD270470022F6E710B5134689
:100340000A4604461946FFF7F0FF204610BD00009C
:1003500070B5054C054D03E0206820448047241DFE
:10036000AC42F9D170BD000080450008844500080A
:10037000202A04DB203A00FA02F100207047914065
:10038000C2F1200320FA03F31943904070470000A4
:10039000064C074D06E0E06840F0010394E80700D2
:1003A00098471034AC42F6D3FFF7F2FE60450008E0
:1003B0008045000800BFFEE7704772B600BFFEE749
:1003C000014691F82100022808D00420886300BF6C
:1003D000002081F8200000BF0120704708680068F5
:1003E00020F00E000A6810600868006820F0010024
:1003F0000A68106091F8402001209040CA6B50605C
:10040000012081F8210000BF002081F8200000BFFA
:1004100000BFE2E770B50446002594F821000228E9
:1004200003D00420A06301251EE02068006820F0AE
:100430000E00216808602068006820F00100216833
:10044000086094F8401001208840E16B486001206A
:1004500084F8210000BF002084F8200000BF606BFA
:1004600010B12046616B8847284670BD78B50346B9
:100470000A460021BFE001268E40156805EA060401
:10048000002C73D0157905F00305012D04D01579E2
:1004900005F00305022D13D198684E000325B540E1
:1004A000A8434E00D568B540284398605868012598
:1004B0008D40A8431579C5F300158D402843586039
:1004C000157905F00305032D09D0D8684E000325E2
:1004D000B540A8434E009568B5402843D8601579CB
:1004E00005F00305022D13D1CE0803F1200555F8C0
:1004F00026004D07EE0E0F25B540A8434E07F60E19
:100500001569B5402843CE0803F1200545F82600BB
:1005100018684E000325B540A843157905F003057A
:100520004E00B54028431860556805F44035002D4D
:1005300060D000BF334DAD6945F00105314EB56166
:100540003546AD6905F00105009500BF00BF4FEAD3
:10055000B6358E0855F826008D072E0F0F25B540AD
:10056000A843B3F1904F02D1002510E042E0264DA0
:10057000AB4201D101250AE0244DAB4201D1022555
:1005800005E0234DAB4201D1032500E005258E0790
:10059000360FB54028431F4D8E0845F826001E4DE6
:1005A0002868A043556805F4803505B120431A4DED
:1005B00028602D1D2868A043556805F4003505B155
:1005C0002043154D2D1D28602D1D2868A04355681A
:1005D00005F4801505B120430F4D083528602D1D09
:1005E0002868A043556805F4001505B120430A4D5D
:1005F0000C352860491C1568CD40002D7FF43BAFB9
:1006000078BD0000001002400004004800080048C7
:10061000000C004808000140000401400AB181615B
:1006200000E08162704700000148006870470000E8
:10063000180000200348006803490978084401496C
:1006400008607047180000202000002010B50848FE
:10065000006840F0100006490860032000F0C0F870
:10066000002000F007F800F049F8002010BD00005D
:100670000020024070B588B0044600250026002204
:100680002146192000F06EF8192000F05BF800BF39
:100690001648806940F40060144988610846806902
:1006A00000F40060019000BF00BF02A903A800F0A1
:1006B00001FA00F03DFA05460D48B5FBF0F0461E84
:1006C0000C480D49086040F2E7310B48C1604660B4
:1006D00000210161816000F0A6FF20B9064800F00A
:1006E000DBFF08B070BD0120FBE7000000100240F6
:1006F00040420F00002C01402401002008B500BF3B
:100700000F48806940F001000D4988610846806902
:1007100000F00100009000BF00BF00BF0846C069A4
:1007200040F08050C8610846C06900F080500090D9
:1007300000BF00BF00220F21901E00F013F808BD7B
:100740000010024001460846002809DB00F01F03A4
:1007500001229A4043099B0003F1E023C3F80021E2
:1007600000BF70472DE9F05F80460D461646002712
:1007700001F0ACFF074639462A46334601F0070030
:10078000C0F1070ABAF1040F02D94FF0040A01E0E0
:10079000C0F1070AD14600F1040ABAF1070F02D2EC
:1007A0004FF0000A01E0A0F1030AD4464FF0010A1D
:1007B0000AFA09FAAAF1010A0AEA020A0AFA0CFA82
:1007C0004FF0010B0BFA0CFBABF1010B0BEA030B27
:1007D0004AEA0B042146404601F064FFBDE8F09F61
:1007E00000BF00F00702064B19684FF6FF031940DF
:1007F000044B0B4343EA0221014B196000BF7047D1
:100800000CED00E00000FA0570B504460D46002628
:100810000CB9012070BDA248006800F00700A84292
:100820000ED29F48006820F0070028439C490860CA
:100830000846006800F00700A84201D00120E9E75F
:10084000207800F00200022807D19648406820F086
:10085000F000A168084393494860207800F0010047
:1008600000287CD0606801283BD12020010391FA48
:10087000A1F1B1FA81F108430121B1EB601F02D16E
:10088000884800681DE02020010391FAA1F1B1FA27
:1008900081F108430221B1EB601F02D18148006A57
:1008A0000FE02020010391FAA1F1B1FA81F1084390
:1008B0000421B1EB601F02D17A48406801E0794819
:1008C000406A20210A0392FAA2F2B2FA82F211439C
:1008D00001F01F0201219140084000287CD1012035
:1008E00098E7606802283BD12020010591FAA1F128
:1008F000B1FA81F108430121B1EB601F02D16948CF
:1009000000681DE02020010591FAA1F1B1FA81F102
:1009100008430221B1EB601F02D16248006A0FE078
:100920002020010591FAA1F1B1FA81F108430421D7
:10093000B1EB601F02D15B48406801E05948406A52
:1009400020210A0592FAA2F2B2FA82F2114301F0D2
:100950001F02012191400840E8BB01205AE758E0FE
:100960002020022191FAA1F1B1FA81F1084301217D
:10097000B1EB601F02D14B4800681DE0202002212E
:1009800091FAA1F1B1FA81F108430221B1EB601FA4
:1009900002D14448006A0FE02020022191FAA1F11F
:1009A000B1FA81F108430421B1EB601F02D13D4847
:1009B000406801E03B48406A2021022292FAA2F2FC
:1009C000B2FA82F2114301F01F0201219140084066
:1009D00008B901201EE7FFE73248406820F0030015
:1009E000616808432F494860FFF71EFE064608E08D
:1009F000FFF71AFE801B41F28831884201D903209B
:100A000008E72848406800F00C006168B0EB810FEF
:100A1000EED12348006800F00700A8420ED9204814
:100A2000006820F0070028431D4908600846006858
:100A300000F00700A84201D00120EBE6207800F08A
:100A40000400042807D11748406820F4E060E168FA
:100A5000084314494860207800F00800082808D1AD
:100A60001048406820F46050216940EAC1000D49F7
:100A7000486000F073F80B49496801F0F001F0227A
:100A800092FAA2F2B2FA82F2D140074A515CC8400F
:100A90000649086006480068FFF7ECFD0020B9E64B
:100AA00000200240001002400C45000824000020F5
:100AB0001C0000200F2202600D4A526802F003025F
:100AC00042600B4A526802F0F0028260084A5268A3
:100AD00002F4E062C260064A526802F46052D20830
:100AE0000261044A126802F007020A6070470000BF
:100AF00000100240002002400148006870470000DA
:100B00002400002000B5FFF7F7FF0749496801F40A
:100B1000E0614FF4E06292FAA2F2B2FA82F2D140BE
:100B2000024A515CC84000BD001002401C4500084C
:100B300000B5FFF7E1FF0749496801F460514FF440
:100B4000605292FAA2F2B2FA82F2D140024A515CA9
:100B5000C84000BD001002401C4500082DE9F041CE
:100B60000024002500270026A0461F48446804F002
:100B70000C0078B3042802D008282DD102E0DFF859
:100B80006C802CE004F470104FF4701191FAA1F114
:100B9000B1FA81F1C84016490E5C1348C06A00F0F2
:100BA0000F000F2191FAA1F1B1FA81F1C84011496A
:100BB0000D5C04F4803040B12A4600230B481946EE
:100BC000FFF760FBA0FB067102E00B48A0FB06717B
:100BD000B84604E0FFE700BFDFF8108000BF00BFA9
:100BE0004046BDE8F08100000010024000127A008B
:100BF000EC440008FC44000800093D00F8B5044638
:100C00000CB90120F8BD207800F0010000287BD04D
:100C1000FA48406800F00C0004280CD0F7484068FF
:100C200000F00C00082845D1F448406800F48030FA
:100C3000B0F5803F3ED12020010391FAA1F1B1FA35
:100C400081F108430121B1EB601F02D1EB4800683C
:100C50001DE02020010391FAA1F1B1FA81F10843CE
:100C60000221B1EB601F02D1E448006A0FE02020AE
:100C7000010391FAA1F1B1FA81F108430421B1EB2A
:100C8000601F02D1DD48406801E0DC48406A202155
:100C90000A0392FAA2F2B2FA82F2114301F01F02A1
:100CA0000121914008400028B1D0606800282BD174
:100CB0000120A7E700BF6068B0F5803F06D1CF48AC
:100CC000006840F48030CD49086029E0606858B978
:100CD000CA48006820F48030C849086008460068A7
:100CE00020F4802008601BE06068B0F5A02F0CD1D4
:100CF000C248006840F48020C04908600846006887
:100D000040F4803008600BE0A1E0BC48006820F4AB
:100D10008030BA4908600846006820F480200860E6
:100D200000BFB648C06A20F00F00A1680843B3496D
:100D3000C8626068A0B3FFF777FC054606E0FFF7DE
:100D400073FC401B642801D903205BE720200103CA
:100D500091FAA1F1B1FA81F108430121B1EB601FD1
:100D600002D1A64800681EE02020010391FAA1F1FB
:100D7000B1FA81F108430221B1EB601F02D19F4813
:100D8000006A10E02020010391FAA1F1B1FA81F18B
:100D900008430421B1EB601F03D19848406802E08A
:100DA00010E09648406A20210A0392FAA2F2B2FAB1
:100DB00082F2114301F01F020121914008400028F6
:100DC000BDD044E0FFF730FC054606E0FFF72CFC01
:100DD000401B642801D9032014E72020010391FA65
:100DE000A1F1B1FA81F108430121B1EB601F02D1F9
:100DF000824800681DE02020010391FAA1F1B1FAB8
:100E000081F108430221B1EB601F02D17B48006AE7
:100E10000FE02020010391FAA1F1B1FA81F108431A
:100E20000421B1EB601F02D17448406801E07348AF
:100E3000406A20210A0392FAA2F2B2FA82F2114326
:100E400001F01F020121914008400028BED1207806
:100E500000F0020002285CD16848406800F00C00F5
:100E600050B16648406800F00C00082852D1634831
:100E7000406800F48030E8BB2020022191FAA1F103
:100E8000B1FA81F108430121B1EB601F02D15B4847
:100E900000681DE02020022191FAA1F1B1FA81F150
:100EA00008430221B1EB601F02D15448006A0FE0F1
:100EB0002020022191FAA1F1B1FA81F10843042125
:100EC000B1EB601F02D14D48406801E04B48406AD9
:100ED0002021022292FAA2F2B2FA82F2114301F028
:100EE0001F0201219140084028B12069012802D049
:100EF000012087E60EE04148006820F0F800F82263
:100F000092FAA2F2B2FA82F26169914008433B4937
:100F10000860B1E0206970B3012191FAA1F0B0FA44
:100F200080F0374A42F82010FFF77EFB054606E0C6
:100F3000FFF77AFB401B022801D9032062E620203C
:100F4000022191FAA1F1B1FA81F108430121B1EB3B
:100F5000601F02D1294800681EE02020022191FA7A
:100F6000A1F1B1FA81F108430221B1EB601F03D175
:100F70002248006A10E02CE02020022191FAA1F121
:100F8000B1FA81F108430421B1EB601F02D11B4883
:100F9000406801E01948406A2021022292FAA2F238
:100FA000B2FA82F2114301F01F0201219140084080
:100FB0000028BDD01148006820F0F800F82292FA0D
:100FC000A2F2B2FA82F26169914008430B490860CB
:100FD00052E00020012191FAA1F1B1FA81F1084A11
:100FE00042F82100FFF720FB05460BE0FFF71CFB52
:100FF000401B022806D9032004E60000001002402E
:10100000000042422020022191FAA1F1B1FA81F1BF
:1010100008430121B1EB601F02D1FB4800681DE0CD
:101020002020022191FAA1F1B1FA81F108430221B5
:10103000B1EB601F02D1F448006A0FE020200221CA
:1010400091FAA1F1B1FA81F108430421B1EB601FDB
:1010500002D1ED48406801E0EB48406A20210222BD
:1010600092FAA2F2B2FA82F2114301F01F020121B8
:10107000914008400028B9D1207800F008000828E5
:1010800051D1A06980B3012191FAA1F0B0FA80F0AA
:10109000DE4A02EB8000C0F88014FFF7C5FA05466F
:1010A00006E0FFF7C1FA401B022801D90320A9E599
:1010B0006020022191FAA1F1B1FA81F108430121E6
:1010C000B1EB601F02D1D04800681EE06020022111
:1010D00091FAA1F1B1FA81F108430221B1EB601F4D
:1010E00003D1C948006A10E01EE06020022191FA95
:1010F000A1F1B1FA81F108430421B1EB601F02D1E3
:10110000C148406801E0C048406A6021022292FA6A
:10111000A2F2B2FA82F2114301F01F0201219140C2
:1011200008400028BDD04FE00020012191FAA1F134
:10113000B1FA81F1B54A02EB8101C1F88004FFF7F1
:1011400073FA054606E0FFF76FFA401B022801D943
:10115000032057E56020022191FAA1F1B1FA81F153
:1011600008430121B1EB601F02D1A74800681DE0D0
:101170006020022191FAA1F1B1FA81F10843022124
:10118000B1EB601F02D1A048006A0FE0602002218D
:1011900091FAA1F1B1FA81F108430421B1EB601F8A
:1011A00002D19948406801E09748406A60210222D4
:1011B00092FAA2F2B2FA82F2114301F01F02012167
:1011C000914008400028BED1207800F00400042897
:1011D00073D100278C48C06900F0805070B900BFFF
:1011E0008948C06940F080508749C8610846C06995
:1011F00000F08050009000BF00BF012784480068C5
:1012000000F48070B0B98248006840F48070804972
:101210000860FFF709FA054606E0FFF705FA401BEC
:10122000642801D90320EDE47948006800F4807057
:101230000028F2D000BFE068012806D17248006A99
:1012400040F001007049086227E0E06858B96E4834
:10125000006A20F001006C4908620846006A20F02C
:101260000400086219E0E06805280BD16648006AAE
:1012700040F00400644908620846006A40F001003A
:1012800008620AE06048006A20F001005E490862D6
:101290000846006A20F00400086200BFE068B8B3A6
:1012A000FFF7C2F9054609E0FFF7BEF9401B41F21E
:1012B0008831884202D90320A4E48BE04020022137
:1012C00091FAA1F1B1FA81F108430121B1EB601F5C
:1012D00002D14D4800681EE04020022191FAA1F1A0
:1012E000B1FA81F108430221B1EB601F02D14648F7
:1012F000006A10E04020022191FAA1F1B1FA81F1D7
:1013000008430421B1EB601F03D13F48406802E06D
:1013100010E03D48406A4021022292FAA2F2B2FA5D
:1013200082F2114301F01F02012191400840002880
:10133000BAD046E0FFF778F9054608E0FFF774F900
:10134000401B41F28831884201D903205AE44020F1
:10135000022191FAA1F1B1FA81F108430121B1EB27
:10136000601F02D1284800681DE04020022191FA48
:10137000A1F1B1FA81F108430221B1EB601F02D162
:101380002148006A0FE04020022191FAA1F1B1FA50
:1013900081F108430421B1EB601F02D11A48406873
:1013A00001E01948406A4021022292FAA2F2B2FA00
:1013B00082F2114301F01F020121914008400028F0
:1013C000BCD1012F05D11048C06920F080500E49D2
:1013D000C86100BFE069002874D00B48406800F085
:1013E0000C0008286FD0E06902286DD100204FF072
:1013F000807191FAA1F1B1FA81F1044A42F8210019
:10140000FFF712F905460CE00010024000004242CE
:1014100000700040FFF708F9401B022801D90320A3
:1014200047E42020010591FAA1F1B1FA81F10843C6
:101430000121B1EB601F02D1774800681DE0202038
:10144000010591FAA1F1B1FA81F108430221B1EB52
:10145000601F02D17048006A0FE02020010591FA58
:10146000A1F1B1FA81F108430421B1EB601F02D16F
:101470006948406801E06848406A20210A0592FAFC
:10148000A2F2B2FA82F2114301F01F02012191404F
:1014900008400028BED1D4E9081008435E494968D5
:1014A00021F4741108435C4948600120010691FA57
:1014B000A1F1B1FA81F1594A42F82100FFF7B4F8DD
:1014C000054609E0A5E092E041E0FFF7ADF8401BDA
:1014D000022801D9032038E42020010591FAA1F166
:1014E000B1FA81F108430121B1EB601F02D14A48F2
:1014F00000681DE02020010591FAA1F1B1FA81F107
:1015000008430221B1EB601F02D14348006A0FE09B
:101510002020010591FAA1F1B1FA81F108430421DB
:10152000B1EB601F02D13C48406801E03A48406A94
:1015300020210A0592FAA2F2B2FA82F2114301F0D6
:101540001F020121914008400028BED061E0002028
:101550004FF0807191FAA1F1B1FA81F12F4A42F86E
:101560002100FFF761F8054606E0FFF75DF8401B34
:10157000022801D903202FE42020010591FAA1F1CE
:10158000B1FA81F108430121B1EB601F02D1224879
:1015900000681DE02020010591FAA1F1B1FA81F166
:1015A00008430221B1EB601F02D11B48006A0FE023
:1015B0002020010591FAA1F1B1FA81F1084304213B
:1015C000B1EB601F02D11448406801E01248406A44
:1015D00020210A0592FAA2F2B2FA82F2114301F036
:1015E0001F020121914008400028BED111E0E069AE
:1015F000012800D17DE40848466806F48031206A5D
:10160000814204D106F47011606A814201D0012048
:101610006FE400206DE40000001002400000424230
:1016200070477047704710B504460CB9012010BDD3
:1016300094F83D0028B9002084F83C00204600F0D2
:1016400029F8022084F83D00211D206800F02AFCC2
:10165000012084F8480000BF84F83E0001213F20AB
:10166000015540200155412001554220015543209C
:10167000015500BF00BF012084F8440045200155FA
:10168000462001554720015500BF012084F83D0048
:101690000020CCE770470000014691F83D0001288A
:1016A00001D001207047022081F83D000868C06821
:1016B00040F001000B68D860124B0868984207D0D0
:1016C0000868B0F1804F03D00F4B0868984210D1E2
:1016D000086880680D4B00EA0302062A0FD0B2F5B5
:1016E000803F0CD00868006840F001000B6818606B
:1016F00005E00868006840F001000B6818600020F1
:10170000D0E70000002C014000400140070001002C
:10171000704710B5044620680069C0F34000D8B196
:101720002068C068C0F34000B0B16FF002002168CB
:101730000861012020772068806900F0030018B15B
:101740002046FFF7E5FF05E0204600F0BEF8204602
:1017500000F0BCF80020207720680069C0F380000A
:10176000D8B12068C068C0F38000B0B16FF0040049
:1017700021680861022020772068806900F44070A9
:1017800018B12046FFF7C4FF05E0204600F09DF8A1
:10179000204600F09BF80020207720680069C0F305
:1017A000C000D8B12068C068C0F3C000B0B16FF00D
:1017B000080021680861042020772068C06900F0D3
:1017C000030018B12046FFF7A3FF05E0204600F014
:1017D0007CF8204600F07AF8002020772068006925
:1017E000C0F30010D8B12068C068C0F30010B0B1D9
:1017F0006FF0100021680861082020772068C06918
:1018000000F4407018B12046FFF782FF05E0204643
:1018100000F05BF8204600F059F80020207720689F
:10182000006900F0010058B12068C06800F00100B4
:1018300030B16FF0010021680861204600F048F8DF
:1018400020680069C0F3C01058B12068C068C0F3B8
:10185000C01030B16FF08000216808612046FFF7AA
:10186000E0FE20680069C0F3002058B12068C0681D
:10187000C0F3C01030B16FF4807021680861204659
:10188000FFF7CEFE20680069C0F3801058B12068D1
:10189000C068C0F3801030B16FF04000216808616B
:1018A000204600F021F820680069C0F3401058B1CC
:1018B0002068C068C0F3401030B16FF0200021688C
:1018C00008612046FFF7AEFE10BD7047704700006C
:1018D00010B5044603492068884201D1FEF7AAFEEC
:1018E00010BD0000002C01407047704770477047E2
:1018F0002DE9F04704462068C5692068066820681D
:10190000876840F60F0005EA0009B9F1000F0CD115
:1019100005F0200048B106F0200030B1606E10B133
:101920002046616E8847BDE8F087B9F1000F7DD091
:1019300007F0010018B9BD4830400028F7D005F085
:10194000010058B106F4807040B10120216808629E
:10195000D4F8800040F00100C4F8800005F00200D7
:1019600058B107F0010040B1022021680862D4F8A4
:10197000800040F00400C4F8800005F0040058B175
:1019800007F0010040B1042021680862D4F880000B
:1019900040F00200C4F8800005F0080070B106F0C5
:1019A000200010B907F0010040B10820216808624A
:1019B000D4F8800040F00800C4F8800005F400600E
:1019C00060B106F0806048B14FF4006021680862A1
:1019D000D4F8800040F02000C4F88000D4F88000E3
:1019E00000284BD005F0200038B106F0200020B1CF
:1019F000606E10B12046616E8847D4F880A02068E0
:101A0000806800F04000402802D00AF0280070B33F
:101A1000204600F0F2FD2068806800F04000402879
:101A200021D100BF00BF2168083100E027E051E864
:101A3000001F21F040002168083141E80002002A1F
:101A4000F1D100BF206F50B17948216F4863206FFA
:101A5000FEF7E0FC90B1206F416B88470EE0204616
:101A6000FFF745FF0AE02046FFF741FF06E0FFE7EA
:101A70002046FFF73CFF0020C4F8800053E7206EAB
:101A800001287DD105F01000002879D006F0100063
:101A90000028FAD01020216808622068806800F0D1
:101AA000400040285AD1206F006840681FFA80F833
:101AB000B8F1000F51D0B4F8580040454DDDA4F8FE
:101AC0005A80206F806920283ED000BF00BF216867
:101AD00051E8001F21F48070226842E800010029CB
:101AE000F5D100BF00BF00BF2168083151E8001FD9
:101AF00021F001002168083141E80002002AF3D1F9
:101B000000BF00BF00BF2168083151E8001F21F06D
:101B100040002168083141E80002002AF3D100BFEB
:101B20002020E0670020206600BF00BF216851E848
:101B3000001F21F01000226842E800010029F5D1C1
:101B400000BF206FFEF73CFCB4F85800B4F85A20F0
:101B5000801A81B22046FFF7C8FEE4E634F8580F39
:101B60006188401A1FFA80F86088583CB0B3B8F119
:101B7000000F33D000BF00BF216851E8001F00E014
:101B80002DE021F49070226842E800010029F3D191
:101B900000BF00BF00BF2168083151E8001F21F0DD
:101BA00001002168083141E80002002AF3D100BF9A
:101BB0002020E06700202066606600BF00BF21682B
:101BC00051E8001F21F01000226842E800010029BE
:101BD000F5D100BF41462046FFF787FEA3E605F496
:101BE000801050B107F4800038B14FF480102168A4
:101BF00008622046FFF77AFE95E605F0800040B1C6
:101C000006F0800028B1A06E10B12046A16E884772
:101C100089E605F0400030B106F0400018B12046DA
:101C200000F01DFD7FE600BF7DE6000020010004FE
:101C30008D26000810B504460CB9012010BDA0691E
:101C400000B100E000BFA06F28B9002084F8740044
:101C5000204600F029F82420A0672068006820F0C2
:101C6000010021680860204600F014FA012800D124
:101C7000E4E7606A10B1204600F056F92068406839
:101C800020F49040216848602068806820F02A0095
:101C9000216888602068006840F0010021680860C1
:101CA000204600F0BDF9C9E710B586B004461421FE
:101CB00001A8FEF741FB1B492068884230D100BFD4
:101CC0001948C06940F400301749C8610846C06926
:101CD00000F40030009000BF00BF00BF084640691C
:101CE00040F4003048610846406900F4003000903C
:101CF00000BF00BF0C200190022002900020039042
:101D000004900720059001A94FF09040FEF7AEFB2C
:101D1000002205212620FEF725FD2620FEF712FDD4
:101D200006B010BD0044004000100240704700BFE4
:101D3000FEE7000000BF024800F070FBFBE7000078
:101D40007001002010B50A4A00210A4800F0A2FDE7
:101D500009490860094A0021094800F09BFD09492A
:101D60000860094800F024FD0849086010BD000023
:101D700094440008351D000800000020B844000805
:101D80004D23000804000020DC4400080800002067
:101D900000B587B0142102A8FEF7CEFA00BF244890
:101DA000406940F40020224948610846406900F437
:101DB0000020019000BF00BF00BF0846406940F40A
:101DC000800048610846406900F48000019000BF2F
:101DD00000BF00BF0846406940F400304861084633
:101DE000406900F40030019000BF00BF00BF08460A
:101DF000406940F4802048610846406900F4802032
:101E0000019000BF00BF00224FF400510948FEF7C7
:101E100005FC4FF400500290012003900020049034
:101E2000059002A90348FEF721FB07B000BD0000A2
:101E3000001002400004004810B50D480D4908602C
:101E40004FF41640486000210A488160C16001617A
:101E50000C21416100218161C161016200200549BD
:101E600048620846FFF7E6FE08B1FEF7A6FA10BD85
:101E700000440040A000002000BFFEE700BFFEE7D6
:101E80000348006840F47000014908607047000092
:101E900088ED00E010B50248FFF73BFC10BD0000E4
:101EA0002401002010B502681B4B984202D0B0F10B
:101EB000804F03D122F070024B681A43164B9842B0
:101EC0000BD0B0F1804F08D0144B984205D0144B82
:101ED000984202D0134B984203D122F44072CB684F
:101EE0001A4322F080034C6943EA040202608B68C3
:101EF000C3620B688362084B984208D0074B984234
:101F000005D0074B984202D0064B984201D10B698D
:101F100003630123436110BD002C014000400140D8
:101F2000004401400048014090F8241001F00101F4
:101F300039B10168496821F40031826A11430268AD
:101F4000516090F8241001F00201022907D10168C4
:101F5000496821F48031C26A11430268516090F8E7
:101F6000241001F00401042907D10168496821F413
:101F70008021026B11430268516090F8241001F037
:101F80000801082907D10168496821F40041426B22
:101F900011430268516090F8241001F010011029DB
:101FA00007D10168896821F48051826B114302686E
:101FB000916090F8241001F02001202907D10168D8
:101FC000896821F40051C26B11430268916090F856
:101FD000241001F04001402913D10168496821F41F
:101FE0008011026C114302685160016CB1F5801FD1
:101FF00007D10168496821F4C001426C11430268AD
:10200000516090F8241001F08001802907D1016807
:10201000496821F40021826C1143026851607047C5
:1020200038B504460020C4F88000FEF7FDFA0546E6
:102030002068006800F0080008280CD16FF07E408E
:102040002B4600224FF400110090204600F0FAF8D1
:1020500008B1032038BD2068006800F0040004289F
:102060000CD16FF07E402B4600224FF4800100908F
:10207000204600F0E7F808B10320EBE72020A06736
:10208000E0670020206600BF84F8740000BF00BF36
:10209000E0E700002DE9F04704464FF0000A21690F
:1020A000A068084361690843E16940EA01082068C3
:1020B00000685E49084040EA08002168086020681E
:1020C000406820F44050E168084321684860D4F833
:1020D0001880206A40EA08082068806820F4306090
:1020E00040EA08002168886000BF514920688842A2
:1020F00016D15048006B00F0030030B1012808D021
:10210000022808D0032808D101E0002607E00226B3
:1021100005E0042603E0082601E0102600BF0CE0DD
:1021200045492068884201D1002606E043492068DD
:10213000884201D1002600E0102600BFE069B0F51A
:10214000004F3AD1092E17D2DFE806F005090D1627
:102150000F1616161300FEF7D5FC054610E0FEF725
:10216000E7FC05460CE0364D0AE0FEF7F7FC0546B5
:1021700006E04FF4004503E000254FF0010A00BFE0
:1021800000BF8DB36800616800EB5100B0FBF1F057
:1021900087B2102F0ED3B7F5803F0BD24FF6F070F9
:1021A00007EA0009C7F3420049EA00092068C0F8BD
:1021B0000C9034E04FF0010A31E0092E18D2DFE82C
:1021C00006F005090D170F1717171400FEF79AFCF4
:1021D000054611E0FEF7ACFC05460DE0184D0BE09E
:1021E000FEF7BCFC054607E019E04FF4004503E0AC
:1021F00000254FF0010A00BF00BF85B1606805EB04
:1022000050006168B0FBF1F087B2102F05D3B7F52D
:10221000803F02D22068C76001E04FF0010A002031
:102220006066A0665046BDE8F0870000F369FFEFE6
:1022300000380140001002400044004000480040C7
:1022400000127A002DE9F04104460D4617469846E3
:10225000069E67E0701C002864D0FEF7E5F9A0EB4D
:102260000800B04200D836BB00BF00BF216851E86B
:10227000001F21F4D070226842E800010029F5D146
:1022800000BF00BF00BF2168083151E8001F21F0E6
:1022900001002168083141E80002002AF3D100BFA3
:1022A0002020A067E06700BF002084F8740000BF12
:1022B0000320BDE8F0812068006800F0040080B3CE
:1022C0002068C069C0F3C02058B34FF40060216893
:1022D000086200BF00BF216851E8001F21F4D070E0
:1022E000226842E800010029F5D100BF00BF00BF0D
:1022F0002168083151E8001F21F0010021680831F0
:1023000041E80002002AF3D100BF2020A067E06767
:10231000C4F8800000BF002084F8740000BF0320D0
:10232000C7E7FFE72068C0692840A84201D1012023
:1023300000E00020B8428DD00020BAE710B5024876
:10234000FFF7D6FA10BD0000A000002000BF024831
:1023500000F0C4F9FBE700008001002000BFFEE7A9
:1023600000B58FB0282105A8FDF7E6FF14216846C7
:10237000FDF7E2FF022005900120099010200A904D
:1023800002200C9000210D914FF460110E9105A8D0
:10239000FEF734FC08B1FEF710F80F200090022081
:1023A0000190002002904FF4806003900020049080
:1023B00002216846FEF728FA08B1FDF7FEFF0FB0CC
:1023C00000BD000000204FF0E02108618861064850
:1023D00000684FF47A71B0FBF1F0401E4FF0E0213D
:1023E00048610720086170472400002010B50446AA
:1023F0002068026811688847D4E9010103689A6877
:10240000904710BD10B5044620680268516888479F
:10241000E168606803689A68904710BD10B504468B
:102420002046FFF7E3FF2046FFF7ECFF10BD0160F9
:10243000426070470E480068401C08B9012000E067
:10244000002050B900BF502080F31188BFF34F8F98
:10245000BFF36F8F00BF00BFFEE700BF502080F3C7
:102460001188BFF34F8FBFF36F8F00BF00BFFEE730
:102470009400002070B5054600F07EFFA86BE96B64
:10248000884201D1012400E0002400F09FFF204693
:1024900070BD70B5044600F06FFF94F9455010E030
:1024A000606A08B9012000E0002038B904F1240076
:1024B00001F0B0FE18B101F075F800E003E0681E0D
:1024C00045B2002DECDC00BFFF2084F8450000F091
:1024D0007DFF00F051FF94F9445010E0206908B9E5
:1024E000012000E0002048B904F1100001F092FE44
:1024F00008B101F057F8681E45B200E001E0002D78
:10250000ECDC00BFFF2084F8440000F05FFF70BDEA
:1025100070B5054600F030FFA86B08B9012400E053
:10252000002400F053FF204670BD2DE9F041044621
:102530000F4615464FF00008A66B206C40B9206886
:1025400060BB606801F014FE80460020606025E0FA
:102550007DB93946226CA068FDF7D5FE216CA068D4
:102560000844A060D4E90110884217D32068A06015
:1025700014E03946226CE068FDF7C5FE216CE06886
:10258000401AE0602168E068884203D2216C6068EC
:10259000401AE060022D01D106B1761E701CA063C6
:1025A0004046BDE8F08170B504460D46206C70B120
:1025B000216CE0680844E0606168E068884201D30B
:1025C0002068E0602846226CE168FDF79CFE70BD43
:1025D0002DE9F04106460D4617469846069C0DB972
:1025E000246000E02760E66325640121204601F0B5
:1025F00026FA84F84C80BDE8F08100BF00BF026875
:1026000052E8002F22F49071036843E80012002A78
:10261000F5D100BF00BF00BF0268083252E8002FAA
:1026200022F001010268083242E80013002BF3D1C6
:1026300000BF016E01290CD100BF00BF026852E843
:10264000002F22F01001036843E80012002AF5D1A0
:1026500000BF2021C167002101664166704710B5A7
:10266000044600BF00BF216851E8001F21F0400070
:10267000226842E800010029F5D100BF2020A067B0
:102680000020A0662046FFF751FB10BD70B505463F
:102690006C6A0020A4F85A00A4F852002046FFF704
:1026A00026F970BD10B5002804DB0A07130E054A91
:1026B000135406E00A07140E034A00F00F031B1F11
:1026C000D45410BD00E400E018ED00E002480068BA
:1026D000C0F30220704700000CED00E070B5044626
:1026E0006068026851688847227F206801680A2371
:1026F0008D6804F10C01A84770BD00002DE9F04180
:1027000004460D4616461F461122064904F10C00E8
:10271000FDF7F9FD0020A077A760256066602046E0
:10272000BDE8F08124450008EFF311807047EFF316
:1027300005807047EFF31080704702E008C8121F51
:1027400008C1002AFAD170477047002001E001C19A
:10275000121F002AFBD1704710B5084802680848CC
:1027600001680848FFF763FE074B04480268044805
:1027700001680648FFF7C2FF10BD000014000020EA
:1027800010000020700100200C00002080010020BB
:10279000FDF75CFFFFF7E4FDFFF7FAFAFFF74CFBEC
:1027A00000F036F8FFF7CEFA00F052F800BFFEE76F
:1027B00070B504460026FFF7BAFF00BBFFF7BAFF6B
:1027C000E8B912480068022802D1FFF7ADFFB0B99E
:1027D0004FF0FF3564B1A06820B1E068202801D334
:1027E000012506E0A06820B9E06810B9002500E0E6
:1027F0000025012D04D1A06800F0D1FF064603E0BA
:1028000015B900F0BDFF0646304670BD78000020C7
:1028100010B5FFF78CFF48B9FFF78CFF30B90B48B4
:102820000068022805D1FFF77FFF10B16FF00504A3
:1028300009E00648006820B9012004490860002426
:1028400001E04FF0FF34204610BD0000780000206A
:1028500010B5FFF76CFF48B9FFF76CFF30B90C48B3
:102860000068022805D1FFF75FFF10B16FF0050483
:102870000CE007480068012806D1022004490860DE
:1028800000F0D2FE002401E04FF0FF34204610BDDE
:10289000780000202DE9F04786B08046894614462E
:1028A00000200490FFF743FF00285DD1FFF742FFAF
:1028B000002859D12D480068022803D1FFF734FFC2
:1028C000002851D1B8F1000F4ED0802618250020E5
:1028D00005900DF1140A471E44B3206808B1D4F8DE
:1028E00000A0A06900B1A5692DB1382D03D82079C9
:1028F00000F0010018B1002006B0BDE8F087606963
:1029000008B160698608A06840B1E0685C2805D31A
:10291000206918B1606908B1012708E0A06830B9E2
:10292000E06820B9206910B9002700E00027012FD6
:102930000CD12169A0684B463246CDE90051029086
:102940005146404601F01EFB04900DE067B904A813
:10295000B2B24B465146CDE90050404601F0E0FA94
:10296000012801D0002004900498C5E778000020D9
:102970002DE9F04105460E461648076816480068DE
:10298000001D00F097FC681C38B936B11248016888
:10299000091D124800F0E4FC1AE07C190E4800689A
:1029A0004460BC4207D20C480168091D0C4800680D
:1029B00000F0BCFC0CE008480168091D09480068EB
:1029C00000F0B4FC08480068844201D20648046064
:1029D000BDE8F0813C000020280000209006002087
:1029E000300000202C0000205800002010B50446C4
:1029F00000F0C2FC1E480068401C1D4908601D48CC
:102A0000006840B91B4804600846006801280DD1E1
:102A100000F07AF90AE01848006838B915480068EB
:102A2000C06AE16A884201D812480460134800680D
:102A3000401C124908600846006860641049E06A5A
:102A40000968884202D90E49E06A0860E16A01EB30
:102A500081010C4A02EB8100211D00F081FC00F095
:102A6000B5FC0548006808B10248006810BD0000C8
:102A700038000020280000204400002054000020DE
:102A800040000020E001002008B500F075FC12486D
:102A90000068E8B9114800F039FC114800F036FC34
:102AA0000E48104908600E480F49086000200F4B7F
:102AB0000F4A102100900A2000F052FF06490860DA
:102AC0000846006820B10BA10348006800F022FD11
:102AD00000F07CFC08BD00006C000020A406002073
:102AE000B80600206400002068000020CC0600200A
:102AF0001C070020546D72510000000010B516E054
:102B000000F03AFC0C48C068C468201D00F0D2FBFD
:102B10000A480068401E0949086009480068401ECC
:102B20000749086000F052FC204600F00BF804480A
:102B300000680028E4D110BD7C0600203800002089
:102B40003400002010B5044694F8590030B9206BC9
:102B500000F05AFC204600F057FC1AE094F85900A7
:102B6000012803D1204600F04FFC12E094F85900F0
:102B7000022801D1012000E0002050B900BF502000
:102B800080F31188BFF34F8FBFF36F8F00BF00BF7B
:102B9000FEE710BD0146084A126812680AB9012210
:102BA00000E000220A600A6822B9034A1268D2686B
:102BB000106800E0002070476400002030B54FF43A
:102BC0004063174800F007042CB1C01D20F0070037
:102BD000134C041B1B1B0246124C22600024114D97
:102BE0006C60D018083820F007000F4C20600024DB
:102BF0000D4D2D686C600C4D2D682C601146441AEB
:102C00004C60094C24680C60084D4C682C60084DE1
:102C10004C682C604FF00044064D2C6030BD000025
:102C2000740E00207C000020840000208C00002016
:102C3000880000209000002000BFFFF75FFF4FF0EA
:102C4000805003490860BFF34F8FBFF36F8FF4E7E5
:102C500004ED00E02DE9F05F82460F4690469B466A
:102C60000A9E0C9C4FEA8801A522206BFDF75DFBB4
:102C7000A8F10100216B01EB800929F0070909F097
:102C8000070008B9012000E0002050B900BF502023
:102C900080F31188BFF34F8FBFF36F8F00BF00BF6A
:102CA000FEE7002507E0795D04F134004155785DC9
:102CB00000B902E06D1C102DF5D300BF00214320A8
:102CC0000155382E00D33726E662E66400202065E1
:102CD000201D00F028FB04F1180000F024FB246103
:102CE000C6F13800A06164620020606584F8580075
:102CF0005A465146484600F0C7FA20600B9808B182
:102D00000B980460BDE8F09F10B5002407E004EBC9
:102D100084010F4A02EB810000F0F8FA641C382CA1
:102D2000F5D30C4800F0F2FA0B4800F0EFFA0B482C
:102D300000F0ECFA0A4800F0E9FA0A4800F0E6FA76
:102D400004480949086004480849086010BD0000AB
:102D5000E001002040060020540600206806002004
:102D60007C060020900600202C000020300000206F
:102D700010B50146164800E0006803688B42FBD39B
:102D80000246436813448B4204D143684C68234491
:102D9000436001460A464B6813440468A34211D1BC
:102DA0000C4C03682468A34208D04B68046864682C
:102DB00023444B6003681B680B6005E0054B1B68F0
:102DC0000B6001E003680B60884200D0016010BD19
:102DD0007C000020840000202DE9F04104460D46CF
:102DE00016461F464FF0000865602461B5420CD8B6
:102DF000F01BA169884202D34FF0010811E0211DA8
:102E00000948006800F092FA0BE0BE4204D2BD42CD
:102E100002D34FF0010804E0211D0448006800F0CF
:102E200085FA4046BDE8F08168000020640000207B
:102E3000F8B505460F4616480068C068C468201DEE
:102E400000F038FAE06901281DD1A06941192B462C
:102E50003A462046FFF7C0FFA8B1002003462A46A5
:102E600001460090204601F0D3FA064656B900BF4D
:102E7000502080F31188BFF34F8FBFF36F8F00BFD7
:102E800000BFFEE700BF2046616A8847F8BD00002A
:102E900064000020F0B587B082E00398002811DAC2
:102EA00004AE56B900BF502080F31188BFF34F8F96
:102EB000BFF36F8F00BF00BFFEE7D6E90020B16807
:102EC000904700BF039800286ADB059C606908B939
:102ED000012000E0002010B9201D00F0EBF902A84D
:102EE00000F0C0F8054603980A2857D2DFE800F042
:102EF00009050731334F0608323400BF00BF00BF59
:102F000000BF0498A269811803462A462046FFF7AD
:102F100063FFE8B12046616A8847E069012817D15C
:102F2000002000900498A169421800231946204609
:102F300001F06EFA074657B900BF502080F31188A0
:102F4000BFF34F8FBFF36F8F00BF00BFFEE700BF1F
:102F500025E000BF23E000BF0498A061A06908B18C
:102F6000012000E0002050B900BF502080F31188FC
:102F7000BFF34F8FBFF36F8F00BF00BFFEE7A069A5
:102F800041192B462A462046FFF726FF07E094F812
:102F90002C0010B9204600F037FA00E000BF00BF57
:102FA000002203A90448006800F0C8FE00287FF44E
:102FB00074AF07B0F0BD00006C000020F8B5054606
:102FC0000C4600F08DFB684600F04CF80646009871
:102FD00020BB44B9B54206D801F068F9314628460D
:102FE000FFF726FF1CE03CB10E480068006808B9F6
:102FF000012000E000200446A91B22460A48006880
:1030000000F09EFA01F052F950B94FF08050074994
:103010000860BFF34F8FBFF36F8F01E001F046F9F7
:10302000F8BD0000680000206C00002004ED00E006
:103030000A490968096809B9012100E0002121B1A4
:103040004FF0FF31064A116006E004490968C9687B
:10305000C868034A41681160704700002C000020D6
:103060005800002070B5044600F0F8FF05460748F8
:103070000068854204D200F00BF80120206001E0D6
:103080000020206001480560284670BD74000020C3
:103090002DE9F84332E024480068C06805682248FA
:1030A0000068C068C468201D00F004F92046616A09
:1030B0008847E069012821D1A0694619AE4207D9A5
:1030C00066602461211D1848006800F02FF915E0A2
:1030D000002003462A4601460090204601F098F958
:1030E000074657B900BF502080F31188BFF34F8FB8
:1030F000BFF36F8F00BF00BFFEE700BF0A48006844
:10310000006808B9012000E000200028C3D006486C
:10311000D0F8008005480068034908600348C0F8FB
:103120000080BDE8F88300006400002068000020F3
:1031300008B500BF6846FFF72DFD044620460099FC
:10314000FFF73CFFFFF7A6FEF4E700002DE9F04192
:1031500004464FF0000800F0C3FA4648006808B97A
:10316000FFF72CFD44480068204000286BD1D4B103
:10317000083404F00700B0B104F00700C0F1080003
:10318000044404F0070008B9012000E0002050B911
:1031900000BF502080F31188BFF34F8FBFF36F8FB4
:1031A00000BF00BFFEE7002C4DD0344800688442C9
:1031B00049D8334E3046056801E02E462D686868D0
:1031C000A04202D228680028F7D12A480068854228
:1031D00039D0306800F10808286830606868001B42
:1031E000102819D92F1907F0070008B9012000E0AD
:1031F000002050B900BF502080F31188BFF34F8FDB
:10320000BFF36F8F00BF00BFFEE76868001B7860E8
:103210006C603846FFF7ACFD184968680968081A01
:10322000164908600846006816490968884203D2B2
:1032300012480068134908600F4968680968084324
:1032400068600020286001F031F808F0070008B934
:10325000012000E0002050B900BF502080F3118809
:10326000BFF34F8FBFF36F8F00BF00BFFEE7404635
:10327000BDE8F0818400002090000020880000203C
:103280007C0000208C000020001F4FF08073036042
:10329000001F21F001030360001F054B0360143879
:1032A0000260001F6FF002030360203870470000C7
:1032B0003524000801460A69D1E901309860D1E956
:1032C000010358605068884201D18868506000202E
:1032D00008611068401E106010687047034B03605F
:1032E000034B0B608023136070470000BC07002075
:1032F00018080020034B0360034B0B604FF48073EE
:1033000013607047180A0020740A002000F10801B9
:1033100041604FF0FF31816000F10801C16001613F
:1033200000210160704700210161704710B502461D
:103330000B685C1C0CB9106907E002F1080000E0A2
:103340004068446824689C42FAD944684C604C68E0
:10335000A160886041600A611468641C146010BD3B
:1033600042684A6093688B60936859609160086115
:1033700003685B1C0360704700BF502080F3118816
:10338000BFF34F8FBFF36F8F00BF0E480068401C24
:103390000C49086008460068012812D10A480068F4
:1033A000C0B208B9012000E0002050B900BF502091
:1033B00080F31188BFF34F8FBFF36F8F00BF00BF43
:1033C000FEE770479400002004ED00E00D4800681F
:1033D00050B900BF502080F31188BFF34F8FBFF367
:1033E0006F8F00BF00BFFEE706480068401E05491A
:1033F00008600846006820B9002080F3118800BFEB
:1034000000BF70479400002070B506463546002E78
:103410003FD0083D2C461F4960680968084008B144
:10342000012000E0002050B900BF502080F3118837
:10343000BFF34F8FBFF36F8F00BF00BFFEE7206861
:1034400008B9012000E0002050B900BF502080F3EF
:103450001188BFF34F8FBFF36F8F00BF00BFFEE730
:103460000C4960680968084098B1206888B9094922
:10347000606809688843606000F032F90649606856
:1034800009680844044908602046FFF771FC00F011
:103490000DFF70BD900000208800002070B5FCF783
:1034A000DBFE0446102C16D304F1E02090F8F05314
:1034B00015480078854201DB012000E0002050B96A
:1034C00000BF502080F31188BFF34F8FBFF36F8F81
:1034D00000BF00BFFEE70D48006800F4E0600C4943
:1034E0000968884201D8012000E0002050B900BFDF
:1034F000502080F31188BFF34F8FBFF36F8F00BF51
:1035000000BFFEE770BD0000980000200CED00E059
:103510009C000020024600200BE0084B53F830309E
:1035200033B9064B43F8301003EBC0035A6002E096
:10353000401C0828F1D300BF70470000A001002004
:103540002DE9F04105460E4617462C46FFF714FFBD
:1035500094F94400401C10B9002084F8440094F908
:103560004500401C10B9002084F84500FFF72EFFED
:10357000A06B28B93A46314604F1240000F034F833
:103580002046FEF786FFBDE8F08100000349096888
:103590000160034909684160704700005000002045
:1035A0003C00002001200149086070474C000020C9
:1035B00070B504460D4654B900BF502080F3118801
:1035C000BFF34F8FBFF36F8F00BF00BFFEE705480B
:1035D000016818312046FFF7A9FE01212846FFF7B0
:1035E000C7F970BD2800002070B505460E46144688
:1035F00055B900BF502080F31188BFF34F8FBFF340
:103600006F8F00BF00BFFEE70648016818312846EB
:10361000FFF7A6FE0CB14FF0FF3621463046FFF70C
:10362000A7F970BD2800002010B586B000200590D5
:10363000049003AA04A905A8FFF750FE0022DDE9C3
:1036400004101346CDE9002102901EA11F48039AE1
:1036500000F098FC1E4908600846006808B1012483
:1036600000E00024012C02D100F096FE0446012C5B
:1036700015D100BF502080F31188BFF34F8FBFF3E7
:103680006F8F00BF4FF0FF301249086001201249D0
:10369000086000201149086000F0AEF810E0601CDE
:1036A00008B1012000E0002050B900BF502080F395
:1036B0001188BFF34F8FBFF36F8F00BF00BFFEE7CE
:1036C00006B010BD49444C4500000000392C0008EC
:1036D0005C00002058000020440000203C00002036
:1036E00002480068401C01490860704760000020E3
:1036F0001E48006818B101201D49086034E0002010
:103700001B4908601B4801680CE051B900BF5020FC
:1037100080F31188BFF34F8FBFF36F8F00BF00BFDF
:10372000FEE7491E01EB8100134A52F8200008B958
:10373000012000E000200028E7D101EB81020E4BC0
:1037400003EB820042685268426000F1080243685D
:10375000934202D14268526842604268D268074B85
:103760001A600448016000BF70470000600000203C
:103770004C00002040000020E00100202800002034
:1037800010B52020FFF7E2FC044634B10020206091
:10379000201DFFF7BBFD00202077204610BD38B567
:1037A000054655B900BF502080F31188BFF34F8FF5
:1037B000BFF36F8F00BF00BFFEE72020009000988E
:1037C000202801D1012000E0002050B900BF502086
:1037D00080F31188BFF34F8FBFF36F8F00BF00BF1F
:1037E000FEE72C4634B100202060201DFFF78EFD3F
:1037F00001202077204638BD1CB552480068524948
:10380000884201D0012000E0002050B900BF5020C4
:1038100080F31188BFF34F8FBFF36F8F00BF00BFDE
:10382000FEE7484800684849491E884201D0012007
:1038300000E0002050B900BF502080F31188BFF392
:103840004F8FBFF36F8F00BF00BFFEE73F490846B1
:1038500000780190FF200A4610700846007800901A
:103860009DF8000000F0F0009DF80020904201D18A
:10387000012000E0002050B900BF502080F31188E3
:10388000BFF34F8FBFF36F8F00BF00BFFEE79DF800
:10389000000000F050002E4A107007202D4A1060E2
:1038A00009E02C480068401E2A4A10609DF800007C
:1038B0004006000E00909DF8000000F08000802877
:1038C000EFD024480068C0F10700042801D101208E
:1038D00000E0002050B900BF502080F31188BFF3F2
:1038E0004F8FBFF36F8F00BF00BFFEE7194800681E
:1038F0000002184A10601046008800F4E060106072
:10390000124A019810700F482030006840F470008F
:103910000C49203108600846006840F0704008609B
:10392000FEF750FD00200C490860FCF75DFC0B48D9
:10393000006840F0404009490860FCF741FC002065
:103940001CBD000000ED00E071C20F4100E400E08A
:10395000980000209C0000209400002034EF00E03C
:103960002DE9F84380460E4617461D46DDF82090A7
:10397000B8F1000F01D0012000E0002050B900BFD5
:10398000502080F31188BFF34F8FBFF36F8F00BFBC
:1039900000BFFEE70DB1012000E0002050B900BFDC
:1039A000502080F31188BFF34F8FBFF36F8F00BF9C
:1039B00000BFFEE707B10EB1012000E0002050B9C2
:1039C00000BF502080F31188BFF34F8FBFF36F8F7C
:1039D00000BF00BFFEE707B90EB9012000E00020DC
:1039E00050B900BF502080F31188BFF34F8FBFF351
:1039F0006F8F00BF00BFFEE7502000900098502856
:103A000001D1012000E0002050B900BF502080F318
:103A10001188BFF34F8FBFF36F8F00BF00BFFEE76A
:103A20002C464CB1012084F846004B463A463146BC
:103A300040460094FEF7CCFD2046BDE8F88370B503
:103A400005460E462C4654B900BF502080F311881D
:103A5000BFF34F8FBFF36F8F00BF00BFFEE7FFF7CD
:103A60008BFCD4E90F12206801FB0200606000208B
:103A7000A0632068A060E06B401E226C216800FB00
:103A80000210E060FF2084F8440084F8450056B935
:103A9000206908B9012000E0002060B904F110009D
:103AA00000F0B8FB07E004F11000FFF72FFC04F171
:103AB0002400FFF72BFCFFF789FC012070BD0000FC
:103AC0002DE9FF4383B006460F461D464FF0000820
:103AD000344654B900BF502080F31188BFF34F8F94
:103AE000BFF36F8F00BF00BFFEE70FB9206C08B9AE
:103AF000012000E0002050B900BF502080F3118861
:103B0000BFF34F8FBFF36F8F00BF00BFFEE7022DE3
:103B100002D1E06B012801D1012000E0002050B962
:103B200000BF502080F31188BFF34F8FBFF36F8F1A
:103B300000BF00BFFEE700F081FA08B9059808B998
:103B4000012000E0002050B900BF502080F3118810
:103B5000BFF34F8FBFF36F8F00BF00BFFEE700BF03
:103B6000FFF70AFCA06BE16B884201D3022D17D14D
:103B70002A4639462046FEF7D8FC8146606A08B9D5
:103B8000012000E0002020B904F1240000F042FBF5
:103B900000E000BFFFF71AFC012007B0BDE8F0838A
:103BA000059818B9FFF712FC0020F6E7B8F1000FEE
:103BB00004D101A8FFF7EAFC4FF00108FFF706FC6B
:103BC000FFF78EFDFFF7D8FB94F94400401C10B9B5
:103BD000002084F8440094F94500401C10B90020EE
:103BE00084F84500FFF7F2FB05A901A800F052F99F
:103BF000F0B92046FEF73EFCA0B104F11000059993
:103C0000FFF7D6FC2046FEF744FC00F04FFB0028EF
:103C1000A6D14FF080500A490860BFF34F8FBFF321
:103C20006F8F9DE72046FEF734FC00F03FFB97E7DF
:103C30002046FEF72EFC00F039FB0020ADE7000027
:103C400004ED00E02DE9F05F07468A4690461E46E7
:103C50003C4654B900BF502080F31188BFF34F8F0A
:103C6000BFF36F8F00BF00BFFEE7BAF1000F01D1B5
:103C7000206C08B9012000E0002050B900BF50209E
:103C800080F31188BFF34F8FBFF36F8F00BF00BF6A
:103C9000FEE7022E02D1E06B012801D1012000E0F5
:103CA000002050B900BF502080F31188BFF34F8F20
:103CB000BFF36F8F00BF00BFFEE7FFF7EFFB00BF52
:103CC0005021EFF3118081F31188BFF34F8FBFF3C1
:103CD0006F8F00BF0546A06BE16B884201D3022EB7
:103CE00023D194F945B0324651462046FEF71DFCDB
:103CF0000BF1010088B9606A08B9012000E00020DA
:103D000080B904F1240000F085FA58B1B8F1000F31
:103D100008D00120C8F8000004E00BF1010040B217
:103D200084F845004FF0010901E04FF0000900BFA1
:103D300085F3118800BF4846BDE8F09F2DE9F741A3
:103D400083B005460E464FF000082C4654B900BF1C
:103D5000502080F31188BFF34F8FBFF36F8F00BFE8
:103D600000BFFEE70EB9206C08B9012000E000207A
:103D700050B900BF502080F31188BFF34F8FBFF3BD
:103D80006F8F00BF00BFFEE700F058F908B9059833
:103D900008B9012000E0002050B900BF502080F396
:103DA0001188BFF34F8FBFF36F8F00BF00BFFEE7D7
:103DB00000BFFFF7E1FAA76BAFB131462046FEF72F
:103DC000F2FB781EA063206908B9012000E0002002
:103DD00018B904F1100000F01DFAFFF7F7FA0120FE
:103DE00006B0BDE8F081059818B9FFF7EFFA00209A
:103DF000F6E7B8F1000F04D101A8FFF7C7FB4FF0B9
:103E00000108FFF7E3FAFFF76BFCFFF7B5FA94F947
:103E10004400401C10B9002084F8440094F9450087
:103E2000401C10B9002084F84500FFF7CFFA05A91F
:103E300001A800F02FF8F0B92046FEF769FBA0B109
:103E400004F124000599FFF7B3FB2046FEF721FBA0
:103E500000F02CFA0028ACD14FF080500C490860DB
:103E6000BFF34F8FBFF36F8FA3E72046FEF711FB21
:103E700000F01CFA9DE72046FEF70BFB00F016FA57
:103E80002046FEF745FB002893D00020A8E700005D
:103E900004ED00E070B505460C4655B900BF502052
:103EA00080F31188BFF34F8FBFF36F8F00BF00BF48
:103EB000FEE754B900BF502080F31188BFF34F8F45
:103EC000BFF36F8F00BF00BFFEE7FFF755FA124840
:103ED00002686868131A2068401C08B9002617E0B9
:103EE0000E4928680968884204D06868904201D861
:103EF00001260DE02068984207D92068C01A20608A
:103F00002846FFF743FB002602E000202060012640
:103F1000FFF75CFA304670BD3C00002050000020E6
:103F20002DE9FF4F85B0804689461746DDE912AB83
:103F3000B800FFF70BF9064656B15C20FFF706F90B
:103F400004460CB1266304E03046FFF75DFA00E05A
:103F500000248CB1002084F85900CDE900ABCDE9F4
:103F600002403A4649464046089BFEF773FE20460B
:103F7000FEF73CFD012501E04FF0FF35284609B072
:103F8000BDE8F08F2DE9F04F85B007468846914691
:103F90009A46DDE90EB6109C0EB1012000E000202B
:103FA00050B900BF502080F31188BFF34F8FBFF38B
:103FB0006F8F00BF00BFFEE70CB1012000E00020C2
:103FC00050B900BF502080F31188BFF34F8FBFF36B
:103FD0006F8F00BF00BFFEE75C20039003985C2852
:103FE00001D1012000E0002050B900BF502080F333
:103FF0001188BFF34F8FBFF36F8F00BF00BFFEE785
:10400000B4B1AEB125462C462E63022085F8590086
:10401000002004A953464A46CDE900B1CDE902503B
:1040200041463846FEF716FE2846FEF7DFFC01E063
:1040300000200490049805B0BDE8F08F0549096898
:1040400009B9012005E00449096809B9022000E026
:1040500000207047440000206000002001490868EB
:10406000704700003C0000202DE9F0414FF00008AF
:1040700036480068002861D135480068451C34483E
:10408000056015BB33480068006808B9012000E0EE
:10409000002050B900BF502080F31188BFF34F8F2C
:1040A000BFF36F8F00BF00BFFEE72A4807682A48AA
:1040B0000068284908602848076028480068401CB4
:1040C00026490860FEF7B4FF00BF25480068854216
:1040D00033D300BF1F480068006808B9012000E022
:1040E000002020B14FF0FF301D49086024E019483E
:1040F0000068C068C4686668B54202D218480660A5
:104100001AE0201DFFF7D6F8A06A18B104F11800D4
:10411000FFF7D0F81349E06A0968884202D91149CB
:10412000E06A0860E16A01EB81010F4A02EB81005D
:10413000211DFFF715F9CDE700BF04E00B4800682B
:10414000401C0A4908604046BDE8F081600000203C
:104150003C0000202C0000203000002050000020F7
:104160005800002040000020E0010020480000200E
:1041700070B505462C460026002D43D02248006825
:10418000844201D1012000E0002050B900BF50203E
:1041900080F31188BFF34F8FBFF36F8F00BF00BF55
:1041A000FEE7206D50B900BF502080F31188BFF3A7
:1041B0004F8FBFF36F8F00BF00BFFEE7206D401E23
:1041C0002065E16CE06A88421CD0206DD0B9201DCA
:1041D000FFF770F8E06CE062E06AC0F13800A061BF
:1041E0000A49E06A0968884202D90849E06A086019
:1041F000E16A01EB8101064A02EB8100211DFFF714
:10420000AFF80126304670BD280000204000002095
:10421000E001002070B50646F068C46854B900BFDC
:10422000502080F31188BFF34F8FBFF36F8F00BF13
:1042300000BFFEE704F11800FFF73CF815480068DE
:10424000A0B9201DFFF736F81349E06A09688842D3
:1042500002D91149E06A0860E16A01EB81010F4A65
:1042600002EB8100211DFFF77BF804E004F1180147
:104270000B48FFF775F80B49E06A0968C96A88427C
:1042800004D9012501200849086000E000252846DE
:1042900070BD00006000002040000020E001002010
:1042A00068060020280000204C00002070B5002483
:1042B00000263148006850B900BF502080F31188B3
:1042C000BFF34F8FBFF36F8F00BF00BFFEE7FFF755
:1042D00053F829480068401E2749086008460068CE
:1042E000002845D125480068002841D023E0244813
:1042F000C068C46804F11800FEF7DCFF201DFEF75B
:10430000D9FF2049E06A0968884202D91D49E06A5C
:104310000860E16A01EB81011B4A02EB8100211D6B
:10432000FFF71EF81949E06A0968C96A884202D392
:104330000120174908601248006808B9012000E010
:1043400000200028D3D00CB1FEF772FE114805689A
:1043500065B100BFFFF788FE10B101200C4908606D
:104360006D1E002DF6D100200A490860084800683B
:10437000FFF72CF8304670BD6000002038000020A8
:104380006806002040000020E001002028000020F6
:104390004C0000204800002010B586B00024FEF735
:1043A00073FB16480068D0B100200590049003AA62
:1043B00004A905A8FEF79EFF0222DDE904100023F0
:1043C000CDE9002102900EA10F48039AFFF7DAFD14
:1043D0000E4908600846006800B1012400BF54B9C6
:1043E00000BF502080F31188BFF34F8FBFF36F8F52
:1043F00000BF00BFFEE7204606B010BD6C000020E5
:10440000546D722053766300313100087000002033
:104410002DE9FF4704460D4616461F46DDF830805D
:104420004FF0000954B900BF502080F31188BFF34A
:104430004F8FBFF36F8F00BF00BFFEE714480068C7
:1044400010B3009501960294062D15DAFFF7F6FDDC
:10445000022808D10023424669460D480068FFF74C
:104460002FFB814610E000231A4669460848006881
:10447000FFF726FB814607E000233A4669460448D9
:104480000068FFF7DFFB8146484604B0BDE8F087CF
:104490006C0000203845000800000000000000000B
:1044A00000000000000000000002000018000000F2
:1044B000000000000000000050450008000000005F
:1044C00000000000000000000000000000020000EA
:1044D0000800000000000000000000004045000847
:1044E00000000000000000000000000002030405BE
:1044F000060708090A0B0C0D0E0F10100102030429
:1045000005060708090A0B0C0D0E0F10000000002D
:104510000000000001020304060708090000000073
:104520000102030400000000000000000000000081
:1045300000000000000000007461736B4C656400B3
:104540006576656E7455617274436F6D000000008E
:104550007461736B556172744563686F000000008D
:104560008445000800000020A00000003A27000851
:1045700024460008A0000020D82B00004A2700088D
:10458000D9E1FFFF00000000000000000000000073
:10459000000000000000000000000000000000001B
:1045A000100000000100000000127A00000000006E
:1045B00000000000000000000000000000000000FB
:1045C00000000000000000000000000000000000EB
:1045D00000000000000000000000000000000000DB
:1045E00000000000000000000000000000000000CB
:1045F00000000000000000000000000000000000BB
:1046000000000000000000000000000000000000AA
:104610000000000000000000AAAAAAAA00000000F2
:044620000000000096
:040000050800018965
:00000001FF
