:020000040800F2
:10000000381E00205D0200086F160008AB150008BE
:100010006D1600088D030008311B00080000000069
:100020000000000000000000000000009D0100082A
:100030008F03000800000000F90100087116000895
:1000400077020008770200087702000877020008AC
:10005000770200087702000877020008770200089C
:10006000770200087702000877020008770200088C
:10007000770200087702000877020008770200087C
:10008000770200087702000877020008770200086C
:10009000770200087702000877020008770200085C
:1000A00077020008091700087702000877020008A5
:1000B000770200080000000000000000770200083E
:1000C00077020008770200087702000800000000AD
:1000D00077020008770200081D1B0008770200085D
:1000E000770200087702000877020008000000008D
:1000F0000000000000000000000000000000000000
:10010000000000000000000000000000770200086E
:10011000000000000000000077020008000000005E
:1001200000000000000000000000000000000000CF
:1001300000000000000000000000000000000000BF
:1001400077020008770200080000000000000000AD
:10015000000000000000000000000000000000009F
:10016000770200087702000877020008770200088B
:1001700077020008000000000000000000000000FE
:100180000000000077020008DFF80CD000F0ECF867
:1001900000480047711B0008381E00202C4B1968CE
:1001A0000868B0E8F04F80F30988BFF36F8F4FF015
:1001B000000080F3118870470000000008480068C4
:1001C000006880F308884FF0000080F3148862B65E
:1001D00061B6BFF34F8FBFF36F8F00DF00BF00BF6B
:1001E00008ED00E0DFF80C00016841F470010160E7
:1001F000704700BF88ED00E0EFF30980BFF36F8F19
:10020000134B1A681EF0100F08BF20ED108A20E96A
:10021000F04F106009B44FF0500080F31188BFF325
:100220004F8FBFF36F8F02F089FB4FF0000080F318
:10023000118809BC19680868B0E8F04F1EF0100F6B
:1002400008BFB0EC108A80F30988BFF36F8F704746
:100250001C000020EFF3058070470000064880472F
:1002600006480047FEE7FEE7FEE7FEE7FEE7FEE79B
:10027000FEE7FEE7FEE7FEE7F91600088901000841
:100280002DE9F05F0546002092469B4688460646CB
:10029000814640241BE0284641464746224600F05E
:1002A00020F853465A46C01A914110D311461846B9
:1002B000224600F04AF82D1A67EB01084F46224605
:1002C0000120002100F041F817EB00094E41201EEB
:1002D000A4F10104DFDC484631462A464346BDE826
:1002E000F09F202A04DB203A21FA02F00021704717
:1002F00021FA02F3D040C2F120029140084319468E
:10030000704740EA01039B0703D009E008C9121FA8
:1003100008C0042AFAD203E011F8013B00F8013BBF
:10032000521EF9D27047D2B201E000F8012B491EEB
:10033000FBD270470022F6E710B513460A46044682
:100340001946FFF7F0FF204610BD202A04DB203AB3
:1003500000FA02F1002070479140C2F1200320FA18
:1003600003F3194390407047064C074D06E0E068E0
:1003700040F0010394E8070098471034AC42F6D3EC
:10038000FFF706FFE033000800340008FEE770477F
:1003900010B590F821100022022905D004218163B4
:1003A00080F82020012010BD01680B6823F00E03A7
:1003B0000B6001680B6823F001030B6090F840307C
:1003C000C46B012101FA03F3636080F8211080F807
:1003D0002020002010BD10B590F821100024022923
:1003E00003D004218163012418E001680A6822F027
:1003F0000E020A6001680A6822F001020A6090F8A1
:100400004020C36B012101FA02F25A6080F82110EA
:10041000002180F82010416B01B18847204610BDB3
:100420002DE9F04FDFF80092002309F1040A0126BC
:1004300003250AF1040B85B00F270BF1040EEAE047
:1004400006FA03F422407CD091F804C00CF0030CAF
:10045000BCF1010F02D0BCF1020F26D1D0F808C0C8
:10046000CDF800C04FEA430C05FA0CF8CDF810C0E7
:10047000DDF800C02CEA080CCDF800C0D1F80C80E3
:10048000DDF810C008FA0CF8DDF800C048EA0C08E6
:10049000C0F80880D0F804C02CEA040C0C79C4F32E
:1004A00000149C4044EA0C0444600C79E443A40723
:1004B0000DD0D0F80CC04FEA430805FA08F42CEA36
:1004C000040C8C6804FA08F444EA0C04C4600C7947
:1004D00004F00304022C19D1DC0800EB840402941C
:1004E000246A4FEA437C4FEADC6CCDF810C007FA6F
:1004F0000CFC24EA0C04D1F81080DDF810C008FAD6
:100500000CF848EA0408029CC4F8208004684FEA0A
:10051000430805FA08FC24EA0C0491F804C00CF026
:10052000030C0CFA08FC4CEA040CC0F800C04C6840
:1005300014F4403F6ED03D4CD4F818C04CF0010C80
:1005400000E067E0C4F818C0A46923F0030C04F0CD
:1005500001040094364C64440294A4684FEA837CFE
:100560004FEA1C7807FA08FC24EA0C04B0F1904F1B
:1005700006D0DFF8C0C0604505D14FF0010C12E095
:100580004FF0000C0FE0DFF8B0C0604502D14FF033
:10059000020C08E0DFF8A4C0604502D14FF0030C64
:1005A00001E04FF0050C0CFA08FC4CEA040C029C2C
:1005B000C4F808C0D9F80040CC46D1F80480944370
:1005C0005FEAC83800D51443CCF80040DAF80040A0
:1005D000D446D1F8048094435FEA883800D51443A8
:1005E000CCF80040DBF80040DC46D1F804809443AE
:1005F0005FEAC82800D51443CCF80040DEF800407C
:10060000F446D1F8048094435FEA882800D5144367
:10061000CCF800405B1C0A6832FA03F47FF410AF98
:1006200005B0BDE8F08F000000040140001002405A
:10063000000001400004004800080048000C004889
:100640000AB181617047816270470000014880688B
:10065000704700000C0000200248816802781144B5
:10066000816070470C000020074810B5016841F018
:1006700010010160032000F08BF8002000F006F864
:1006800000F03EF8002010BD0020024000B50146F9
:1006900087B00022192000F05BF8192000F04AF81A
:1006A0001348816941F400618161806905A900F402
:1006B00000600690684600F021F900F057F90D49F6
:1006C0000D4AB0FBF1F10D48491E0260416040F255
:1006D000E7320021C0E90321816000F07CFC10B109
:1006E000012007B000BD054800F0A8FCF9E70000B4
:1006F0000010024040420F00002C01401801002071
:100700000B4882B0816941F001018161816901F08A
:1007100001010091C16941F08051C161C0690022AD
:1007200000F0805000900F21901E02B000F010B831
:1007300000100240002809DB00F01F020121914057
:100740004009800000F1E020C0F80011704700006F
:10075000F0B40E4B1B680C46C3F30223C3F107052C
:10076000042D00D90425191D072901D2002300E01A
:10077000DB1E012606FA05F1491E214099409E40E4
:10078000761E16403143F0BC01F0D3B90CED00E009
:10079000064900F0070208684FF6FF03184040EAD8
:1007A0000220034A10430860704700000CED00E08F
:1007B0000000FA052DE9F0470F46050069D04A4EC2
:1007C000306800F00700B84209D2306820F0070016
:1007D00038433060306800F00700B84259D12878BB
:1007E000424C800705D56068A96820F0F0000843F6
:1007F00060602878C0073DD06968012001290DD0CC
:10080000022923D05FF0020393FAA3F2B2FA82F234
:1008100042F02002520904D0226803E04FF4003372
:10082000F2E7626A93FAA3F3B3FA83F303F01F03C8
:10083000984002422DD0606820F0030008436060B9
:10084000FFF704FF804641F288390CE04FF0007357
:10085000DAE700BFFFF7FAFEA0EB0801494502D92D
:100860000320BDE8F0876068696800F00C00B0EB19
:10087000810FEFD1306800F00700B8420BD9306823
:1008800020F0070038433060306800F00700B842BD
:1008900001D00120E5E72878400705D56068E968C0
:1008A00020F4E060084360602878000706D560689F
:1008B000296920F4605040EAC100606000F06EF8E1
:1008C0006168F02292FAA2F201F0F001B2FA82F22B
:1008D000D140074A515CC840064908600648006894
:1008E000FFF7D4FE0020BCE70020024000100240C9
:1008F000A033000818000020100000200F22026022
:100900000C4A536803F003034360536803F0F00399
:100910008360536803F4E063C36052684FF4E0639C
:1009200003EAD20202610448006800F00700086090
:1009300070470000001002400020024008480949AA
:10094000006849684FF4E06292FAA2F201F4E061B3
:10095000B2FA82F2D140044A515CC84070470000AC
:100960001800002000100240B03300080848094970
:10097000006849684FF4605292FAA2F201F46051A3
:10098000B2FA82F2D140044A515CC840704700007C
:100990001800002000100240B0330008164A10B5BD
:1009A0005168164801F00C03042B20D0082B1ED1EF
:1009B0004FF4701494FAA4F401F47013B4FA84F4AC
:1009C000E3400F4CD26AE45C0F2393FAA3F302F0E6
:1009D0000F02B3FA83F3DA40094B1033C9039A5C70
:1009E00006D500231946FFF74BFCA0FB040110BD00
:1009F0000448A4FB000110BD0010024000127A0060
:100A00008033000800093D002DE9F84F050071D042
:100A10002878FC4EC0074FF0010425D070686704A9
:100A2000C0F38100012807D07068C0F3810002285C
:100A30001BD17068C00318D597FAA7F0B0FA80F000
:100A400040F02000400901D0306800E0706A97FA59
:100A5000A7F1B1FA81F101F01F0104FA01F1084296
:100A600065D068680028D2D061E06868B0F5803F42
:100A70000BD010B1B0F5A02F17D0306820F4803023
:100A80003060306820F4802002E0306840F480302C
:100A90003060F06AA96820F00F000843F0626868CF
:100AA00020B3FFF7D3FD80460AE0306840F4802091
:100AB0003060EAE7FFF7CAFDA0EB0800642871D8B0
:100AC00097FAA7F0B0FA80F040F02000400901D07A
:100AD000306800E0706A97FAA7F1B1FA81F101F08D
:100AE0001F0104FA01F10842E4D020E0FFF7AEFD57
:100AF000804607E0C2E000BFFFF7A8FDA0EB0800BA
:100B00006428DCD897FAA7F0B0FA80F040F0200013
:100B1000400901D0306800E0706A97FAA7F1B1FA95
:100B200081F101F01F0104FA01F10842E4D12878B3
:100B3000DFF8D48280074FF0000A4FF0020730D56B
:100B400070684FF0F80B10F00C0F07D07068C0F30E
:100B50008100022827D17068C00324D497FAA7F037
:100B6000B0FA80F040F02000400901D0306800E089
:100B7000706A97FAA7F1B1FA81F101F01F0104FA46
:100B800001F1084202D02869012877D130689BFA28
:100B9000ABF220F0F8016869B2FA82F290400143AA
:100BA00031605AE064E1286988B394FAA4F0B0FA9D
:100BB00080F048F82040FFF749FD814606E000BF7D
:100BC000FFF744FDA0EB090002289AD897FAA7F096
:100BD000B0FA80F040F02000400901D0306800E019
:100BE000706A97FAA7F1B1FA81F101F01F0104FAD6
:100BF00001F10842E4D030689BFAABF26969B2FABD
:100C000082F220F0F80091400843306025E0FFE7D1
:100C100094FAA4F0B0FA80F048F820A0FFF716FD8F
:100C2000814605E0FFF712FDA0EB09000228CCD8B1
:100C300097FAA7F0B0FA80F040F02000400901D008
:100C4000306800E0706A97FAA7F1B1FA81F101F01B
:100C50001F0104FA01F10842E4D1287800076CD59D
:100C6000A869A8B394FAA4F0B0FA80F008EB800069
:100C7000C0F88044FFF7EAFC814607E0A4E100BF2A
:100C8000FFF7E4FCA0EB090002289ED897FAA7F032
:100C9000B0FA80F040F06000B4EB501F01D1306832
:100CA0000BE097FAA7F0B0FA80F040F06000B7EBE5
:100CB000501F01D1306A00E0706A97FAA7F1B1FACB
:100CC00081F101F01F0104FA01F21042D8D034E0A2
:100CD000FFE794FAA4F1B1FA81F108EB8101C1F8C0
:100CE00080A4FFF7B3FC814606E000BFFFF7AEFC2F
:100CF000A0EB090002289AD897FAA7F0B0FA80F082
:100D000040F06000B4EB501F01D130680BE097FA5F
:100D1000A7F0B0FA80F040F06000B7EB501F01D1AF
:100D2000306A00E0706A97FAA7F1B1FA81F101F038
:100D30001F0104FA01F21042D8D12878400768D583
:100D4000F0694FF00009C00009D4F06940F080500C
:100D5000F061F0694FF0010900F0805000902B48DD
:100D60000168C90512D4016841F480710160FFF780
:100D70006DFC834606E000BFFFF768FCA0EB0B00AC
:100D8000642875D821480068C005F5D5E8680128B1
:100D90000AD008B1052811D0306A20F00100306275
:100DA000306A20F0040002E0306A40F00100306256
:100DB000E86868B3FFF74AFC83460DE0306A40F00C
:100DC00004003062F0E700BFFFF740FCA0EB0B012E
:100DD00041F2883081424BD897FAA7F0B0FA80F000
:100DE00040F04000B4EB501F01D1306813E097FA97
:100DF000A7F0B0FA80F040F04000B7EB501F09D1E7
:100E0000306A08E0001002400000424200700040DA
:100E10000CE040E0706A97FAA7F1B1FA81F101F0B5
:100E20001F0104FA01F21042CED02DE0FFF70EFCB4
:100E3000834607E0FFF70AFCA0EB0B0141F2883084
:100E4000814215D897FAA7F0B0FA80F040F0400040
:100E5000B4EB501F01D130680CE097FAA7F0B0FA5C
:100E600080F040F04000B7EB501F02D1306A01E043
:100E700083E0706A97FAA7F1B1FA81F101F01F01DE
:100E800004FA01F21042D5D1B9F1000F03D0F06994
:100E900020F08050F061E86980B37168C1F381018E
:100EA000022977D04FF080714F000228504609D0B8
:100EB00091FAA1F1B1FA81F148F82100FFF7C6FBE0
:100EC00005465DE0894691FAA1F1B1FA81F1C24689
:100ED00048F82100FFF7BAFB804605E0FFF7B6FBB4
:100EE000A0EB0800022848D897FAA7F0B0FA80F0E3
:100EF00040F02000400902D0306801E066E0706AEE
:100F000097FAA7F1B1FA81F101F01F0104FA01F19A
:100F10000842E3D1D5E908100843716821F474113F
:100F20000843706099FAA9F0B0FA80F04AF82040BE
:100F3000FFF78CFB054604E0FFF788FB401B022807
:100F40001BD897FAA7F0B0FA80F040F020004009D3
:100F500001D0306800E0706A97FAA7F1B1FA81F128
:100F600001F01F0104FA01F10842E5D02EE000BFB4
:100F7000FFF76CFB401B022802D90320BDE8F88F65
:100F800097FAA7F0B0FA80F040F02000400902D0B4
:100F9000306801E00BE0706A97FAA7F1B1FA81F1CD
:100FA00001F01F0104FA01F10842E1D10EE001282D
:100FB000E4D070682A6A00F48031914204D1696AF1
:100FC00000F47010884201D00120D7E70020D5E757
:100FD00070477047704710B5040003D094F83D0087
:100FE00010B107E0012010BD002084F83C0020462D
:100FF00000F022F8022084F83D00211D206800F056
:1010000089FB012084F8480084F83E0084F83F0002
:1010100084F8400084F8410084F8420084F84300DA
:1010200084F8440084F8450084F8460084F84700BA
:1010300084F83D00002010BD7047000090F83D107E
:10104000012901D001207047022180F83D1001687C
:10105000CA6842F00102CA6000680B49884205D0A4
:10106000B0F1804F02D00949884207D18168084A0F
:101070001140062906D0B1F5803F03D0016841F048
:101080000101016000207047002C01400040014038
:1010900007000100704770B50446006801694FF011
:1010A0000005C943890715D4C168C943890711D40C
:1010B000E91E0161012020772068806980072046B1
:1010C00002D0FFF7E7FF04E000F0A7F8204600F0A9
:1010D000A5F8257720680169C943490717D4C16875
:1010E000C943490713D46FF004010161022020773E
:1010F0002068806910F4407F204602D0FFF7CAFFC5
:1011000004E000F08AF8204600F088F8257720688F
:101110000169C943090716D4C168C943090712D434
:101120006FF008010161042020772068C069800702
:10113000204602D0FFF7AEFF04E000F06EF8204634
:1011400000F06CF8257720680169C943C90617D4F7
:10115000C168C943C90613D46FF0100101610820AA
:1011600020772068C06910F4407F204602D0FFF746
:1011700091FF04E000F051F8204600F04FF8257789
:1011800020680169C943C90708D1C168C943C907B3
:1011900004D1891E0161204600F042F820680169EF
:1011A000C943090609D4C168C943090605D46FF0CB
:1011B000800101612046FFF70CFF20680169C943E7
:1011C000C90509D4C168C943090605D46FF4807103
:1011D00001612046FFF7FCFE20680169C94349060A
:1011E00009D4C168C943490605D46FF040010161C3
:1011F000204600F01FF820680169C94389060BD416
:10120000C168C943890607D46FF0200101612046F7
:10121000BDE87040FFF7DEBE70BD7047704700004C
:1012200000680349884201D1FFF716BA70470000F1
:10123000002C014070477047704770472DE9F0411E
:1012400002680446D0691168936840F60F05284289
:101250004FF0000505D186067ED58E067CD5616EE1
:101260001AE1994F03F001060F40374374D0C707C6
:1012700009D0CF0507D501271762D4F8802042F0A6
:101280000102C4F8802082070AD5DA0708D027684F
:1012900002223A62D4F8802042F00402C4F880208E
:1012A00042070AD5DA0708D0236804221A62D4F864
:1012B000802042F00202C4F8802002070CD501F021
:1012C0002002324308D0236808221A62D4F8802012
:1012D00042F00802C4F8802002050BD54A0109D566
:1012E00023684FF400621A62D4F8802042F0200292
:1012F000C4F88020D4F88020002A35D0800605D597
:10130000880603D5616E09B120468847D4F880006D
:1013100021688968490602D410F0280F26D020469B
:1013200000F0D0FA2068806840061AD5206808309E
:1013300050E8001F21F0400140E80012002AF5D1DA
:10134000206F70B161494163206FFFF744F80028B6
:101350000AD0206F416B01E00EE02046BDE8F0416D
:1013600008472046FFF769FFBDE8F0812046FFF7F8
:1013700064FFC4F88050F7E7276E2026012F7AD14A
:10138000C70678D5CF0676D5102010622068806811
:10139000400640D5216F086840680004000CE3D087
:1013A000B4F858208242DFD9A4F85A00886920286E
:1013B0002AD0216851E8000F20F4807041E8000233
:1013C000002AF6D12068083050E8001F21F0010102
:1013D00040E80012002AF5D12068083050E8001FCC
:1013E00021F0400140E80012002AF5D1E6672566A9
:1013F000216851E8000F20F0100041E80002002AA7
:10140000F6D1206FFEF7C4FFB4F85800B4F85A10B4
:10141000401A81B22AE0B4F85800B4F85A10401AC1
:1014200081B2B4F85A0000289ED000299CD02268CE
:1014300052E8000F20F4907042E80003002BF6D130
:101440002068083050E8002F22F0010240E8002315
:10145000002BF5D1E66725666566226852E8000F25
:1014600020F0100042E80003002BF6D12046FFF7E1
:10147000E2FE79E7FFE7C70209D55B0207D54FF423
:10148000801010622046BDE8F041FFF7D5BE02068D
:1014900006D50A0604D5A16E00297FF45EAF63E786
:1014A0004006E6D54806E4D52046016851E8002FFD
:1014B00022F0400241E80023002BF6D186678566C2
:1014C00000F072F850E7000020010004B118000895
:1014D00010B5040002D0A06F10B107E0012010BDCC
:1014E000002084F87400204600F026F82420A0672D
:1014F0002068016821F001010160204600F008FA2F
:101500000128ECD0606A10B1204600F03FF9206855
:10151000416821F4904141602068816821F02A01EE
:1015200081602068016841F0010101602046BDE84A
:10153000104000F08FB9000010B586B004461421A9
:101540006846FEF7F7FE16492068884226D11548FE
:10155000C16941F40031C161C16901F400310591F3
:10156000416941F4003141614069694600F400304D
:1015700005900C2000900220019000200290039022
:10158000072004904FF09040FEF74AFF002205210B
:101590002620FFF7DDF82620FFF7CCF806B010BDB7
:1015A00000440040001002407047FEE7012000F0B8
:1015B00007FBFBE730B587B014216846FEF7BAFE9B
:1015C0001A48416941F400214161416901F4002157
:1015D0000591416941F480014161416901F4800153
:1015E0000591416941F400314161416901F40031E3
:1015F0000591416941F48021416140690C4D00F43D
:1016000080204FF400540590002221462846FFF721
:1016100017F8012000210094CDE9010103916946EA
:101620002846FEF7FDFE07B030BD00000010024066
:10163000000400480C4810B50A4901604FF41641F7
:101640004160002181600C22C160C0E90412816107
:10165000C16101624162FFF73BFF002801D072B611
:10166000FEE710BD0044004094000020FEE7FEE7C6
:1016700010B5502080F31188BFF34F8FBFF36F8FE9
:1016800001F0D2FC18B104494FF0805008600020EE
:1016900080F3118810BD000004ED00E030B58FB07C
:1016A00028216846FEF746FE14210AA8FEF742FEEE
:1016B00002250120049000951020059000244FF48D
:1016C0006010CDE9084007956846FFF79DF908B11D
:1016D00072B6FEE70F20CDE90A054FF48060CDE930
:1016E0000C4002210AA80E94FFF764F8002801D0EC
:1016F00072B6FEE70FB030BD0248016841F47001D8
:101700000160704788ED00E00148FFF7C4BC0000AD
:1017100018010020F0B50268184B4FF0804798423E
:1017200001D0B84203D122F070044A682243144C1D
:10173000144D154E984207D0B84205D0A04203D0B0
:10174000A84201D0B04203D122F44077CA683A439C
:101750004F6922F080023A4302608A68C2620A68D6
:101760008262984205D0A04203D0A84201D0B04284
:1017700001D10969016301214161F0BD002C0140E3
:1017800000400140004401400048014090F824100E
:10179000C90706D001684A68836A22F400321A43F6
:1017A0004A6090F82410890706D501684A68C36A20
:1017B00022F480321A434A6090F82410490706D573
:1017C00001684A68036B22F480221A434A6090F849
:1017D0002410090706D501684A68436B22F40042C9
:1017E0001A434A6090F82410C90606D501688A6831
:1017F000836B22F480521A438A6090F82410890681
:1018000006D501688A68C36B22F400521A438A60C5
:1018100090F82410490611D501684A68036C22F437
:1018200080121A434A60016CB1F5801F06D101682D
:101830004A68436C22F4C0021A434A6090F82410AC
:10184000090606D501684A68806C22F4002202432A
:101850004A607047F8B500260446C0F88060FEF77D
:10186000F5FE0546206800686FF07E47000708D542
:101870002B4600224FF400112046009700F0EAF8B2
:1018800060B92068006840070AD52B4600224FF453
:1018900080012046009700F0DDF808B10320F8BD74
:1018A0002020A067E067266684F874600020F8BDF9
:1018B00010B5406A0021A0F85A10A0F85210FFF7A6
:1018C000BCFC10BD016851E8002F22F4907241E881
:1018D0000023002BF6D10168083151E8002F22F0D7
:1018E000010241E80023002BF5D1016E012908D146
:1018F000026852E8001F21F0100142E80013002B9B
:10190000F6D12021C16700210166416670470000C1
:1019100070B5044680682169E26908436169002561
:101920001143226808431168444B19400143116078
:1019300020684168E26821F4405111434160A16987
:10194000206A084321688A6822F4306202438A6070
:101950003B492068884210D13A48006B10F00300E0
:1019600011D0012805D0022805D003280DD102216D
:101970000CE004210AE0082108E03349884202D043
:101980003249884201D1002100E01021E3694FF47F
:1019900000422F484FF6EF76934227D1092941D2D2
:1019A000DFE801F005080E400B4040402200FEF742
:1019B000C5FF04E0FEF7DAFF01E0FEF7EFFF90B3AA
:1019C0004100606801EB5001B1FBF0F080B2A0F182
:1019D0001001B14226D84FF6F0710140C0F3420029
:1019E00001432068C16023E01046E9E7092919D2C4
:1019F000DFE801F005080E180B1818181A00FEF79A
:101A00009DFF04E0FEF7B2FF01E0FEF7C7FF50B113
:101A1000616800EB5100B0FBF1F080B2A0F1100161
:101A2000B14203D9012503E01046F1E72168C860FF
:101A300000206066A066284670BD0000F369FFEFD5
:101A400000380140001002400044004000480040BF
:101A500000127A002DE9F0479A4617460E460446D2
:101A60004FF000094FF02008089D4AE0681C48D05C
:101A7000FEF7ECFDA0EB0A00A8422AD84DB320687F
:101A8000016849073DD5C069C043000539D42168C4
:101A90004FF400600862206850E8001F21F4D07104
:101AA00040E80012002AF6D12068083050E8001FF4
:101AB00021F0010140E80012002AF5D1C4F8788035
:101AC000C4F87C80C4F8808084F874900320BDE85A
:101AD000F087216851E8000F20F4D07041E800023F
:101AE000002AF6D12068083050E8001F21F00101DB
:101AF00040E80012002AF5D1C4F87880C4F87C8050
:101B0000E2E72068C06936EA000004D00020B8424D
:101B1000ACD00020DBE70120F9E700000148FFF727
:101B20008DBB000094000020012000F049F8FBE785
:101B3000FEE70907090E002804DB00F1E02080F829
:101B40000014704700F00F0000F1E02080F8141D31
:101B5000704702E008C8121F08C1002AFAD1704776
:101B60007047002001E001C1121F002AFBD170471D
:101B7000FEF77AFDFFF792FDFFF71CFDFFF75AFD18
:101B800000F05AF80A4A00210A4800F091F80A4C7D
:101B9000074A002120602432084800F089F860607C
:101BA0000348483000F026F8A06000F061F8FEE736
:101BB00028330008AD15000800000020291B00088C
:101BC00010B5EFF3058149B9EFF3108131B9084938
:101BD0000968022905D1EFF3118111B16FF00504F5
:101BE00003E0002408B100F0F5FD204610BD000020
:101BF0006C00002010B54FF00001EFF30582BAB978
:101C0000EFF31082A2B90B4A1268022A02D1EFF355
:101C100011826AB948B1D0E902202AB1202807D33D
:101C2000104600F0CBFE02E010B900F0B9FE01460C
:101C3000084610BD6C000020EFF3058058B9EFF3A3
:101C4000108040B909490868022801D030B109E084
:101C5000EFF3118030B16FF005007047012008608C
:101C6000002070474FF0FF30704700006C000020EC
:101C700010B5EFF3058060B9EFF3108048B90B4958
:101C80000868022802D0012806D00BE0EFF311808B
:101C900040B16FF0050010BD0220086000F002FEA8
:101CA000002010BD4FF0FF3010BD00006C00002080
:101CB000F0B585B04FEA01034FF00004EFF3058162
:101CC0000394A1BBEFF3108189BB21490968022964
:101CD00002D1EFF3118151BB48B3802618218DF852
:101CE000104004AD42B3176807B13D4697691FB174
:101CF00039467F1E382F02D21779FF0702D0002005
:101D000005B0F0BD576907B1BE08D2F808C0BCF1F4
:101D1000000F0DD0D4685C2C18D312693AB137B1DA
:101D20008DE806103246294601F03FF903900DE098
:101D3000D7685FB912694AB903AACDE90012B2B2F5
:101D4000294601F005F9012800D003940398D7E74C
:101D50006C0000202DE9F041134C0F4605466669E2
:101D60002068001D00F006FC681C07D137B121680F
:101D7000BDE8F0410D48091D00F04CBC2068354419
:101D8000B5424560216805D2A068BDE8F041091D53
:101D900000F028BC6068091D00F024FC206B85421F
:101DA00000D22563BDE8F0811C000020540600200D
:101DB0002DE9F041054600F039FC274C2069401C14
:101DC00020612068254F10B1E06930B32BE0256019
:101DD0002069012827D1002606EB860007EB80004A
:101DE00000F0F2FB761C382EF6D31D4800F0ECFB19
:101DF0001B48143000F0E8FB1948283000F0E4FBE1
:101E000017483C3000F0E0FB1548503000F0DCFB98
:101E1000134860601430A06005E02068E96AC06A79
:101E2000884200D82560E06A401CE0626864E86A85
:101E3000A169884200D9A06100EB800007EB800017
:101E4000291D00F0E7FB00F011FCE069002800D03C
:101E50002068BDE8F08100001C000020A4010020E3
:101E60000406002038B500F0E1FB104CA068C8B9AA
:101E70000F4800F0A9FB0E48143000F0A5FB0C48F9
:101E80002060143060600A4B00202833009003F17A
:101E9000500210210A2000F021FEA06010B105A11F
:101EA00000F062FCBDE8384000F0E0BB58000020C4
:101EB00068060020546D72510000000030B4026CBE
:101EC0000B46002A0BD0C1681144C1604468A1428E
:101ED00001D30168C16030BC1846FEF712BA30BCAD
:101EE00070472DE9F041856B174604460026026CC9
:101EF00082B1C7B1E068FEF704FAE168206C091A04
:101F0000E1602268914202D26168081AE060022F03
:101F100016D017E02068A8B9606801F0D7F8064627
:101F2000002060600EE0A068FEF7EBF9216CA0686D
:101F30000844A0606168884204D32068A06001E082
:101F400005B16D1E6D1CA5633046BDE8F08110B56E
:101F5000044690F8590058B101280CD002280FD03F
:101F6000502080F31188BFF34F8FBFF36F8FFEE7D0
:101F7000206B00F08FFB2046BDE8104000F08ABBCC
:101F800010BD000010484FF44061420706D0C01D4C
:101F90000D4920F00700411AC1F540610B4A0023AA
:101FA0000144C2E900030839103A21F00701116029
:101FB0004B600B600B1AC0E9001393604FF00040B8
:101FC0005360D06070470000380E00208000002071
:101FD000114E124C4FF08057DFF8448012E000BFE2
:101FE00000F024FBF068C568281D00F0C3FA2069E2
:101FF000401E2061E068401EE06000F037FB28468C
:10200000FFF7A5FFE0680028EAD1C8F80070BFF329
:102010004F8FBFF36F8FF5E7400600201C000020B4
:1020200004ED00E070B51D46049C51B1C4F80020D9
:10203000C4E90F010121204600F083FD84F84C50D3
:1020400070BD2460F4E72DE9F0470E46DDE9098410
:102050001746824691009946089DA522206BFEF7FF
:1020600062F96FF00301206B01EB8701084420F057
:102070000707780707D0502080F31188BFF34F8FF0
:10208000BFF36F8FFEE72218315C82F83410315CA9
:1020900011B1401C1028F6D3002684F84360382D77
:1020A00000D33725E562C4E91356201D00F097FAE6
:1020B00004F1180000F093FA2461C5F1380064625D
:1020C000A061666584F858604A465146384600F07B
:1020D0003BFA2060B8F1000F01D0C8F80040BDE81D
:1020E000F087000030B5114900E011460A688242CD
:1020F000FBD34B685C18844203D1406818444860A5
:10210000084643681C18944209D1084C103C2468C6
:10211000A24209D052681A4442600A6812680260FA
:10212000814200D0086030BD0460F9E780000020E3
:1021300070B5002441600B4D0061914206D8D11A60
:102140008269914206D2011D686807E09A4203D273
:10215000994201D3012403E0011D286800F042FAEE
:10216000204670BD5800002010B5044600F05EFA0D
:10217000A06B28B15FF0000400F078FA204610BD93
:102180000124F9E730B589B0304D55E004980028B6
:1021900006DADDE90601059A9047049800284BDB32
:1021A000069C606910B1201D00F0E4F902A800F05F
:1021B000B9F8024604980A283ED2DFE800F0050587
:1021C000053D263705053D260598A16903460144CE
:1021D0002046FFF7ADFF00B3616A20468847E069FB
:1021E000012829D1002000900598A16900234218F8
:1021F0001946204601F064F878B9502080F3118820
:10220000BFF34F8FBFF36F8FFEE70598A06128B132
:10221000811813462046FFF78BFF0DE0502080F316
:102220001188BFF34F8FBFF36F8FFEE794F82C0038
:1022300010B9204600F02EFA002204A9A86800F088
:10224000BBFD0028A2D109B030BD0000580000201D
:102250002DE9FC410F46054600F068FB01A800F09F
:1022600061F80446019818B100F0A8FFBDE8FC81B0
:10227000224EAFB170680068A8B30027291B3A4608
:10228000B06800F085FA00F099FF0028EED11C49F3
:102290004FF080500860BFF34F8FBFF36F8FE5E7BB
:1022A000A542EBD800F08AFF30682746C068C468B2
:1022B000201D00F05FF9E069012810D1A0692B46CC
:1022C00041193A462046FFF733FF40B1002003464C
:1022D000014600902A46204600F0F2FF20B1616AD4
:1022E00020468847C2E707E0502080F31188BFF3FB
:1022F0004F8FBFF36F8FFEE70127BFE75800002025
:1023000004ED00E006484168096829B14168C968E0
:10231000C9684968016370474FF0FF31FAE7000070
:102320001C00002070B5054600F078FE064E0446FD
:102330003069844203D200F009F8012000E0002057
:1023400028602046346170BD58000020F8B5194D52
:102350001FE0C068C4680668201D00F00BF9616AC0
:1023600020468847E069012813D1A0693044B04273
:1023700006D924616060211D286800F033F908E067
:1023800000200346014600903246204600F098FFA8
:1023900038B1286801680029DBD16968C5E90010F7
:1023A000F8BD502080F31188BFF34F8FBFF36F8FBC
:1023B000FEE700005800002008484068401C4FF02D
:1023C000500080F3118804D0BFF34F8FBFF36F8F9D
:1023D000FEE7BFF34F8FBFF36F8FFEE7880000204B
:1023E000074C2068016841B1C0680021D0F80000A6
:1023F000FFF72EFFFFF7C6FEF3E701210020F7E706
:10240000580000202DE9F041044600F00FF994F93E
:10241000455004F1240609E0606A48B1304600F0F6
:1024200095FE08B100F004FA6D1E6DB2002DF3DCCC
:102430004FF0FF3684F8456000F018F900F0F6F828
:1024400094F9445004F1100709E0206948B1384676
:1024500000F07CFE08B100F0EBF96D1E6DB2002DAE
:10246000F3DC84F84460BDE8F04100F0FFB8000000
:102470002DE9F0410546002700F058FA314E30684A
:1024800008B9FFF77FFDF06805424BD1C5B30835A9
:1024900068070ED005F00700C0F108000544680782
:1024A00007D0502080F31188BFF34F8FBFF36F8F99
:1024B000FEE72DB37068854234D8224810300146BB
:1024C0000C6801E020460C466168A94202D22168EE
:1024D0000029F7D131688C4224D007682168016057
:1024E00060680837411B10290FD96019420708D0CE
:1024F000502080F31188BFF34F8FBFF36F8FFEE73B
:1025000010E041606560FFF7EDFD61687068401A9A
:102510007060B268904200D2B060F0680143002061
:10252000C4E9000100F04AFE780707D0502080F38C
:102530001188BFF34F8FBFF36F8FFEE73846BDE8BA
:10254000F08100007000002010B5031F4FF0807470
:102550001C601B1F21F001011960191F044B0B6047
:1025600014390A60091F6FF0020244380A6010BD76
:10257000B9230008D0E9013201699A60D0E901234A
:102580005A604A68824201D182684A600022026130
:102590000868401E0860086870470000034B03602D
:1025A00003F15C0008608020106070478007002005
:1025B000044B036003F15C0008604FF4807010600E
:1025C00070470000DC09002000F108014FF0FF32E5
:1025D000C0E90112C1600161002101607047002162
:1025E0000161704730B50B685A1C02D000F1080237
:1025F00002E0026904E02246546825689D42FAD947
:1026000053684B6099608A60516008610168491C99
:10261000016030BD42684A6093688B60936859607E
:10262000916008610168491C01607047502080F387
:102630001188BFF34F8FBFF36F8F0A494868401C62
:10264000486001280CD10848006810F0FF0F07D03F
:10265000502080F31188BFF34F8FBFF36F8FFEE7D9
:10266000704700008800002004ED00E00849486839
:1026700028B1401E486001D180F311887047502076
:1026800080F31188BFF34F8FBFF36F8FFEE7000019
:102690008800002070B5002827D0144DA0F1080450
:1026A0006168E868014207D1502080F31188BFF3C8
:1026B0004F8FBFF36F8FFEE722683AB1502080F34F
:1026C0001188BFF34F8FBFF36F8FFEE781436160C7
:1026D00000F02CF960686968084468602046FFF7DC
:1026E00001FDBDE8704000F069BD70BD70000020C4
:1026F0004FF0E02000210161816105494FF47A72B9
:102700000968B1FBF2F1491E41610721016170477F
:102710001800002010B5FDF79DFD114910280ED3BB
:1027200000F1E02090F8F0030A78904207D25020A0
:1027300080F31188BFF34F8FBFF36F8FFEE7094817
:102740000068896800F4E060884207D9502080F36F
:102750001188BFF34F8FBFF36F8FFEE710BD0000EE
:10276000880000200CED00E010B5084B002200BFEF
:1027700053F832401CB1521C082AF9D310BD43F85B
:10278000321003EBC201486010BD0000640100205C
:1027900070B515460E460446FFF748FF94F94410FD
:1027A0000020491C01D184F8440094F94510491CCB
:1027B00001D184F84500FFF759FFA06B28B92A46DC
:1027C000314604F1240000F051F82046BDE8704085
:1027D000FFF718BE10B5020014D00F48806B38B157
:1027E000502080F31188BFF34F8FBFF36F8FFEE748
:1027F00000F09CF800211046FFF7ACFA00F0DEFC78
:10280000002807D105494FF080500860BFF34F8F73
:10281000BFF36F8F10BD00001C00002004ED00E02E
:1028200002498A6A02604969416070471C000020C1
:1028300001490120486270471C00002010B50C4679
:1028400050B1094909681831FFF7CCFE2046BDE8B0
:1028500010400121FFF77EBA502080F31188BFF3AA
:102860004F8FBFF36F8FFEE71C00002070B514463A
:102870000D4668B10A4909681831FFF7CBFE0CB163
:102880004FF0FF3521462846BDE87040FFF762BA99
:10289000502080F31188BFF34F8FBFF36F8FFEE797
:1028A0001C00002030B587B00024039405AA04A9B9
:1028B00003A80494FFF772FEDDE903010094CDE95B
:1028C0000110002315A11748059A00F06EFB164D64
:1028D000002868631FD000F0C3FC012809D0401C09
:1028E00019D1502080F31188BFF34F8FBFF36F8F42
:1028F000FEE7502080F31188BFF34F8FBFF36F8F37
:102900004FF0FF3028630120E8616C6107B0BDE83B
:10291000304000F069B807B030BD000049444C4574
:1029200000000000D11F00081C0000200248816B3D
:10293000491C8163704700001C000020164810B538
:10294000816B11B10121416210BD00214162816999
:10295000124A01E0B9B1491E01EB810352F823305C
:10296000002BF7D001EB810302EB830202F1080494
:1029700053685B685360A34201D15B685360DA68B7
:102980000260816110BD502080F31188BFF34F8F2A
:10299000BFF36F8FFEE700001C000020A4010020A1
:1029A00070B52020FFF764FD040005D00025201D30
:1029B0002560FFF709FE2577204670BD38B558B170
:1029C00020210446002000912060201DFFF7FCFD1F
:1029D00001202077204638BD502080F31188BFF3B6
:1029E0004F8FBFF36F8FFEE71CB537480168374A3A
:1029F000914207D1502080F31188BFF34F8FBFF36E
:102A00006F8FFEE700683149491E884207D1502088
:102A100080F31188BFF34F8FBFF36F8FFEE72C4910
:102A200008780190FF20087008788DF800009DF864
:102A300000009DF8002000F0F000904207D05020E8
:102A400080F31188BFF34F8FBFF36F8FFEE79DF8C0
:102A50000000204B00F0500018700720986005E03F
:102A60009DF8002052008DF80020401E9DF80020A7
:102A70001206F5D49860032807D0502080F31188FF
:102A8000BFF34F8FBFF36F8FFEE74FF44070986036
:102A9000019808700C482030016841F47001016011
:102AA000016841F070410160FFF722FE002058608C
:102AB000FDF798FB0848016841F040410160FDF7CF
:102AC0007DFB00201CBD000000ED00E071C20F4145
:102AD00000E400E08800002034EF00E038B5049DF9
:102AE00018B153B1CAB181B120E0502080F31188F0
:102AF000BFF34F8FBFF36F8FFEE7502080F3118835
:102B0000BFF34F8FBFF36F8FFEE7502080F3118824
:102B1000BFF34F8FBFF36F8FFEE739B1502080F3C3
:102B20001188BFF34F8FBFF36F8FFEE750241C4611
:102B3000012384F846302B460094FFF773FA2046B1
:102B400038BD70B50D46040025D0FFF76FFDD4E900
:102B50000F20216802FB001161600021A163216840
:102B6000A1600A46D4E90F01401E00FB0121E1608B
:102B700021464FF0FF3001F8440F487004F1100077
:102B80008DB1FFF721FD04F12400FFF71DFDFFF7D4
:102B90006DFD012070BD502080F31188BFF34F8F71
:102BA000BFF36F8FFEE721690029F0D000F0CEFA65
:102BB000EDE700002DE9FF41002682B01D46884662
:102BC000040003D0B8F1000F08D011E0502080F3CA
:102BD0001188BFF34F8FBFF36F8FFEE7206C38B1C2
:102BE000502080F31188BFF34F8FBFF36F8FFEE744
:102BF000022D0AD1E06B012807D0502080F3118804
:102C0000BFF34F8FBFF36F8FFEE700F0F9F9002796
:102C100048B9049838B1502080F31188BFF34F8F22
:102C2000BFF36F8FFEE7FFF701FDA06BE16B8842FA
:102C300005D3022D03D0049890B1A6B117E02A461F
:102C400041462046FFF74DF9606A18B104F12400AF
:102C500000F07CFAFFF70AFD012006B0BDE8F08124
:102C6000FFF704FD21E06846FFF7DAFD0126FFF7D4
:102C7000FDFCFFF75BFEFFF7D9FC94F94400401C14
:102C800001D184F8447094F94500401C01D184F8C6
:102C90004570FFF7EBFC04A9684600F01FF930B15E
:102CA0002046FFF7AFFB00F089FA0020D5E7FFF7D9
:102CB000BDFCA06BE16B884216D1FFF7D7FC04F195
:102CC00010000499FFF7BAFD2046FFF79BFB00F0C8
:102CD00075FA0028A7D108494FF080500860BFF36B
:102CE0004F8FBFF36F8F9EE7FFF7C0FC2046FFF7C3
:102CF00089FB00F063FA96E704ED00E02DE9F04768
:102D00001F4690468946040003D0B9F1000F08D051
:102D100011E0502080F31188BFF34F8FBFF36F8F06
:102D2000FEE7206C38B1502080F31188BFF34F8F3D
:102D3000BFF36F8FFEE7022F0AD1E06B012807D0A7
:102D4000502080F31188BFF34F8FBFF36F8FFEE7E2
:102D5000FFF7E0FC5020EFF3118680F31188BFF3FA
:102D60004F8FBFF36F8FA06BE16B884206D3022FAA
:102D700004D0002086F31188BDE8F08794F945500F
:102D80003A4649462046FFF7ACF8681C04D06D1C53
:102D900084F845500120EDE7606A0028FAD004F17C
:102DA000240000F0D3F90028F4D0B8F1000FF1D0DE
:102DB0000121C8F80010EDE72DE9F741002683B0A6
:102DC0008846040003D0B8F1000F08D011E050206D
:102DD00080F31188BFF34F8FBFF36F8FFEE7206C36
:102DE00038B1502080F31188BFF34F8FBFF36F8F3E
:102DF000FEE700F005F9002748B9059838B15020E2
:102E000080F31188BFF34F8FBFF36F8FFEE7FFF79B
:102E10000DFCA56B8DB141462046FFF74FF86D1EA6
:102E2000A563206918B104F1100000F08FF9FFF7D5
:102E30001DFC012006B0BDE8F081059808B11EB167
:102E400006E0FFF713FC27E06846FFF7E9FC0126E0
:102E5000FFF70CFCFFF76AFDFFF7E8FB94F944006D
:102E6000401C01D184F8447094F94500401C01D104
:102E700084F84570FFF7FAFB05A9684600F02EF8C4
:102E8000002820460AD0FFF7BDFA00F097F9204647
:102E9000FFF76AF90028BAD00020CBE7FFF764F902
:102EA000A0B104F124000599FFF7C8FC2046FFF704
:102EB000A9FA00F083F90028A9D107494FF0805002
:102EC0000860BFF34F8FBFF36F8FA0E72046FFF777
:102ED00099FA00F073F99AE704ED00E02DE9F0416A
:102EE0000C46050011D0C4B1FFF7A0FB174B5A697F
:102EF0006E682068911B471C17D02F689B6A9F4201
:102F000019D0964217D8012410E0502080F3118880
:102F1000BFF34F8FBFF36F8FFEE7502080F3118810
:102F2000BFF34F8FBFF36F8FFEE70024FFF79EFBC9
:102F30002046BDE8F081884205D9401A2060284625
:102F4000FFF76EFCF1E700202060DCE71C000020AA
:102F50002DE9FF5F8346DDE90E87994616468A46CE
:102F60009000FFF785FA05001CD05C20FFF780FA7F
:102F7000040014D00020256384F85900CDE90240F4
:102F8000CDE900874B46324651465846FFF75BF87D
:102F90002046FEF70DFF012004B0BDE8F09F284653
:102FA000FFF778FB4FF0FF30F6E7F0B585B0DDE9CD
:102FB0000B640A9DA6B1DCB15C270097266302264C
:102FC00084F85960002604AFCDE90246CDE90057E8
:102FD000FFF739F82046FEF7EBFE049805B0F0BD88
:102FE000502080F31188BFF34F8FBFF36F8FFEE740
:102FF000502080F31188BFF34F8FBFF36F8FFEE730
:103000000548C16919B1806B18B1002070470120D3
:1030100070470220704700001C00002001484069F2
:10302000704700001C0000202DE9F041254C4FF0B6
:103030000008A06B28B1206A401C20624046BDE811
:10304000F0816669761C666113D16068006838B1EA
:10305000502080F31188BFF34F8FBFF36F8FFEE7CF
:103060006068A1686160A060A06A401CA062FFF770
:1030700049F9206B8642E1D3134F6068006838B18C
:103080006068C068C5686868864204D22063D5E776
:103090004FF0FF30FAE7281DFFF76CFAA86A18B165
:1030A00005F11800FFF766FAE86AA169884200D9BD
:1030B000A06100EB800007EB8000291DFFF7AAFA52
:1030C000DBE700001C000020A401002070B5040014
:1030D0004FF0000133D01B4D2868844207D05020A8
:1030E00080F31188BFF34F8FBFF36F8FFEE7206D22
:1030F00038B1401E2065E36CE26A9A421FD040B1AD
:103100001DE0502080F31188BFF34F8FBFF36F8F06
:10311000FEE7201DFFF72EFAE06CE062C0F13800F8
:10312000A061E06AA969884200D9A861064900EB5C
:10313000800001EB8000211DFFF76CFA0121084699
:1031400070BD00001C000020A401002070B5C06804
:10315000C46854B104F118000646FFF70BFA144D89
:10316000A86B50B13146134815E0502080F3118808
:10317000BFF34F8FBFF36F8FFEE7201DFFF7FAF904
:10318000E06AA969884200D9A8610B4900EB800078
:1031900001EB8000211DFFF73DFAE06A2968C96A4A
:1031A000884202D90120686270BD002070BD000015
:1031B0001C0000202C060020A40100202DE9F0476F
:1031C000254D0024A146A86B38B1FFF72FFAA86B54
:1031D000401EA863A86B40B139E0502080F31188ED
:1031E000BFF34F8FBFF36F8FFEE728691B4F012698
:1031F00068B3A7F591683868D8B1F868C46804F175
:103200001800FFF7B7F9201DFFF7B4F9E06AA969C4
:10321000884200D9A86100EB800108EB8100211DE4
:10322000FFF7F8F9E06A2968C96A8842E3D36E6259
:10323000E1E70CB1FFF766F82C6A3CB1FFF7F4FE4A
:1032400000B16E62641EF9D100202862686AFFF73F
:103250000DFA4846BDE8F0871C0000202C0600202F
:1032600010B586B0FEF7FEFD114CA068B8B1002085
:103270000390049005AA04A903A8FFF799F9DDE9D2
:10328000032102208DE8070000230AA10B48059ABC
:10329000FFF78BFEE06010B106B0012010BD50209A
:1032A00080F31188BFF34F8FBFF36F8FFEE70000ED
:1032B00058000020546D722053766300E12300080B
:1032C0002DE9FF411E46134602000A9D4FF0000003
:1032D00016D0144CA768002F0FD0CDE9001302922E
:1032E000062917DAFFF78CFE02284FF000030FD0F3
:1032F00000226946A068FFF75DFC04B0BDE8F081DC
:10330000502080F31188BFF34F8FBFF36F8FFEE71C
:103310002A46EEE70023324669463846FFF7EEFCC0
:10332000EBE7000058000020B83300080000000060
:10333000000000000000000000000000000200008B
:10334000180000000000000000000000D03300085A
:10335000000000000000000000000000000000006D
:103360000002000008000000000000000000000053
:10337000C033000800000000000000000000000052
:1033800002030405060708090A0B0C0D0E0F1010A6
:103390000102030405060708090A0B0C0D0E0F10A5
:1033A00000000000000000000102030406070809F5
:1033B00000000000010203047461736B4C6564003B
:1033C0006576656E7455617274436F6D0000000020
:1033D0007461736B556172744563686F000000001F
:1033E000003400080000002094000000521B000878
:1033F0009434000894000020A41D0000621B000803
:1034000000000000000000000000000001000000BB
:10341000100000000000000000127A000000000010
:10342000000000000000000000000000000000009C
:10343000000000000000000000000000000000008C
:10344000000000000000000000000000000000007C
:10345000000000000000000000000000000000006C
:10346000000000000000000000000000000000005C
:10347000000000000000000000000000000000004C
:10348000000000000000000000000000AAAAAAAA94
:043490000000000038
:040000050800018965
:00000001FF
