:020000040800F2
:10000000902A002061020008692500081D240008CC
:100010006525000847090008AD2D00080000000014
:10002000000000000000000000000000A101000826
:100030004B09000800000000FD0100086D250008C4
:100040007B0200087B0200087B0200087B0200089C
:100050007B0200087B0200087B0200087B0200088C
:100060007B0200087B0200087B0200087B0200087C
:100070007B0200087B0200087B0200087B0200086C
:100080007B0200087B0200087B0200087B0200085C
:100090007B0200087B0200087B0200087B0200084C
:1000A0007B020008B52500087B0200087B020008DF
:1000B0007B02000800000000000000007B02000836
:1000C0007B0200087B0200087B02000800000000A1
:1000D0007B0200087B020008752D00087B020008E7
:1000E0007B0200087B0200087B0200080000000081
:1000F0000000000000000000000000000000000000
:100100000000000000000000000000007B0200086A
:1001100000000000000000007B020008000000005A
:1001200000000000000000000000000000000000CF
:1001300000000000000000000000000000000000BF
:100140007B0200087B0200080000000000000000A5
:10015000000000000000000000000000000000009F
:100160007B0200087B0200087B0200087B0200087B
:100170007B020008000000000000000000000000FA
:10018000000000007B020008DFF810D000F078FBD0
:1001900000F0F8F800480047DD400008902A0020F1
:1001A0002C4B19680868B0E8F04F80F30988BFF35A
:1001B0006F8F4FF0000080F311887047000000003F
:1001C00008480068006880F308884FF0000080F35A
:1001D000148862B661B6BFF34F8FBFF36F8F00DF35
:1001E00000BF00BF08ED00E0DFF80C00016841F43B
:1001F00070010160704700BF88ED00E0EFF30980F7
:10020000BFF36F8F134B1A681EF0100F08BF20ED5D
:10021000108A20E9F04F106009B44FF0500080F3CD
:100220001188BFF34F8FBFF36F8F05F0C3F94FF005
:10023000000080F3118809BC19680868B0E8F04F25
:100240001EF0100F08BFB0EC108A80F30988BFF3CE
:100250006F8F70472C000020EFF30580704700007F
:100260000648804706480047FEE7FEE7FEE7FEE750
:10027000FEE7FEE7FEE7FEE7FEE7FEE7A125000852
:10028000890100082DE9F05F0546002092469B4653
:1002900088460646814640241BE02846414647469C
:1002A000224600F020F853465A46C01A914110D316
:1002B00011461846224600F0C5F92D1A67EB0108D1
:1002C0004F4622460120002100F0BCF917EB00093F
:1002D0004E41201EA4F10104DFDC484631462A4687
:1002E0004346BDE8F09F202A04DB203A21FA02F0C1
:1002F0000021704721FA02F3D040C2F12002914060
:1003000008431946704740EA01039B0703D009E000
:1003100008C9121F08C0042AFAD203E011F8013BF1
:1003200000F8013B521EF9D27047D2B201E000F84A
:10033000012B491EFBD270470022F6E710B5134689
:100340000A4604461946FFF7F0FF204610BD10B5D7
:10035000044604E00B7800F8013B03B1491C521E2F
:10036000F8D2204610BD30B505460020034600E017
:100370005B1C934205D2EC5CC85C201A01D1002CB6
:10038000F6D130BD70B5054C054D03E02068204422
:100390008047241DAC42F9D170BD0000D067000831
:1003A000D46700082DE9FE4F804681EA0300C00FA4
:1003B0000C46009021F0004123F00045B8EB02000C
:1003C000A94105D24046214690461C460B460246AE
:1003D00023F00040104347D0270DC7F30A00C3F3B2
:1003E0000A510290401A019040286BDAC3F31300BF
:1003F00040F4801B0098924620B10023D2EB030A00
:1004000063EB0B0B01985946C0F14002504600F0D7
:1004100019F906460D4650465946019A00F021F951
:1004200010EB08006141002487EA115284EAE77367
:100430001A4340D0009A62B3019A012A4FEA075248
:1004400015DC001B61EB02014FF0004202EA07528B
:10045000CDE90042001C41F5801132462B4600F0E8
:1004600022F903B0BDE8F08F40462146F9E7001BB2
:1004700061EB0201001C41F5801300185B4120185C
:10048000A2F5001747EB030140EAD570B6196D419C
:1004900011E06D084FEA360645EAC0754FEA07528B
:1004A000001B61EB0201001C41F5801149084FEA75
:1004B00030000019514132462B4603B0BDE8F04FE1
:1004C00000F0E2B80098012240000023D0EB0202C5
:1004D00063EBE073009821464FEAE074B8EB00004C
:1004E00061EB0401E9E783F000435BE781F0004141
:1004F00058E72DE9FE4F81EA030404F0004421F09F
:10050000004100944FF0000B23F0004350EA010437
:100510005ED052EA03045BD0C3F30A54C1F30A5518
:100520002C44A4F2F3340194A0FB0254C1F3130150
:1005300041F48011C3F3130343F4801301FB02441D
:1005400000FB034E840A970A44EA815447EA835722
:10055000A4FB076802958D0A05FB07854FEA932CDB
:1005600004FB0C542705029D4FEA065847EA16374C
:10057000B5EB08056EEB070C870E920E47EA811764
:1005800042EA8312A7FB0201B6EB0B0164EB000405
:100590002B0D43EA0C335E1844EB1C50DA465146EF
:1005A000E7FB0201C5F313044FEA0B3343EA14538C
:1005B0004FEA0432019C43EA0603A4F10C040294BE
:1005C000009CCDE900B400F06EF803B0BDE8F08FF8
:1005D00000200146F9E70EB5C10F80EAE07008443B
:1005E000CA07002140F233438DE80E000A460B464D
:1005F00000F059F803B000BD0EB540F2334102914E
:100600000021CDE900110A460B4600F04CF803B07A
:1006100000BDC1F30A5210B5C1F3130140F2FF331C
:1006200041F480119A4201DA002010BD40F23343B8
:100630009A42A2F2334203DC5242FFF754FE10BD4D
:10064000904010BD202A04DB203A00FA02F100207D
:1006500070479140C2F1200320FA03F31943904000
:100660007047202A06DBCB17203A41FA02F043EA12
:10067000E07306E041FA02F3D040C2F1200291405B
:10068000084319467047704710B5141E73F10004F3
:1006900008DA401C41F1000192185B411A4301D174
:1006A00020F0010010BD2DE9F04D92469B4611B19E
:1006B000B1FA81F202E0B0FA80F220329046FFF700
:1006C000C1FF04460F4640EA0A0041EA0B015346C7
:1006D0005A46084313D0114653EA010019D0C8F115
:1006E00040025046FFF7FFFD05460E46504659466C
:1006F0004246FFF7A7FF084305D0012004E020464B
:100700003946BDE8F08D0020054346EAE0762C43EB
:1007100037430A986305E40AA0EB08000022FD0AAB
:1007200044EA47540A3002D500200146E9E70105B2
:1007300010196941DDE9084500196941BDE8F04D2E
:10074000A2E72DE9F04D81EA030404F0004B21F00B
:10075000004514464FF0000A23F0004150EA05021C
:1007600020D054EA01021DD0C5F30A570246C5F352
:100770001303C1F31300C1F30A5640F4801543F488
:100780008013A7EB0608101BD64608F2FD3873EB62
:10079000050002D308F1010801E092185B41B8F1AD
:1007A000000F03DA00200146BDE8F08D00204FF471
:1007B0008011064684460EE0171B73EB050705D330
:1007C000121B63EB050306434CEA010C49084FEA90
:1007D000300092185B4150EA0107EDD152EA030064
:1007E00012D082EA040083EA0501084305D0101BF9
:1007F000AB4106D20122002306E000224FF0004365
:1008000002E06FF0010253101AEB06004CEB0851A6
:1008100010EB0A0041EB0B01BDE8F04DFFF734BFD0
:1008200070B521F0004303430CD0C1F30A550024F6
:10083000D5EB040564EB0403D617AD1AB34102DB14
:100840000020014670BD201841EB025170BD000030
:1008500030B5041E71F1000404DB4FF00044404247
:1008600064EB0101141E73F1000405DB1C464FF01C
:100870000043524263EB0403994208BF904230BDEB
:10088000064C074D06E0E06840F0010394E80700DD
:1008900098471034AC42F6D3FFF77AFCB0670008F3
:1008A000D06700082DE9F04D00231A461B1A8A4133
:1008B00003DB00200146BDE8F08DC1F30A52C1F30D
:1008C000130141F480154FF0000BD10702D100183D
:1008D0006D41521E0027044640F2FF11384601EBDD
:1008E000620A3E468046024600204FF48011FFF720
:1008F000FAFCC2197141BB1846EB0100B4EB030CC2
:1009000075EB000C04D3E41A65EB000517460E46A0
:10091000241908F101006D4180463428E3DDF919FE
:1009200046EB0600091BA84103D24FF0FF321346E5
:1009300001E0002213461BEB070046EB0A51BDE81D
:10094000F04DFFF7A1BE00BFFEE7704772B600BFD3
:10095000FEE7014691F82100022808D004208863B0
:1009600000BF002081F8200000BF01207047086808
:10097000006820F00E000A6810600868006820F027
:1009800001000A68106091F8402001209040CA6B75
:100990005060012081F8210000BF002081F8200074
:1009A00000BF00BFE2E770B50446002594F82100BF
:1009B000022803D00420A06301251EE020680068FF
:1009C00020F00E00216808602068006820F0010017
:1009D0002168086094F8401001208840E16B48606D
:1009E000012084F8210000BF002084F8200000BF0F
:1009F000606B10B12046616B8847284670BD0000CF
:100A000078B503460A460021BFE001268E401568EE
:100A100005EA0604002C73D0157905F00305012DB5
:100A200004D0157905F00305022D13D198684E0006
:100A30000325B540A8434E00D568B54028439860CB
:100A4000586801258D40A8431579C5F300158D40E0
:100A500028435860157905F00305032D09D0D8689F
:100A60004E000325B540A8434E009568B540284385
:100A7000D860157905F00305022D13D1CE0803F1D6
:100A8000200555F826004D07EE0E0F25B540A8436A
:100A90004E07F60E1569B5402843CE0803F1200530
:100AA00045F8260018684E000325B540A84315797F
:100AB00005F003054E00B54028431860556805F45D
:100AC0004035002D60D000BF334DAD6945F00105C4
:100AD000314EB5613546AD6905F00105009500BFA1
:100AE00000BF4FEAB6358E0855F826008D072E0F49
:100AF0000F25B540A843B3F1904F02D1002510E077
:100B000042E0264DAB4201D101250AE0244DAB4223
:100B100001D1022505E0234DAB4201D1032500E0C0
:100B200005258E07360FB54028431F4D8E0845F822
:100B300026001E4D2868A043556805F4803505B190
:100B400020431A4D28602D1D2868A043556805F4E0
:100B5000003505B12043154D2D1D28602D1D286839
:100B6000A043556805F4801505B120430F4D0835A5
:100B700028602D1D2868A043556805F4001505B1AF
:100B800020430A4D0C352860491C1568CD40002DC6
:100B90007FF43BAF78BD0000001002400004004825
:100BA00000080048000C0048080001400004014013
:100BB0000AB1816100E0816270470000014800686D
:100BC000704700001C0000200348006803490978B2
:100BD00008440149086070471C00002024000020E0
:100BE00010B50848006840F010000649086003206E
:100BF00000F0C0F8002000F007F800F049F80020ED
:100C000010BD00000020024070B588B004460025E9
:100C1000002600222146192000F06EF8192000F06D
:100C20005BF800BF1648806940F400601449886191
:100C30000846806900F40060019000BF00BF02A96F
:100C400003A800F001FA00F03DFA05460D48B5FB97
:100C5000F0F0461E0C480D49086040F2E7310B48A1
:100C6000C160466000210161816000F0A6FF20B9EB
:100C7000064800F0DBFF08B070BD0120FBE7000074
:100C80000010024040420F00002C014034010020BF
:100C900008B500BF0F48806940F001000D49886128
:100CA0000846806900F00100009000BF00BF00BF4F
:100CB0000846C06940F08050C8610846C06900F02D
:100CC0008050009000BF00BF00220F21901E00F056
:100CD00013F808BD0010024001460846002809DB51
:100CE00000F01F0301229A4043099B0003F1E02317
:100CF000C3F8002100BF70472DE9F05F80460D4624
:100D00001646002702F07AFA074639462A46334645
:100D100001F00700C0F1070ABAF1040F02D94FF041
:100D2000040A01E0C0F1070AD14600F1040ABAF151
:100D3000070F02D24FF0000A01E0A0F1030AD446E7
:100D40004FF0010A0AFA09FAAAF1010A0AEA020AAC
:100D50000AFA0CFA4FF0010B0BFA0CFBABF1010B8A
:100D60000BEA030B4AEA0B042146404602F04EFA16
:100D7000BDE8F09F00BF00F00702064B19684FF670
:100D8000FF031940044B0B4343EA0221014B196056
:100D900000BF70470CED00E00000FA0570B5044696
:100DA0000D4600260CB9012070BDA248006800F075
:100DB0000700A8420ED29F48006820F00700284391
:100DC0009C4908600846006800F00700A84201D06E
:100DD0000120E9E7207800F00200022807D19648B8
:100DE000406820F0F000A1680843934948602078EB
:100DF00000F0010000287CD0606801283BD1202051
:100E0000010391FAA1F1B1FA81F108430121B1EB9B
:100E1000601F02D1884800681DE02020010391FA7C
:100E2000A1F1B1FA81F108430221B1EB601F02D1B7
:100E30008148006A0FE02020010391FAA1F1B1FA84
:100E400081F108430421B1EB601F02D17A48406868
:100E500001E07948406A20210A0392FAA2F2B2FA2C
:100E600082F2114301F01F02012191400840002845
:100E70007CD1012098E7606802283BD12020010541
:100E800091FAA1F1B1FA81F108430121B1EB601FA0
:100E900002D1694800681DE02020010591FAA1F106
:100EA000B1FA81F108430221B1EB601F02D162481F
:100EB000006A0FE02020010591FAA1F1B1FA81F159
:100EC00008430421B1EB601F02D15B48406801E098
:100ED0005948406A20210A0592FAA2F2B2FA82F237
:100EE000114301F01F02012191400840E8BB01209D
:100EF0005AE758E02020022191FAA1F1B1FA81F1DC
:100F000008430121B1EB601F02D14B4800681DE08E
:100F10002020022191FAA1F1B1FA81F108430221C6
:100F2000B1EB601F02D14448006A0FE0202002218B
:100F300091FAA1F1B1FA81F108430421B1EB601FEC
:100F400002D13D48406801E03B48406A202102222E
:100F500092FAA2F2B2FA82F2114301F01F020121C9
:100F60009140084008B901201EE7FFE73248406879
:100F700020F00300616808432F494860FFF71EFE18
:100F8000064608E0FFF71AFE801B41F288318842CE
:100F900001D9032008E72848406800F00C00616888
:100FA000B0EB810FEED12348006800F00700A842A3
:100FB0000ED92048006820F0070028431D4908602A
:100FC0000846006800F00700A84201D00120EBE6C7
:100FD000207800F00400042807D11748406820F466
:100FE000E060E168084314494860207800F0080098
:100FF000082808D11048406820F46050216940EA70
:10100000C1000D49486000F073F80B49496801F0D0
:10101000F001F02292FAA2F2B2FA82F2D140074A2B
:10102000515CC8400649086006480068FFF7ECFDBF
:101030000020B9E60020024000100240506600087F
:1010400028000020200000200F2202600D4A526874
:1010500002F0030242600B4A526802F0F002826022
:10106000084A526802F4E062C260064A526802F41A
:101070006052D2080261044A126802F007020A6054
:101080007047000000100240002002400148006844
:10109000704700002800002000B5FFF7F7FF074960
:1010A000496801F4E0614FF4E06292FAA2F2B2FA08
:1010B00082F2D140024A515CC84000BD001002409B
:1010C0006066000800B5FFF7E1FF0749496801F4D1
:1010D00060514FF4605292FAA2F2B2FA82F2D14019
:1010E000024A515CC84000BD001002406066000822
:1010F0002DE9F0410024002500270026A0461F48C6
:10110000446804F00C0078B3042802D008282CD1DD
:1011100002E0DFF86C802CE004F470104FF47011E2
:1011200091FAA1F1B1FA81F1C84016490E5C134859
:10113000C06A00F00F000F2191FAA1F1B1FA81F11C
:10114000C84011490D5C04F4803040B12A460023A8
:101150000B481946FFF796F8A0FB067102E00B4812
:10116000A0FB0671B84604E000E000BFDFF8108085
:1011700000BF00BF4046BDE8F08100000010024003
:1011800000127A00306600084066000800093D0041
:10119000F8B504460CB90120F8BD207800F0010034
:1011A00000287BD0FA48406800F00C0004280CD0DE
:1011B000F748406800F00C00082845D1F448406822
:1011C00000F48030B0F5803F3ED12020010391FA39
:1011D000A1F1B1FA81F108430121B1EB601F02D105
:1011E000EB4800681DE02020010391FAA1F1B1FA5B
:1011F00081F108430221B1EB601F02D1E448006A8B
:101200000FE02020010391FAA1F1B1FA81F1084326
:101210000421B1EB601F02D1DD48406801E0DC48E9
:10122000406A20210A0392FAA2F2B2FA82F2114332
:1012300001F01F020121914008400028B1D06068F0
:1012400000282BD10120A7E700BF6068B0F5803FE0
:1012500006D1CF48006840F48030CD49086029E0CD
:10126000606858B9CA48006820F48030C8490860EE
:101270000846006820F4802008601BE06068B0F534
:10128000A02F0CD1C248006840F48020C0490860FB
:101290000846006840F4803008600BE0A1E0BC48DC
:1012A000006820F48030BA4908600846006820F4DD
:1012B0008020086000BFB648C06A20F00F00A16817
:1012C0000843B349C8626068A0B3FFF777FC0546DE
:1012D00006E0FFF773FC401B642801D903205BE79D
:1012E0002020010391FAA1F1B1FA81F10843012113
:1012F000B1EB601F02D1A64800681EE02020010368
:1013000091FAA1F1B1FA81F108430221B1EB601F1A
:1013100002D19F48006A10E02020010391FAA1F158
:10132000B1FA81F108430421B1EB601F03D1984861
:10133000406802E010E09648406A20210A0392FAD1
:10134000A2F2B2FA82F2114301F01F020121914090
:1013500008400028BDD044E0FFF730FC054606E019
:10136000FFF72CFC401B642801D9032014E7202040
:10137000010391FAA1F1B1FA81F108430121B1EB26
:10138000601F02D1824800681DE02020010391FA0D
:10139000A1F1B1FA81F108430221B1EB601F02D142
:1013A0007B48006A0FE02020010391FAA1F1B1FA15
:1013B00081F108430421B1EB601F02D174484068F9
:1013C00001E07348406A20210A0392FAA2F2B2FABD
:1013D00082F2114301F01F020121914008400028D0
:1013E000BED1207800F0020002285CD16848406835
:1013F00000F00C0050B16648406800F00C0008286E
:1014000052D16348406800F48030E8BB20200221BC
:1014100091FAA1F1B1FA81F108430121B1EB601F0A
:1014200002D15B4800681DE02020022191FAA1F161
:10143000B1FA81F108430221B1EB601F02D1544897
:10144000006A0FE02020022191FAA1F1B1FA81F1A6
:1014500008430421B1EB601F02D14D48406801E010
:101460004B48406A2021022292FAA2F2B2FA82F29A
:10147000114301F01F0201219140084028B1206969
:10148000012802D0012087E60EE04148006820F0E4
:10149000F800F82292FAA2F2B2FA82F2616991405F
:1014A00008433B490860B1E0206970B3012191FA1B
:1014B000A1F0B0FA80F0374A42F82010FFF77EFB27
:1014C000054606E0FFF77AFB401B022801D90320FE
:1014D00062E62020022191FAA1F1B1FA81F10843DC
:1014E0000121B1EB601F02D1294800681EE02020D5
:1014F000022191FAA1F1B1FA81F108430221B1EB85
:10150000601F03D12248006A10E02CE02020022155
:1015100091FAA1F1B1FA81F108430421B1EB601F06
:1015200002D11B48406801E01948406A202102228C
:1015300092FAA2F2B2FA82F2114301F01F020121E3
:10154000914008400028BDD01148006820F0F80004
:10155000F82292FAA2F2B2FA82F26169914008434B
:101560000B49086052E00020012191FAA1F1B1FA83
:1015700081F1084A42F82100FFF720FB05460BE005
:10158000FFF71CFB401B022806D9032004E60000DD
:1015900000100240000042422020022191FAA1F1F5
:1015A000B1FA81F108430121B1EB601F02D1FB4880
:1015B00000681DE02020022191FAA1F1B1FA81F129
:1015C00008430221B1EB601F02D1F448006A0FE02A
:1015D0002020022191FAA1F1B1FA81F108430421FE
:1015E000B1EB601F02D1ED48406801E0EB48406A72
:1015F0002021022292FAA2F2B2FA82F2114301F001
:101600001F020121914008400028B9D1207800F044
:101610000800082851D1A06980B3012191FAA1F0F6
:10162000B0FA80F0DE4A02EB8000C0F88014FFF7C9
:10163000C5FA054606E0FFF7C1FA401B022801D9AA
:101640000320A9E56020022191FAA1F1B1FA81F10C
:1016500008430121B1EB601F02D1D04800681EE0B1
:101660006020022191FAA1F1B1FA81F1084302212F
:10167000B1EB601F03D1C948006A10E01EE0602092
:10168000022191FAA1F1B1FA81F108430421B1EBF1
:10169000601F02D1C148406801E0C048406A602133
:1016A000022292FAA2F2B2FA82F2114301F01F0270
:1016B0000121914008400028BDD04FE000200121C9
:1016C00091FAA1F1B1FA81F1B54A02EB8101C1F8B9
:1016D0008004FFF773FA054606E0FFF76FFA401B38
:1016E000022801D9032057E56020022191FAA1F1D7
:1016F000B1FA81F108430121B1EB601F02D1A74883
:1017000000681DE06020022191FAA1F1B1FA81F197
:1017100008430221B1EB601F02D1A048006A0FE02C
:101720006020022191FAA1F1B1FA81F1084304216C
:10173000B1EB601F02D19948406801E09748406AC8
:101740006021022292FAA2F2B2FA82F2114301F06F
:101750001F020121914008400028BED1207800F0EE
:101760000400042873D100278C48C06900F0805021
:1017700070B900BF8948C06940F080508749C8618E
:101780000846C06900F08050009000BF00BF0127EC
:101790008448006800F48070B0B98248006840F462
:1017A000807080490860FFF709FA054606E0FFF7F8
:1017B00005FA401B642801D90320EDE4794800684C
:1017C00000F480700028F2D000BFE068012806D144
:1017D0007248006A40F001007049086227E0E06842
:1017E00058B96E48006A20F001006C49086208464A
:1017F000006A20F00400086219E0E06805280BD1B7
:101800006648006A40F00400644908620846006ABD
:1018100040F0010008620AE06048006A20F0010020
:101820005E4908620846006A20F00400086200BFB2
:10183000E068B8B3FFF7C2F9054609E0FFF7BEF963
:10184000401B41F28831884202D90320A4E48BE096
:101850004020022191FAA1F1B1FA81F1084301215E
:10186000B1EB601F02D14D4800681EE0402002210C
:1018700091FAA1F1B1FA81F108430221B1EB601FA5
:1018800002D14648006A10E04020022191FAA1F1FD
:10189000B1FA81F108430421B1EB601F03D13F4845
:1018A000406802E010E03D48406A4021022292FA7E
:1018B000A2F2B2FA82F2114301F01F02012191401B
:1018C00008400028BAD046E0FFF778F9054608E05E
:1018D000FFF774F9401B41F28831884201D9032097
:1018E0005AE44020022191FAA1F1B1FA81F10843B2
:1018F0000121B1EB601F02D1284800681DE04020A3
:10190000022191FAA1F1B1FA81F108430221B1EB70
:10191000601F02D12148006A0FE04020022191FAA5
:10192000A1F1B1FA81F108430421B1EB601F02D1AA
:101930001A48406801E01948406A4021022292FAA0
:10194000A2F2B2FA82F2114301F01F02012191408A
:1019500008400028BCD1012F05D11048C06920F0F3
:1019600080500E49C86100BFE069002874D00B4860
:10197000406800F00C0008286FD0E06902286DD1A3
:1019800000204FF0807191FAA1F1B1FA81F1044A7F
:1019900042F82100FFF712F905460CE00010024062
:1019A0000000424200700040FFF708F9401B022887
:1019B00001D9032047E42020010591FAA1F1B1FAF1
:1019C00081F108430121B1EB601F02D17748006823
:1019D0001DE02020010591FAA1F1B1FA81F108433F
:1019E0000221B1EB601F02D17048006A0FE0202095
:1019F000010591FAA1F1B1FA81F108430421B1EB9B
:101A0000601F02D16948406801E06848406A2021AF
:101A10000A0592FAA2F2B2FA82F2114301F01F0211
:101A20000121914008400028BED1D4E908100843A4
:101A30005E49496821F4741108435C4948600120FB
:101A4000010691FAA1F1B1FA81F1594A42F8210057
:101A5000FFF7B4F8054609E0A5E092E041E0FFF7A2
:101A6000ADF8401B022801D9032038E420200105ED
:101A700091FAA1F1B1FA81F108430121B1EB601FA4
:101A800002D14A4800681DE02020010591FAA1F129
:101A9000B1FA81F108430221B1EB601F02D1434842
:101AA000006A0FE02020010591FAA1F1B1FA81F15D
:101AB00008430421B1EB601F02D13C48406801E0BB
:101AC0003A48406A20210A0592FAA2F2B2FA82F25A
:101AD000114301F01F020121914008400028BED0AF
:101AE00061E000204FF0807191FAA1F1B1FA81F12B
:101AF0002F4A42F82100FFF761F8054606E0FFF79C
:101B00005DF8401B022801D903202FE420200105A5
:101B100091FAA1F1B1FA81F108430121B1EB601F03
:101B200002D1224800681DE02020010591FAA1F1B0
:101B3000B1FA81F108430221B1EB601F02D11B48C9
:101B4000006A0FE02020010591FAA1F1B1FA81F1BC
:101B500008430421B1EB601F02D11448406801E042
:101B60001248406A20210A0592FAA2F2B2FA82F2E1
:101B7000114301F01F020121914008400028BED10D
:101B800011E0E069012800D17DE40848466806F4C8
:101B90008031206A814204D106F47011606A81426A
:101BA00001D001206FE400206DE40000001002402D
:101BB0000000424270477047704710B504460CB9A8
:101BC000012010BD94F83D0028B9002084F83C00A5
:101BD000204600F029F8022084F83D00211D2068ED
:101BE00000F0F0FC012084F8480000BF84F83E00BB
:101BF00001213F200155402001554120015542203F
:101C000001554320015500BF00BF012084F8440066
:101C100045200155462001554720015500BF0120B0
:101C200084F83D000020CCE770470000014691F8A1
:101C30003D00012801D001207047022081F83D00BD
:101C40000868C06840F001000B68D860124B086853
:101C5000984207D00868B0F1804F03D00F4B086856
:101C6000984210D1086880680D4B00EA0302062AEA
:101C70000FD0B2F5803F0CD00868006840F001003A
:101C80000B68186005E00868006840F001000B6808
:101C900018600020D0E70000002C01400040014007
:101CA00007000100704710B5044620680069C0F3C2
:101CB0004000D8B12068C068C0F34000B0B16FF0F8
:101CC000020021680861012020772068806900F007
:101CD000030018B12046FFF7E5FF05E0204600F0BD
:101CE000BEF8204600F0BCF800202077206800698C
:101CF000C0F38000D8B12068C068C0F38000B0B1E4
:101D00006FF0040021680861022020772068806954
:101D100000F4407018B12046FFF7C4FF05E02046EC
:101D200000F09DF8204600F09BF800202077206806
:101D30000069C0F3C000D8B12068C068C0F3C0001B
:101D4000B0B16FF008002168086104202077206896
:101D5000C06900F0030018B12046FFF7A3FF05E0BB
:101D6000204600F07CF8204600F07AF8002020772A
:101D700020680069C0F30010D8B12068C068C0F3C3
:101D80000010B0B16FF010002168086108202077C2
:101D90002068C06900F4407018B12046FFF782FF48
:101DA00005E0204600F05BF8204600F059F80020DE
:101DB00020772068006900F0010058B12068C068F1
:101DC00000F0010030B16FF0010021680861204689
:101DD00000F048F820680069C0F3C01058B12068CE
:101DE000C068C0F3C01030B16FF080002168086196
:101DF0002046FFF7E0FE20680069C0F3002058B1DC
:101E00002068C068C0F3C01030B16FF480702168E2
:101E100008612046FFF7CEFE20680069C0F38010FD
:101E200058B12068C068C0F3801030B16FF0400036
:101E300021680861204600F021F820680069C0F39D
:101E4000401058B12068C068C0F3401030B16FF046
:101E50002000216808612046FFF7AEFE10BD7047E4
:101E60007047000010B5044603492068884201D13C
:101E7000FEF7AAFE10BD0000002C0140704770471D
:101E8000704770472DE9F04704462068C56920680F
:101E900006682068876840F60F0005EA0009B9F176
:101EA000000F0CD105F0200048B106F0200030B141
:101EB000606E10B12046616E8847BDE8F087B9F1C9
:101EC000000F7DD007F0010018B9BD483040002850
:101ED000F7D005F0010058B106F4807040B1012040
:101EE00021680862D4F8800040F00100C4F8800046
:101EF00005F0020058B107F0010040B1022021684E
:101F00000862D4F8800040F00400C4F8800005F0B6
:101F1000040058B107F0010040B1042021680862B4
:101F2000D4F8800040F00200C4F8800005F00800FA
:101F300070B106F0200010B907F0010040B1082090
:101F400021680862D4F8800040F00800C4F88000DE
:101F500005F4006060B106F0806048B14FF40060A5
:101F600021680862D4F8800040F02000C4F88000A6
:101F7000D4F8800000284BD005F0200038B106F0DE
:101F8000200020B1606E10B12046616E8847D4F801
:101F900080A02068806800F04000402802D00AF04D
:101FA000280070B3204600F010FC2068806800F024
:101FB0004000402821D100BF00BF2168083100E067
:101FC00027E051E8001F21F040002168083141E876
:101FD0000002002AF1D100BF206F50B17948216F73
:101FE0004863206FFEF7DFFC90B1206F416B88479C
:101FF0000EE02046FFF745FF0AE02046FFF741FFCD
:1020000006E0FFE72046FFF73CFF0020C4F8800011
:1020100053E7206E01287DD105F01000002879D00B
:1020200006F010000028FAD010202168086220680D
:10203000806800F0400040285AD1206F0068406856
:102040001FFA80F8B8F1000F51D0B4F8580040459D
:102050004DDDA4F85A80206F806920283ED000BF53
:1020600000BF216851E8001F21F48070226842E817
:1020700000010029F5D100BF00BF00BF2168083171
:1020800051E8001F21F001002168083141E80002F9
:10209000002AF3D100BF00BF00BF2168083151E81A
:1020A000001F21F040002168083141E80002002AA9
:1020B000F3D100BF2020E0670020206600BF00BFF2
:1020C000216851E8001F21F01000226842E8000159
:1020D0000029F5D100BF206FFEF73BFCB4F8580093
:1020E000B4F85A20801A81B22046FFF7C8FEE4E611
:1020F00034F8580F6188401A1FFA80F86088583CFD
:10210000B0B3B8F1000F33D000BF00BF216851E871
:10211000001F00E02DE021F49070226842E80001E9
:102120000029F3D100BF00BF00BF2168083151E88A
:10213000001F21F001002168083141E80002002A57
:10214000F3D100BF2020E06700202066606600BF5A
:1021500000BF216851E8001F21F01000226842E80A
:1021600000010029F5D100BF41462046FFF787FE58
:10217000A3E605F4801050B107F4800038B14FF4A5
:102180008010216808622046FFF77AFE95E605F088
:10219000800040B106F0800028B1A06E10B120464A
:1021A000A16E884789E605F0400030B106F0400096
:1021B00018B1204600F03BFB7FE600BF7DE6000043
:1021C00020010004B327000810B504460CB9012013
:1021D00010BDA06900B100E000BFA06F28B90020C9
:1021E00084F87400204600F029F82420A0672068B5
:1021F000006820F0010021680860204600F0F8FB2C
:10220000012800D1E4E7606A10B1204600F01CFA12
:102210002068406820F49040216848602068806809
:1022200020F02A00216888602068006840F00100E2
:1022300021680860204600F083FAC9E710B586B02F
:102240000446142101A8FEF777F81B49206888424C
:1022500030D100BF1948C06940F400301749C86147
:102260000846C06900F40030009000BF00BF00BF06
:102270000846406940F4003048610846406900F46F
:102280000030009000BF00BF0C200190022002909F
:102290000020039004900720059001A94FF0904082
:1022A000FEF7AEFB002205212620FEF725FD2620A5
:1022B000FEF712FD06B010BD0044004000100240C1
:1022C00070B504460D461646E06F202828D105B1AA
:1022D0000EB9012070BD00BF94F87400012801D12F
:1022E0000220F7E7012084F8740000BF0020206678
:1022F0002068406800F4000060B100BF00BF2168A2
:1023000051E8001F41F08060226842E80001002986
:10231000F5D100BF32462946204600F041FCD9E7FE
:102320000220D7E710B50446044800F05FFE012202
:1023300003490448FFF7C4FF10BD000094010020CA
:102340000C000020B00000202DE9F84F04460E4696
:1023500017469946A06F20285DD106B117B9012014
:10236000BDE8F88F00BF94F87400012801D1022065
:10237000F6E7012084F8740000BF00205034206389
:102380002120A062FEF71AFC824627806780503C1D
:10239000A068B0F5805F04D1206910B90025B0466F
:1023A00002E035464FF0000800BF002084F87400BA
:1023B00000BF1DE05346002280212046CDF800904A
:1023C00000F05CFC08B10320CAE745B9B8F800008A
:1023D000C0F308002168088508F1020803E02878A6
:1023E000216808856D1CB4F85200401EA4F8520004
:1023F000B4F852000028DDD1534600224021204687
:10240000CDF8009000F03AFC08B10320A8E72020A6
:10241000A0670020A4E70220A2E7704700BFFEE704
:1024200000BF024800F06CFDFBE7000080010020C7
:1024300010B50A4A00210A4801F084FF09490860E2
:10244000094A0021094801F07DFF0949086009484F
:1024500001F07AFE0849086010BD0000D865000848
:102460002124000800000020FC650008852D0008DC
:1024700004000020206600080800002000B587B096
:10248000142102A8FDF758FF00BF2448406940F41A
:102490000020224948610846406900F4002001906C
:1024A00000BF00BF00BF0846406940F4800048619B
:1024B0000846406900F48000019000BF00BF00BFE3
:1024C0000846406940F4003048610846406900F41D
:1024D0000030019000BF00BF00BF0846406940F4D3
:1024E000802048610846406900F48020019000BFC8
:1024F00000BF00224FF400510948FEF759FB4FF48A
:10250000005002900120039000200490059002A941
:102510000348FEF775FA07B000BD00000010024046
:102520000004004810B50D480D4908604FF4E13033
:10253000486000210A488160C16001610C2141614D
:1025400000218161C161016200200549486208469D
:10255000FFF73AFE08B1FEF7F9F910BD004400405C
:10256000B000002000BFFEE700BFFEE710B500BFCF
:10257000502080F31188BFF34F8FBFF36F8F00BFE0
:1025800003F0FAFD18B14FF080500449086000BF15
:10259000002080F3118800BF10BD000004ED00E0B2
:1025A0000348006840F4700001490860704700006B
:1025B00088ED00E010B50248FFF775FB10BD000084
:1025C0003401002010B502681B4B984202D0B0F1D4
:1025D000804F03D122F070024B681A43164B984289
:1025E0000BD0B0F1804F08D0144B984205D0144B5B
:1025F000984202D0134B984203D122F44072CB6828
:102600001A4322F080034C6943EA040202608B689B
:10261000C3620B688362084B984208D0074B98420C
:1026200005D0074B984202D0064B984201D10B6966
:1026300003630123436110BD002C014000400140B1
:10264000004401400048014090F8241001F00101CD
:1026500039B10168496821F40031826A1143026886
:10266000516090F8241001F00201022907D101689D
:10267000496821F48031C26A11430268516090F8C0
:10268000241001F00401042907D10168496821F4EC
:102690008021026B11430268516090F8241001F010
:1026A0000801082907D10168496821F40041426BFB
:1026B00011430268516090F8241001F010011029B4
:1026C00007D10168896821F48051826B1143026847
:1026D000916090F8241001F02001202907D10168B1
:1026E000896821F40051C26B11430268916090F82F
:1026F000241001F04001402913D10168496821F4F8
:102700008011026C114302685160016CB1F5801FA9
:1027100007D10168496821F4C001426C1143026885
:10272000516090F8241001F08001802907D10168E0
:10273000496821F40021826C11430268516070479E
:1027400038B504460020C4F88000FEF737FA054685
:102750002068006800F0080008280CD16FF07E4067
:102760002B4600224FF400110090204600F086FA1C
:1027700008B1032038BD2068006800F00400042878
:102780000CD16FF07E402B4600224FF48001009068
:10279000204600F073FA08B10320EBE72020A06781
:1027A000E0670020206600BF84F8740000BF00BF0F
:1027B000E0E770B505466C6A0020A4F85A00A4F85A
:1027C00052002046FFF75DFB70BD00BF00BF0268EE
:1027D00052E8002F22F49071036843E80012002AA7
:1027E000F5D100BF00BF00BF0268083252E8002FD9
:1027F00022F001010268083242E80013002BF3D1F5
:1028000000BF016E01290CD100BF00BF026852E871
:10281000002F22F01001036843E80012002AF5D1CE
:1028200000BF2021C167002101664166704710B5D5
:10283000044600BF00BF216851E8001F21F040009E
:10284000226842E800010029F5D100BF2020A067DE
:102850000020A0662046FFF7E0FD10BD2DE9F04105
:102860000446B4F85C70E06F222855D12068868C4D
:10287000656D06EA07002880606D801C6065B4F80D
:102880005A00401EA4F85A00B4F85A00002849D152
:1028900000BF00BF216851E8001F21F4907022683A
:1028A00042E800010029F5D100BF00BF00BF216848
:1028B000083151E8001F21F001002168083141E88A
:1028C0000002002AF3D100BF2020E06700206066EC
:1028D000206E01281CD10020206600BF00BF2168A7
:1028E00051E8001F21F01000226842E80001002991
:1028F000F5D100BF2068C069C0F3001010B11020EE
:1029000021680862B4F858102046FFF7B8FA09E0C9
:102910002046FFF707FD05E02068806940F00800C9
:1029200021688861BDE8F08170B50446B4F85C6048
:10293000E06F222855D12068858CF0B22840616D67
:102940000870606D401C6065B4F85A00401EA4F821
:102950005A00B4F85A00002849D100BF00BF2168CE
:1029600051E8001F21F49070226842E8000100291C
:10297000F5D100BF00BF00BF2168083151E8001F3A
:1029800021F001002168083141E80002002AF3D15A
:1029900000BF2020E06700206066206E01281CD167
:1029A0000020206600BF00BF216851E8001F21F011
:1029B0001000226842E800010029F5D100BF20681C
:1029C000C069C0F3001010B1102021680862B4F88B
:1029D00058102046FFF753FA09E02046FFF7A2FC03
:1029E00005E02068806940F008002168886170BDBA
:1029F0002DE9F04704464FF0000A2169A06808431A
:102A000061690843E16940EA0108206800685E499D
:102A1000084040EA0800216808602068406820F407
:102A20004050E168084321684860D4F81880206A63
:102A300040EA08082068806820F4306040EA080016
:102A40002168886000BF51492068884216D15048EB
:102A5000006B00F0030030B1012808D0022808D034
:102A6000032808D101E0002607E0022605E004263D
:102A700003E0082601E0102600BF0CE0454920686D
:102A8000884201D1002606E043492068884201D1EE
:102A9000002600E0102600BFE069B0F5004F3AD1F3
:102AA000092E17D2DFE806F005090D160F161616C7
:102AB0001300FEF7F1FA054610E0FEF703FB0546AA
:102AC0000CE0364D0AE0FEF713FB054606E04FF436
:102AD000004503E000254FF0010A00BF00BF8DB3A1
:102AE0006800616800EB5100B0FBF1F087B2102F75
:102AF0000ED3B7F5803F0BD24FF6F07007EA00090E
:102B0000C7F3420049EA00092068C0F80C9034E09D
:102B10004FF0010A31E0092E18D2DFE806F005096E
:102B20000D170F1717171400FEF7B6FA054611E038
:102B3000FEF7C8FA05460DE0184D0BE0FEF7D8FA8F
:102B4000054607E019E04FF4004503E000254FF08B
:102B5000010A00BF00BF85B1606805EB50006168E5
:102B6000B0FBF1F087B2102F05D3B7F5803F02D24A
:102B70002068C76001E04FF0010A00206066A0668F
:102B80005046BDE8F0870000F369FFEF00380140D0
:102B900000100240004400400048004000127A004B
:102BA00030B503465965A3F85820A3F85A200020F1
:102BB000586600BF9868B0F5805F0AD1186920B9DF
:102BC00040F2FF10A3F85C0020E0FF20A3F85C00B7
:102BD0001CE0986848B9186918B9FF20A3F85C0090
:102BE00014E07F20A3F85C0010E09868B0F1805FEB
:102BF00009D1186918B97F20A3F85C0006E03F20CE
:102C0000A3F85C0002E00020A3F85C0000BF0020F5
:102C1000C3F880002220D86700BF00BF1C680834BA
:102C200054E8004F44F001001C68083444E80005F3
:102C3000002DF3D100BF9868B0F5805F04D118690A
:102C400010B90C48586601E00B48586600BF0020D8
:102C500083F8740000BF00BF00BF1C6854E8004F39
:102C600044F490701D6845E80004002CF5D100BFC5
:102C7000002030BD5D280008292900082DE9F04119
:102C800004460D4617469846069E67E0701C0028CD
:102C900064D0FDF793FFA0EB0800B04200D836BB2C
:102CA00000BF00BF216851E8001F21F4D0702268E6
:102CB00042E800010029F5D100BF00BF00BF216834
:102CC000083151E8001F21F001002168083141E876
:102CD0000002002AF3D100BF2020A067E06700BFF8
:102CE000002084F8740000BF0320BDE8F081206854
:102CF000006800F0040080B32068C069C0F3C02001
:102D000058B34FF400602168086200BF00BF21681B
:102D100051E8001F21F4D070226842E80001002928
:102D2000F5D100BF00BF00BF2168083151E8001F86
:102D300021F001002168083141E80002002AF3D1A6
:102D400000BF2020A067E067C4F8800000BF00201B
:102D500084F8740000BF0320C7E7FFE72068C0695C
:102D60002840A84201D1012000E00020B8428DD0C7
:102D70000020BAE710B50248FFF784F810BD000044
:102D8000B000002000BF4FF0FF330122114605487C
:102D9000006801F043FA044800F0CEF8012001F089
:102DA000B7F9F0E7080000209401002000BFFEE71B
:102DB0002DE9F0472DED0E8B05460E464FF000092C
:102DC0000027741E32E09FED1D8BB8464046FDF78C
:102DD00002FC41EC1E0BB0EE4E1AF0EE6E1AB0EE95
:102DE000480AF0EE680A00F033FAB0EE40CAF0EE9E
:102DF00060CA295DA1F13000FDF7EDFB41EC1D0B30
:102E000053EC1C2BFDF775FB41EC1A0B4846FDF704
:102E1000F3FB41EC1B0B53EC1A2BFDF7C3FA41EC0F
:102E2000190BFDF7F6FB81467F1C641E002CCADAE5
:102E30004846BDEC0E8BBDE8F087000000000000A6
:102E40000000244002460B46002108E0505C302878
:102E500002DB505C392801DD01207047491C994292
:102E6000F4DB0020F9E700B58FB0282105A8FDF7B5
:102E700063FA14216846FDF75FFA022005900120ED
:102E8000099010200A9002200C9000210D914FF41F
:102E900060110E9105A8FEF77BF908B1FDF756FD0C
:102EA0000F20009002200190002002904FF48060DB
:102EB00003900020049002216846FDF76FFF08B1DF
:102EC000FDF744FD0FB000BD10B50446E068026890
:102ED000116888476168206903689A68904710BD47
:102EE00010B50446E068026851688847A168206907
:102EF00003689A68904710BD4160704781607047D1
:102F000010B504462046FFF7DFFF2046FFF7E8FF35
:102F100010BD000010B5054B054C036018CCC0E98E
:102F20000134044B0360C160026110BD30670008CA
:102F30007C6600082067000870B504466068026877
:102F40005168884720210A5D206801680A238D683E
:102F500004F11001A84770BD70B504462020025D41
:102F60001AA104F11000FDF7FEF9C5B225B9012040
:102F700084F82100002070BD2020025D15A104F11D
:102F80001000FDF7F0F9C5B21DB9002084F821004A
:102F9000F1E7062211A104F11000FDF7E4F9C5B232
:102FA00025B9022084F821000020E4E707220DA1C2
:102FB00004F11000FDF7D7F9C5B225B9032084F854
:102FC00021000020D7E70120D5E7000073746F705F
:102FD0000000000073746172740000006C65646F1F
:102FE0006E3D00006C65646F66663D0010B504467A
:102FF000E06800780A282DD11D480178202001556D
:103000002046FFF7A9FFD0B994F8210030B101287C
:1030100008D002280AD0032810D10BE0204600F087
:103020005BF80BE0204600F025F807E0204600F0B2
:1030300033F803E0204600F053F800BF00BF94F8D7
:10304000220018B9606802681168884700200849A2
:1030500008800BE0E068017804F11000044A12884F
:10306000815403480088401C0149088010BD0000BD
:10307000A800002010B50446012084F82200A068B2
:1030800001684A684FF47A719047A06801680A683D
:103090004FF47A71904710BDFEB5044600262020FB
:1030A000005D801F85B22A4604F116016846FDF7CF
:1030B0004EF9E9B26846FFF7C5FE08B10120FEBD32
:1030C000E9B26846FFF774FE0646A06801680A6820
:1030D000314690470020F2E7002180F82210704727
:1030E000FEB5044600262020005DC01F85B22A469A
:1030F00004F117016846FDF72AF9E9B26846FFF7BF
:10310000A1FE08B10120FEBDE9B26846FFF750FEFE
:103110000646A06801684A683146904700BFF2E75A
:103120002DE9F04104460D4616461F46DDF818808D
:103130001122084904F11000FDF7E5F8002084F899
:103140002200E76025606660C4F808802046BDE87C
:10315000F08100006866000810B5044601225103A2
:103160000148FDF725FD10BD0004004810B50446D8
:1031700000224FF400510248FDF71AFD10BD000077
:10318000000400482DE9F04107460C4615461E464E
:1031900033462A4621460248FFF7D6F8BDE8F081BB
:1031A000B000002070B505460C46204600F0B0FF88
:1031B00070BD000010B5044601210248006800F00F
:1031C000F3FF10BD08000020704703B401984100D0
:1031D000009850EAC12018BF04204A0D18BF40F0E3
:1031E000010040F2FF72B2EB515F08BF40F00200F5
:1031F000012808BF052002B070470000024800689F
:10320000C0F30220704700000CED00E010B500286C
:1032100004DB0A07130E054A135406E00A07140ECE
:10322000034A00F00F031B1FD45410BD00E400E05C
:1032300018ED00E00020FDF726BAEFF3118070478B
:10324000EFF305807047EFF3108070470000000037
:103250002DE9F04D2DED040B2DED0E8B96B0DDE933
:103260002550279CDDF890A025F0004624F000486A
:10327000BAF1000F14BF0121002101EB4502FC4906
:1032800053184A1093422AD3002814BF0123002365
:1032900003EB44030B44F7498B4220D358EA000167
:1032A0009FEDF59B76D0DFF8D8B35D4503D1BAF139
:1032B000000F05D188E0BAF1000F08BF002100D04F
:1032C000012101EB450111F5001F08D8002814BFAA
:1032D0000121002101EB440111F5001F0BD99DEDE7
:1032E000261B9DED240B16B0BDEC0E8B04B0BDE883
:1032F000F04D00F069BE0027002DBCBFE1498845B4
:1033000021DAE1498845A8BF02271CDAC3451ADC47
:10331000DE4901EB2851142908DDC1F1340220FAFD
:1033200002F101FA02F282420DD108E058B9C1F16E
:10333000140228FA02F101FA02F2424503D101F027
:103340000101C1F1020756EA0A0124D1002C22DA58
:10335000002D18BF022F01D0012F0AD0022000F04B
:103360007FFE16B0BDEC0E8B04B0BDE8F04D00F052
:1033700013BE022000F074FE00F00EFE51EC100BA4
:1033800081F0004141EC100B16B0BDEC0E8B04B087
:10339000BDE8F08D18E09FEDBEAB9FEDBF8B002820
:1033A00071D1B848804522D105F1804010F58010D8
:1033B00008BFBAF1000F07D0B3450ADC002CA8BF44
:1033C0009DED260BE0DA0DE0B0EE490AF0EE690A59
:1033D000DAE7002C06DA9DED260B51EC100B81F09C
:1033E00000416FE0AE48784490ED000BCCE7D84543
:1033F0004DD1002C48DA2EB186423AD1BAF1000FF5
:1034000042D126E0BAF1000F13D0022000F028FECE
:1034100000F0F6FD8DED020B9DED240B8DED000B04
:1034200010EE900A039961F31E0003909DED020BCC
:10343000AAE78DED02AB9DED240B1AEE901A10EE6B
:10344000900A8DED000B61F31E0003909DED020BC1
:103450009AE78DED028B9DED240B18EE901A10EE7D
:10346000900A8DED000B61F31E0003909DED020BA1
:103470008AE709DA9DED240B51EC190B53EC102B64
:10348000FDF75FF91EE020E09DED240B7CE786420E
:103490001BDAB4F1804F0DD0A4F10050B0F1FF5011
:1034A00013D1002D11DB9DED240B51EC100B01F01D
:1034B0004DFD07E09DED240B53EC102B51EC100B50
:1034C00000F0C2BC41EC100B5EE79DED240B51EC0B
:1034D000100B00F0F7FDBAF1000FCDE90E0142D15B
:1034E0009FED710B46B3A6F1E040B0F17F600CD0C8
:1034F0005E4538D1002D00DAA7B3022F0CBF0120A2
:103500004FF0FF30FDF767F8DCE7002D01DD002C00
:103510000DDA002D01DD002C1FDB002D16DA002C4A
:1035200014DB012F08BF9FED620B3FF42DAFB0EE0F
:103530004A0AF0EE6A0A27E7022F18BF002D0CD0C6
:10354000012F0AD1002DFFF61FAF06E0002DB8BFF6
:10355000002C08DA012F3FF417AFB0EE480AF0EE66
:10356000680A11E71BE0012000EBE57050EA070153
:1035700015D0791EB0EE498AF0EE698A084308BF7B
:103580009FED4D8B4E480025804570DD4D494E48DE
:10359000884514DDB0420DDB002C19DB2FE0012043
:1035A00000F05EFD16B0BDEC0E8B04B0BDE8F04D32
:1035B00000F016BDB34502DC002C09DC1FE086429A
:1035C00002DA002C1BDA03E05E452BDD002C16DD51
:1035D000022000F045FD00F013FD8DED020B53ECD1
:1035E0001A2B51EC180BFCF784FFCDE9000103996D
:1035F000019861F31E0003909DED020BC4E60220CA
:1036000000F02EFD00F00CFD10EE901A18EE900A5E
:103610008DED020B8DED008B61F31E0003909DED8F
:10362000020BB1E69DED0E0B53EC192B51EC100B78
:10363000FCF759FF9FED260BCDE9080153EC102B49
:103640009DED080B51EC100BFCF753FF9FED221B77
:1036500053EC112BFCF74AFF9DED081B53EC112B8B
:10366000FCF747FF9FED1E1B53EC112B3CE08CE059
:10367000FFFF1F00FFFF0F00000000000000F03FF1
:103680000000F03F0000F07F0000404301FCFFFF1E
:10369000000000000000F07F0000000000000000BB
:1036A0002633000000000000000000000000008041
:1036B000000000000000F0FF000000000000F0BF6C
:1036C0000000E0410000F043FFFFEF3F000000007A
:1036D000000000000000D03F555555555555D53FC9
:1036E000000000000000E03FFCF700FF9DED080B2C
:1036F00041EC1A0B53EC102B51EC100BFCF7F9FEBC
:1037000053EC1A2BFCF7F5FE41EC1A0B9FEDFE0B68
:1037100053EC102B9DED080B51EC100BFCF7E9FE60
:1037200041EC1B0B9FEDFA0B51EC1A0B53EC102BD9
:10373000FCF7DFFE41EC1A0B9FEDF70B53EC102B5F
:103740009DED080B51EC100BFCF7D3FE53EC1A2B3C
:10375000FCF7C9FE41EC1A0B51EC1B0B53EC1A2B76
:10376000FCF720FE0690CDE906519DED060B53ECCB
:103770001B2B51EC100BFCF7B6FE53EC1A2BFCF78D
:10378000B5FE41EC100B00F0A1B90020B6F5801F8A
:103790000EDA9FEDE30B53EC102B9DED0E0B51EC6D
:1037A000100BFCF7A6FECDE90E016FF034000E46BB
:1037B00000EB2650A0F2FF37C6F31300DA4940F0C1
:1037C0007F6646F040568842D8BF002408DDD749BE
:1037D0008142C8BF012403DC0024A6F580167F1CAB
:1037E000D348784400EBC4000F9690ED00CB9DEDDC
:1037F0000E0B53EC1C2B51EC100BFCF774FE9DEDE3
:103800000E0B41EC1B0B53EC1C2B51EC100BFCF77B
:10381000C9FD41EC100B51EC190B53EC102BFCF7CC
:1038200090FF41EC1D0B51EC1B0B53EC1D2BFCF7D7
:1038300060FE41EC1A0BBF488DED10AB784410953B
:1038400090ED000B4FF0005040EA660000EB844022
:103850008DED080B00F5002009909DED080B53EC51
:103860001C2B51EC100BFCF73EFE9DED0E1B53EC98
:10387000112BFCF73BFE41EC100B53EC102B9DED94
:10388000100B51EC100BFCF734FE9DED080B41ECD6
:103890001C0B53EC102B9DED100B51EC100BFCF797
:1038A00028FE53EC1B2BFCF721FE53EC1C2BFCF7E2
:1038B0001AFE53EC1D2BFCF71CFE41EC1C0B53ECC9
:1038C0001A2B51EC1A0BFCF714FE41EC1B0B9A4817
:1038D0000621B0EE4B0AF0EE6B0A784400F0E0FAF5
:1038E000B0EE401AF0EE601AB0EE41DAF0EE61DAB6
:1038F00053EC1B2B51EC1B0BFCF7FBFD53EC1D2B6E
:10390000FCF7F7FD9DED100B41EC1B0B53EC1A2B54
:1039100051EC100BFCF746FD53EC1C2BFCF7E9FDBA
:1039200053EC1B2BFCF73EFD9DED100B41EC1B0BEC
:1039300053EC102B51EC100BFCF7DBFD41EC1D0B95
:103940009FED7FEB53EC1E2BFCF72CFD53EC1B2B58
:10395000FCF728FD0890CDE908519DED080B53ECCC
:103960001E2B51EC100BFCF7BEFD53EC1D2BFCF78E
:10397000BAFD53EC1B2BFCF7B9FD9DED080B41EC98
:103980001D0B53EC102B9DED100B51EC100BFCF7A5
:10399000B0FD41EC1B0B53EC1A2B51EC1D0BFCF74B
:1039A000A8FD9DED080B41EC1A0B53EC102B51ECCC
:1039B0001C0BFCF79EFD53EC1A2BFCF7F3FC41ECBF
:1039C0001A0B51EC1B0B53EC1A2BFCF7EBFC0C9075
:1039D000CDE90C519DED0C0B53EC1B2B51EC100B56
:1039E000FCF781FD53EC1A2BFCF780FD41EC1B0B1F
:1039F0009FED550B53EC102B9DED0C0B51EC100B68
:103A0000FCF777FD41EC1A0B9FED510B51EC1B0BB2
:103A100053EC102BFCF76DFD41EC1B0B9FED4E0B97
:103A200053EC102B9DED0C0B51EC100BFCF761FDD2
:103A300053EC1B2BFCF7B6FC41EC100B48487844C8
:103A400000EBC40090ED001B51EC100B53EC112B5C
:103A5000FCF7A8FC41EC1B0B3846FCF7BCFDCDE99C
:103A6000080153EC1B2B51EC1A0BFCF79BFC41ECAF
:103A7000100B3C48784400EBC40090ED00CB51ECB7
:103A8000100B53EC1C2BFCF78DFC9DED081B53EC2D
:103A9000112BFCF787FC0690CDE906519DED080B34
:103AA00053EC102B9DED060B51EC100BFCF71BFD9E
:103AB00053EC1C2BFCF717FD53EC1A2BFCF713FDF2
:103AC00053EC1B2BFCF712FD41EC100B9DED261B5C
:103AD00053EC102B8DED001B00959DED260B51EC4A
:103AE000100BFCF706FD9DED000B41EC1A0B53EC9F
:103AF000102B9DED260B51EC100BFCF7F4FC9DED0B
:103B0000061B53EC112B2FE0000000604715F73F18
:103B1000FE822B654715F73F44DF5DF80BAE543E40
:103B200000000000000040438E9803007AB60B00AE
:103B3000A22E0000D02E0000DA2D000000000000B0
:103B40000000000000000840000000E009C7EE3F50
:103B5000FD033ADC09C7EE3FF5015B14E02F3EBEE2
:103B6000662C0000202C0000FCF7C3FC53EC1A2B41
:103B7000FCF718FC9DED060B41EC1A0B53EC102BD7
:103B80009DED000B51EC100BFCF7B3FCCDE90C01E3
:103B90009DED0C0B51EC1A0B53EC102BFCF702FCB7
:103BA000CDE902010C46AA498C422FDB611A084379
:103BB00018D19DED0C0B53EC102B9DED020B51EC2D
:103BC000100BFCF790FC41EC1B0B9FEDA30B51EC91
:103BD0001A0B53EC102BFCF7E5FB53EC1B2BFCF7FB
:103BE00037FE2DD2022000F03BFA00F009FA10EE69
:103BF000901A18EE900A8DED020B8DED008B61F39B
:103C00001E0003909DED020BFFF7BEBB944A24F00B
:103C10000041914214D39349214408437FF4EFAC0F
:103C20009DED0C0B53EC102B9DED020B51EC100B8A
:103C3000FCF759FC53EC1A2BFCF70AFE7FF6DFACBD
:103C400024F000408849894A002601EB2051824235
:103C50002BDA481C4FF4801121FA00F02044844AEA
:103C6000C0F30A517A44A1F2FF3192ED000B814A70
:103C70008DED080BCA4020EA0202C0F3130040F4A5
:103C80008010C1F1140120FA01F60992002CB8BF8E
:103C900076429DED080B53EC102B9DED0C0B51EC77
:103CA000100BFCF720FCCDE90C019DED0C0B51EC49
:103CB0001A0B53EC102BFCF775FB9FED6F0B089064
:103CC000CDE9085153EC102B9DED080B51EC100B76
:103CD000FCF70FFC41EC1B0B9FED690B53EC102B19
:103CE0009DED080B51EC100BFCF703FC9DED0C0B4C
:103CF00041EC1C0B53EC102B9DED080B51EC100B01
:103D0000FCF7F1FB53EC1A2BFCF7F0FB9FED5E1B6D
:103D100053EC112BFCF7EDFB53EC1C2BFCF742FB97
:103D200041EC1A0B51EC1B0B53EC1A2BFCF73AFB32
:103D3000CDE902019DED020B53EC1B2B51EC100B56
:103D4000FCF7D1FB53EC1A2BFCF7D0FB9DED020BDB
:103D500041EC1A0B53EC102B51EC100BFCF7C9FB88
:103D6000CDE908014A489DED080B0521784400F093
:103D700097F89DED081B51EC100B53EC112BFCF741
:103D8000B8FB9DED021B53EC112BFCF7AFFBCDE90B
:103D900006019DED020B53EC1A2B51EC100BFCF7B6
:103DA000A8FB53EC1A2BFCF7FDFA9FED3B0B41EC03
:103DB0001A0B53EC102B9DED060B51EC100BFCF77E
:103DC00092FB9DED060B41EC1B0B53EC102B9DED74
:103DD000020B51EC100BFCF78CFB53EC1B2BFCF78C
:103DE000B0FC53EC1A2BFCF77EFB9DED021B53EC51
:103DF000112BFCF778FB53EC192BFCF777FBCDE983
:103E0000020101EB065001150029C8BF039015DC23
:103E10009DED020B324651EC100BFCF701FDFFF754
:103E2000D4F9042808BF00F0FBF832469DED020BE0
:103E300051EC100BFCF7F4FCCDE902019DED020BF7
:103E400051EC180B53EC102BFCF753FBFFF73ABB6C
:103E50000000904000000000FE822B654715973C53
:103E600000CC904000346F3F01FCFFFF0000E03FBA
:103E7000A82A0000FFFF0F0000000000432EE63FCD
:103E8000396CA80C615C20BEEF39FAFE422EE63F89
:103E90007829000000000000000000000000004041
:103EA00070B504462DED028B4D1E00EBC500B0EE43
:103EB000408AF0EE608A90ED000B35F0060017D0D6
:103EC00053EC182B51EC100BFCF713FB41EC100BCF
:103ED0006D1E04EBC50090ED001B51EC100B53EC74
:103EE000112BFCF75FFA41EC100B35F00600E7D11F
:103EF000022D36D0042D1CD0062D1CBFBDEC028B2C
:103F000070BD53EC182B51EC100BFCF7F2FA94ED4A
:103F10000A1B53EC112BFCF745FA53EC182BFCF75A
:103F2000E8FA94ED081B53EC112BFCF73BFA41EC3B
:103F3000100B53EC182B51EC100BFCF7DAFA94ED44
:103F4000061B53EC112BFCF72DFA53EC182BFCF746
:103F5000D0FA94ED040B53EC102BFCF723FA41EC50
:103F6000100B53EC182B51EC100BFCF7C2FA94ED2C
:103F7000021B53EC112BFCF715FA53EC182BFCF732
:103F8000B8FA94ED001B53EC112BFCF70BFABDECC7
:103F9000028B41EC100B70BD9FED070B10B553EC7D
:103FA000102B9FED070B51EC100BFCF7CAFB41ECFB
:103FB000100B10BD00000000000000000000000019
:103FC000000000000000F03F10B553EC112B51EC45
:103FD000100BFCF7E7F941EC100B10BD00000000DE
:103FE0009FED050B10B553EC102B51EC100BFCF7AB
:103FF000A8FB41EC100B10BD000000000000000009
:104000009FED050B10B553EC102B51EC100BFCF78A
:1040100070FA41EC100B10BD0000000000000070B1
:104020009FED050B10B553EC102B51EC100BFCF76A
:1040300060FA41EC100B10BD000000000000001001
:1040400002E008C8121F08C1002AFAD17047704761
:10405000002001E001C1121F002AFBD170470000BF
:104060000149086070470000AC00002008B50C480A
:104070000C490D490160022101710C480C490D49A0
:104080000160024606490C48FEF744FF0A480B4B04
:10409000064A034900900A48FFF742F808BD0000AD
:1040A0001000002040670008686700081800002022
:1040B000546700087C670008800100200C00002085
:1040C0009401002082B0CDE9000121F00040019070
:1040D0009DED000B02B051EC100B7047FCF780FD1A
:1040E000FEF7C1FEFEF7CAF9FEF71CFA01220649E7
:1040F0000648FEF7E5F800F0E3F8FEF799F900F05E
:10410000FFF800BFFEE700000C000020B000002018
:1041100070B50546FFF794F848B9FFF794F830B941
:1041200008480068022805D1FFF787F810B16FF042
:10413000050404E0002415B1284601F0D5F8204616
:1041400070BD00007C00002070B504460026FFF71B
:1041500077F800BBFFF777F8E8B912480068022843
:1041600002D1FFF76AF8B0B94FF0FF3564B1A0682B
:1041700020B1E068202801D3012506E0A06820B91D
:10418000E06810B9002500E00025012D04D1A068E9
:1041900001F067FA064603E015B901F053FA064646
:1041A000304670BD7C000020F8B505460E462F460F
:1041B00017B106F07F4010B16FF0030428E0FFF75D
:1041C0003FF848B9FFF73FF830B9124800680228B5
:1041D00019D1FFF732F8B0B1002000906A4631469D
:1041E000384601F0D3FA10B16FF0020410E0344603
:1041F000009868B14FF0805007490860BFF34F8FB7
:10420000BFF36F8F04E03146384601F057FA044699
:104210002046F8BD7C00002004ED00E02DE9F84FB9
:1042200080460D4616461F46C346BBF1000F02D01E
:1042300005F07F4010B16FF003043CE0FFF700F899
:1042400048B9FFF700F830B91C480068022805D1CA
:10425000FEF7F3FF10B16FF005042CE006F001004B
:1042600010B14FF0010901E04FF0000906F0020023
:1042700010B14FF0000A01E04FF0010A4B465246E0
:1042800029465846009701F093FA044606F00100CB
:1042900040B1A5420FD017B16FF001040BE06FF0F1
:1042A000020408E005EA040028B917B16FF0010420
:1042B00001E06FF002042046BDE8F88F7C0000208A
:1042C00010B5FEF7BDFF48B9FEF7BDFF30B90B488A
:1042D0000068022805D1FEF7B0FF10B16FF00504A9
:1042E00009E00648006820B901200449086000245C
:1042F00001E04FF0FF34204610BD00007C0000209C
:1043000010B5FEF79DFF48B9FEF79DFF30B90C4888
:104310000068022805D1FEF790FF10B16FF0050488
:104320000CE007480068012806D102200449086013
:1043300001F0DCF8002401E04FF0FF34204610BD0E
:104340007C0000202DE9F04786B08046894614465F
:1043500000200490FEF774FF00285DD1FEF773FF84
:10436000002859D12D480068022803D1FEF765FFC7
:10437000002851D1B8F1000F4ED08026182500201A
:1043800005900DF1140A471E44B3206808B1D4F813
:1043900000A0A06900B1A5692DB1382D03D82079FE
:1043A00000F0010018B1002006B0BDE8F087606998
:1043B00008B160698608A06840B1E0685C2805D350
:1043C000206918B1606908B1012708E0A06830B918
:1043D000E06820B9206910B9002700E00027012F0C
:1043E0000CD12169A0684B463246CDE900510290BC
:1043F0005146404601F04EFE04900DE067B904A816
:10440000B2B24B465146CDE90050404601F010FE95
:10441000012801D0002004900498C5E77C0000200A
:104420002DE9F04105460E46164807681648006813
:10443000001D00F0C2FD681C38B936B11248016891
:10444000091D124800F026FE1AE07C190E4800688B
:104450004460BC4207D20C480168091D0C48006842
:1044600000F0FEFD0CE008480168091D09480068DD
:1044700000F0F6FD08480068844201D20648046056
:10448000BDE8F081400000202C000020A80600209C
:1044900034000020300000205C00002010B50446ED
:1044A00000F004FE1E480068401C1D4908601D48BD
:1044B000006840B91B4804600846006801280DD117
:1044C00000F0E4F90AE01848006838B915480068B7
:1044D000C06AE16A884201D8124804601348006843
:1044E000401C124908600846006860641049E06A90
:1044F0000968884202D90E49E06A0860E16A01EB66
:1045000081010C4A02EB8100211D00F0C3FD00F087
:10451000F7FD0548006808B10248006810BD0000BA
:104520003C0000202C000020480000205800002003
:1045300044000020F801002008B500F0B7FD124843
:104540000068E8B9114800F07BFD114800F078FDE3
:104550000E48104908600E480F49086000200F4BB4
:104560000F4A102100900A2001F082FA06490860E3
:104570000846006820B10BA10348006800F078FEEF
:1045800000F0BEFD08BD000070000020BC06002049
:10459000D0060020680000206C000020E406002007
:1045A00034070020546D72510000000010B516E071
:1045B00000F07CFD0C48C068C468201D00F0FDFCC4
:1045C0000A480068401E0949086009480068401E02
:1045D0000749086000F094FD204600F05EF80448AA
:1045E00000680028E4D110BD940600203C000020A3
:1045F0003800002070B504460D46206C70B1216C67
:10460000E0680844E0606168E068884201D320689F
:10461000E0602846226CE168FBF775FE70BD2DE96D
:10462000F04104460F4615464FF00008A66B206C7B
:1046300040B9206860BB606801F022FE804600201F
:10464000606025E07DB93946226CA068FBF75BFE0F
:10465000216CA0680844A060D4E90110884217D3F7
:104660002068A06014E03946226CE068FBF74BFE3E
:10467000216CE068401AE0602168E068884203D25B
:10468000216C6068401AE060022D01D106B1761EEF
:10469000701CA0634046BDE8F08110B5044694F854
:1046A000590030B9206B00F049FD204600F046FD6E
:1046B0001AE094F85900012803D1204600F03EFD8D
:1046C00012E094F85900022801D1012000E00020F6
:1046D00050B900BF502080F31188BFF34F8FBFF354
:1046E0006F8F00BF00BFFEE710BD00000146084A03
:1046F000126812680AB9012200E000220A600A6802
:1047000022B9034A1268D268106800E0002070479E
:104710006800002030B54FF44063174800F00704EC
:104720002CB1C01D20F00700134C041B1B1B0246BC
:10473000124C22600024114D6C60D018083820F013
:1047400007000F4C206000240D4D2D686C600C4D4F
:104750002D682C601146441A4C60094C24680C608A
:10476000084D4C682C60084D4C682C604FF000449C
:10477000064D2C6030BD00008C0E00208000002013
:1047800088000020900000208C0000209400002071
:1047900000BFFFF70BFF4FF0805003490860BFF3E5
:1047A0004F8FBFF36F8FF4E704ED00E02DE9F04188
:1047B00006460D4617469846069C0DB9246000E053
:1047C0002760E66325640121204601F0C0F984F8E2
:1047D0004C80BDE8F0812DE9F05F82460F4690469F
:1047E0009B460A9E0C9C4FEA8801A522206BFBF792
:1047F0009CFDA8F10100216B01EB800929F007095C
:1048000009F0070008B9012000E0002050B900BFFE
:10481000502080F31188BFF34F8FBFF36F8F00BF1D
:1048200000BFFEE7002507E0795D04F13400415543
:10483000785D00B902E06D1C102DF5D300BF00219A
:1048400043200155382E00D33726E662E664002067
:104850002065201D00F001FC04F1180000F0FDFBB4
:104860002461C6F13800A06164620020606584F8AC
:1048700058005A465146484600F052FB20600B98BB
:1048800008B10B980460BDE8F09F000010B500244B
:1048900007E004EB84010F4A02EB810000F0D0FB3B
:1048A000641C382CF5D30C4800F0CAFB0B4800F010
:1048B000C7FB0B4800F0C4FB0A4800F0C1FB0A48E4
:1048C00000F0BEFB04480949086004480849086034
:1048D00010BD0000F8010020580600206C060020E2
:1048E0008006002094060020A8060020300000204A
:1048F0003400002010B50146164800E00068036847
:104900008B42FBD30246436813448B4204D1436875
:104910004C682344436001460A464B6813440468CC
:10492000A34211D10C4C03682468A34208D04B6801
:104930000468646823444B6003681B680B6005E0EF
:10494000054B1B680B6001E003680B60884200D0D8
:10495000016010BD80000020880000202DE9F0419A
:1049600004460D4616461F464FF000086560246158
:10497000B5420CD8F01BA169884202D34FF0010860
:1049800011E0211D0948006800F06AFB0BE0BE42FF
:1049900004D2BD4202D34FF0010804E0211D0448B7
:1049A000006800F05DFB4046BDE8F0816C0000202F
:1049B0006800002070B5054600F078FBA86B08B9C8
:1049C000012400E0002400F09BFB204670BD70B580
:1049D000054600F06BFBA86BE96B884201D101240E
:1049E00000E0002400F08CFB204670BDF8B50546C1
:1049F0000F4616480068C068C468201D00F0DDFA44
:104A0000E06901281DD1A06941192B463A4620468C
:104A1000FFF7A4FFA8B1002003462A4601460090F4
:104A2000204601F07DFD064656B900BF502080F3B8
:104A30001188BFF34F8FBFF36F8F00BF00BFFEE73A
:104A400000BF2046616A8847F8BD0000680000206A
:104A5000F0B587B082E00398002811DA04AE56B9A9
:104A600000BF502080F31188BFF34F8FBFF36F8FCB
:104A700000BF00BFFEE7D6E90020B168904700BF45
:104A8000039800286ADB059C606908B9012000E0F2
:104A9000002010B9201D00F090FA02A800F0C0F824
:104AA000054603980A2857D2DFE800F009050731C8
:104AB000334F0608323400BF00BF00BF00BF049868
:104AC000A269811803462A462046FFF747FFE8B14E
:104AD0002046616A8847E069012817D100200090CC
:104AE0000498A169421800231946204601F018FDD8
:104AF000074657B900BF502080F31188BFF34F8F8E
:104B0000BFF36F8F00BF00BFFEE700BF25E000BF0F
:104B100023E000BF0498A061A06908B1012000E073
:104B2000002050B900BF502080F31188BFF34F8F91
:104B3000BFF36F8F00BF00BFFEE7A06941192B468E
:104B40002A462046FFF70AFF07E094F82C0010B928
:104B5000204600F0F3FA00E000BF00BF002203A9E6
:104B60000448006801F072F900287FF474AF07B0C0
:104B7000F0BD000070000020F8B505460C4600F0BE
:104B800011FD684600F04CF80646009820BB44B979
:104B9000B54206D801F012FC31462846FFF726FF41
:104BA0001CE03CB10E480068006808B9012000E034
:104BB00000200446A91B22460A48006800F06EFB4C
:104BC00001F0FCFB50B94FF0805007490860BFF37B
:104BD0004F8FBFF36F8F01E001F0F0FBF8BD0000D5
:104BE0006C0000207000002004ED00E00A49096814
:104BF000096809B9012100E0002121B14FF0FF311E
:104C0000064A116006E004490968C968C868034A91
:104C10004168116070470000300000205C000020F7
:104C200070B5044601F0A2FA0546074800688542BF
:104C300004D200F00BF80120206001E00020206089
:104C400001480560284670BD780000202DE9F84332
:104C500032E024480068C068056822480068C068DF
:104C6000C468201D00F0A9F92046616A8847E06900
:104C7000012821D1A0694619AE4207D96660246196
:104C8000211D1848006800F0EBF915E000200346EC
:104C90002A4601460090204601F042FC074657B9DB
:104CA00000BF502080F31188BFF34F8FBFF36F8F89
:104CB00000BF00BFFEE700BF0A480068006808B9EF
:104CC000012000E000200028C3D00648D0F8008072
:104CD00005480068034908600348C0F80080BDE843
:104CE000F8830000680000206C0000200E48006877
:104CF000401C08B9012000E0002050B900BF50203E
:104D000080F31188BFF34F8FBFF36F8F00BF00BFD9
:104D1000FEE700BF502080F31188BFF34F8FBFF331
:104D20006F8F00BF00BFFEE79800002010B503465C
:104D3000002022B903EA010434B1012004E003EAAF
:104D400001048C4200D1012010BD08B500BF6846A7
:104D5000FFF7CCFC044620460099FFF70DFFFFF754
:104D600077FEF4E770B5044600F0A0F994F94550D9
:104D700010E0606A08B9012000E0002038B904F1B1
:104D8000240001F0CFFA18B100F0E8FA00E003E0E7
:104D9000681E45B2002DECDC00BFFF2084F8450002
:104DA00000F0AEF900F082F994F9445010E0206967
:104DB00008B9012000E0002048B904F1100001F01A
:104DC000B1FA08B100F0CAFA681E45B200E001E08D
:104DD000002DECDC00BFFF2084F8440000F090F9C7
:104DE00070BD00002DE9F04104464FF0000800F0CE
:104DF000D9FB4648006808B9FFF78CFC44480068B6
:104E0000204000286BD1D4B1083404F00700B0B1C1
:104E100004F00700C0F10800044404F0070008B9DA
:104E2000012000E0002050B900BF502080F311881D
:104E3000BFF34F8FBFF36F8F00BF00BFFEE7002CA3
:104E40004DD034480068844249D8334E3046056816
:104E500001E02E462D686868A04202D2286800282A
:104E6000F7D12A480068854239D0306800F1080837
:104E7000286830606868001B102819D92F1907F0BE
:104E8000070008B9012000E0002050B900BF502001
:104E900080F31188BFF34F8FBFF36F8F00BF00BF48
:104EA000FEE76868001B78606C603846FFF722FDFB
:104EB000184968680968081A1649086008460068B1
:104EC00016490968884203D21248006813490860ED
:104ED0000F4968680968084368600020286001F08D
:104EE0006DFA08F0070008B9012000E0002050B971
:104EF00000BF502080F31188BFF34F8FBFF36F8F37
:104F000000BF00BFFEE74046BDE8F08188000020FA
:104F1000940000208C0000208000002090000020E1
:104F2000001F4FF080730360001F21F00103036036
:104F3000001F054B036014380260001F6FF002036E
:104F40000360203870470000ED4C000800B52DEDDF
:104F5000048B83B041EC190BFBF7A4FC41EC180B5C
:104F600018EE100A18EE901A8DED008B002818BF6D
:104F70000120084320F00040C0F17F6000F1E040D4
:104F8000C00F14D019EE101A19EE900A8DED009B87
:104F9000002918BF0121084320F00040C0F17F60C4
:104FA00000F1E040C00F04BF0120FFF759F851ECB9
:104FB000180B03B0BDEC048B00BD01460A69D1E9B2
:104FC00001309860D1E9010358605068884201D1EE
:104FD00088685060002008611068401E10601068EA
:104FE0007047000005490968886904490968C96A69
:104FF000C1F13801014A1268916170472C0000200C
:10500000034B0360034B0B60802313607047000069
:10501000D407002030080020034B0360034B0B60D3
:105020004FF4807313607047300A00208C0A002010
:1050300070B504460D462946204600F03FFB70BD82
:1050400000F1080141604FF0FF31816000F108017B
:10505000C16001610021016070470021016170475A
:1050600010B502460B685C1C0CB9106907E002F130
:10507000080000E04068446824689C42FAD944680B
:105080004C604C68A160886041600A611468641CCF
:10509000146010BD42684A6093688B6093685960E1
:1050A0009160086103685B1C0360704700BF50207B
:1050B00080F31188BFF34F8FBFF36F8F00BF0E488F
:1050C0000068401C0C49086008460068012812D19D
:1050D0000A480068C0B208B9012000E0002050B9B9
:1050E00000BF502080F31188BFF34F8FBFF36F8F45
:1050F00000BF00BFFEE770479800002004ED00E00D
:105100000D48006850B900BF502080F31188BFF3EC
:105110004F8FBFF36F8F00BF00BFFEE706480068E8
:10512000401E054908600846006820B9002080F349
:10513000118800BF00BF70479800002070B5064678
:105140003546002E3FD0083D2C461F49606809684F
:10515000084008B1012000E0002050B900BF5020F5
:1051600080F31188BFF34F8FBFF36F8F00BF00BF75
:10517000FEE7206808B9012000E0002050B900BF18
:10518000502080F31188BFF34F8FBFF36F8F00BFA4
:1051900000BFFEE70C4960680968084098B12068C4
:1051A00088B90949606809688843606000F0FAF9C5
:1051B0000649606809680844044908602046FFF70A
:1051C00099FB01F0FBF870BD940000208C000020DA
:1051D00000204FF0E02108618861064800684FF424
:1051E0007A71B0FBF1F0401E4FF0E02148610720DA
:1051F000086170472800002070B5FBF72DF80446C1
:10520000102C16D304F1E02090F8F05315480078E4
:10521000854201DB012000E0002050B900BF502092
:1052200080F31188BFF34F8FBFF36F8F00BF00BFB4
:10523000FEE70D48006800F4E0600C490968884208
:1052400001D8012000E0002050B900BF502080F3B9
:105250001188BFF34F8FBFF36F8F00BF00BFFEE712
:1052600070BD00009C0000200CED00E0A0000020BC
:10527000024600200BE0084B53F8303033B9064BA0
:1052800043F8301003EBC0035A6002E0401C0828CA
:10529000F1D300BF70470000B80100202DE9F041B4
:1052A00005460E4617462C46FFF700FF94F94400CA
:1052B000401C10B9002084F8440094F94500401CBB
:1052C00010B9002084F84500FFF71AFFA06B28B939
:1052D0003A46314604F1240000F062F82046FFF718
:1052E00041FDBDE8F081000070B504460025D4B151
:1052F0001248006808B9012000E0002050B900BF42
:10530000502080F31188BFF34F8FBFF36F8F00BF22
:1053100000BFFEE700F046F900212046FFF780F8C5
:1053200001F04CF805463DB94FF080500449086043
:10533000BFF34F8FBFF36F8F70BD0000640000207C
:1053400004ED00E003490968016003490968416010
:105350007047000054000020400000200120014957
:10536000086070475000002070B504460D4654B9DF
:1053700000BF502080F31188BFF34F8FBFF36F8FB2
:1053800000BF00BFFEE70548016818312046FFF75F
:1053900067FE01212846FFF743F870BD2C0000206E
:1053A00070B505460E46144655B900BF502080F32F
:1053B0001188BFF34F8FBFF36F8F00BF00BFFEE7B1
:1053C0000648016818312846FFF764FE0CB14FF01B
:1053D000FF3621463046FFF723F870BD2C00002031
:1053E00070B504460D46164654B900BF502080F3F0
:1053F0001188BFF34F8FBFF36F8F00BF00BFFEE771
:105400001048006808B1012000E0002050B900BF3A
:10541000502080F31188BFF34F8FBFF36F8F00BF11
:1054200000BFFEE745F0004007490968886106486B
:10543000016818312046FFF72DFE01213046FEF7A6
:10544000EFFF70BD640000202C00002070B5054601
:105450000E462148006808B1012000E0002050B944
:1054600000BF502080F31188BFF34F8FBFF36F8FC1
:1054700000BF00BFFEE746F000402860EC6854B96A
:1054800000BF502080F31188BFF34F8FBFF36F8FA1
:1054900000BF00BFFEE72846FFF78FFD201DFFF786
:1054A0008CFD0E49E06A0968884202D90B49E06A1E
:1054B0000860E16A01EB8101094A02EB8100211DCC
:1054C000FFF7E8FD0749E06A0968C96A884202D91E
:1054D00001200549086070BD6400002044000020E0
:1054E000F80100202C0000205000002010B586B0EC
:1054F00000200590049003AA04A905A8FFF780FDE9
:105500000022DDE904101346CDE9002102901EA11E
:105510001F48039A00F0BEFD1E4908600846006857
:1055200008B1012400E00024012C02D100F0BCFFEE
:105530000446012C15D100BF502080F31188BFF321
:105540004F8FBFF36F8F00BF4FF0FF3012490860DD
:1055500001201249086000201149086000F0D4F9C8
:1055600010E0601C08B1012000E0002050B900BF2D
:10557000502080F31188BFF34F8FBFF36F8F00BFB0
:1055800000BFFEE706B010BD49444C4500000000D6
:1055900091470008600000205C00002048000020C7
:1055A0004000002002480068401C01490860704724
:1055B000640000201E48006818B101201D490860E1
:1055C00034E000201B4908601B4801680CE051B919
:1055D00000BF502080F31188BFF34F8FBFF36F8F50
:1055E00000BF00BFFEE7491E01EB8100134A52F8DD
:1055F000200008B9012000E000200028E7D101EBDD
:1056000081020E4B03EB820042685268426000F157
:1056100008024368934202D142685268426042687D
:10562000D268074B1A600448016000BF7047000051
:10563000640000205000002044000020F8010020F9
:105640002C00002010B52020FFF7CCFB044634B11D
:1056500000202060201DFFF7F3FC0020207720466B
:1056600010BD38B5054655B900BF502080F31188EC
:10567000BFF34F8FBFF36F8F00BF00BFFEE7202047
:1056800000900098202801D1012000E0002050B9AE
:1056900000BF502080F31188BFF34F8FBFF36F8F8F
:1056A00000BF00BFFEE72C4634B100202060201D63
:1056B000FFF7C6FC01202077204638BD2DE9FE4FBC
:1056C00007468846002001903C46009057B900BF2D
:1056D000502080F31188BFF34F8FBFF36F8F00BF4F
:1056E00000BFFEE708F07F4008B9012000E000207D
:1056F00050B900BF502080F31188BFF34F8FBFF324
:105700006F8F00BF00BFFEE704F1040909F1080034
:105710000290FFF747FFD9F80C60206840EA0800C4
:10572000206026E0D6F804B035680020009005F02F
:105730007F4A25F07F450AF0806028B9206828401C
:1057400040B10120009005E020682840A84201D126
:1057500001200090009858B10AF0807010B10198B3
:1057600028430190206840F000713046FFF76EFE3C
:105770005E4602988642D5D1206801998843206010
:1057800000F01CFE2068BDE8FE8F00002DE9F0410E
:1057900004460D46164633462A462146034800F085
:1057A00001FF07463846BDE8F0810000315000088F
:1057B0002DE9FF4F83B081460D461746DDF8408046
:1057C0004C464FF0000A00200190B9F1000F0AD1B9
:1057D00000BF502080F31188BFF34F8FBFF36F8F4E
:1057E00000BF00BFFEE705F07F4008B9012000E0E0
:1057F000002050B900BF502080F31188BFF34F8FB5
:10580000BFF36F8F00BF00BFFEE70DB1012000E0C6
:10581000002050B900BF502080F31188BFF34F8F94
:10582000BFF36F8F00BF00BFFEE700F08FFC10B921
:10583000B8F1000F01D1012000E0002050B900BFF5
:10584000502080F31188BFF34F8FBFF36F8F00BFDD
:1058500000BFFEE7FFF7A6FE206800902946069AE3
:105860000098FFF763FA0290029838B1009E4FF05B
:105870000008C7B12068A843206014E0B8F1000F09
:1058800003D1009E012001900DE00FB14AF0807A13
:10589000069808B14AF0806A45EA0A014246201D8E
:1058A000FFF79EFD002600F089FD8346B8F1000F4A
:1058B00023D0BBF1000F07D14FF080501149086091
:1058C000BFF34F8FBFF36F8FFFF78CFB064606F0D9
:1058D000007080B9FFF7EAFB266829463046069A31
:1058E000FFF724FA18B117B12068A84320600120FF
:1058F0000190FFF705FC26F07F46304607B0BDE873
:10590000F08F000004ED00E01CB5524800685249D9
:10591000884201D0012000E0002050B900BF502093
:1059200080F31188BFF34F8FBFF36F8F00BF00BFAD
:10593000FEE7484800684849491E884201D00120D6
:1059400000E0002050B900BF502080F31188BFF361
:105950004F8FBFF36F8F00BF00BFFEE73F49084680
:1059600000780190FF200A461070084600780090E9
:105970009DF8000000F0F0009DF80020904201D159
:10598000012000E0002050B900BF502080F31188B2
:10599000BFF34F8FBFF36F8F00BF00BFFEE79DF8CF
:1059A000000000F050002E4A107007202D4A1060B1
:1059B00009E02C480068401E2A4A10609DF800004B
:1059C0004006000E00909DF8000000F08000802846
:1059D000EFD024480068C0F10700042801D101205D
:1059E00000E0002050B900BF502080F31188BFF3C1
:1059F0004F8FBFF36F8F00BF00BFFEE719480068ED
:105A00000002184A10601046008800F4E060106040
:105A1000124A019810700F482030006840F470005E
:105A20000C49203108600846006840F0704008606A
:105A3000FFF7CEFB00200C490860FAF7D5FB0B48B6
:105A4000006840F0404009490860FAF7B9FB0020BF
:105A50001CBD000000ED00E071C20F4100E400E059
:105A60009C000020A00000209800002034EF00E0FF
:105A70002DE9F84380460E4617461D46DDF8209076
:105A8000B8F1000F01D0012000E0002050B900BFA4
:105A9000502080F31188BFF34F8FBFF36F8F00BF8B
:105AA00000BFFEE70DB1012000E0002050B900BFAB
:105AB000502080F31188BFF34F8FBFF36F8F00BF6B
:105AC00000BFFEE707B10EB1012000E0002050B991
:105AD00000BF502080F31188BFF34F8FBFF36F8F4B
